:020000040000fa
:08000000020c040000000000e6
:020000040000fa
:100008000a1000000a1000000a1000000a10000080
:100018000a1000000a1000000a1000000a10000070
:100028000a1000000a1000000a1000004e0f00001d
:100038000a1000000a1000000a1000000a10000050
:10004800f60f00000a1000000a100000da0c000089
:100058009a0d0000aa0f00000a1000000a10000004
:100068000a1000000a1000000a1000000a10000020
:100078000a1000000a1000000a1000000a10000010
:100088000a1000000a1000000a1000000a10000000
:100098000a1000000a100000180e0000d80e000018
:1000a8000a1000000a1000000a1000000a100000e0
:1000b8000a1000000a1000000a1000000a100000d0
:1000c8000a1000000a1000000a1000000a100000c0
:1000d8000a1000000a1000000a1000000a100000b0
:1000e8000a1000000a1000000a1000000a100000a0
:1000f8000a1000000a1000000a1000000a10000090
:100108000a1000000a1000000a1000000a1000007f
:100118000a1000000a1000000a1000000a1000006f
:100128000a1000000a1000000a1000000a1000005f
:100138000a1000000a1000000a1000000a1000004f
:100148000a1000000a1000000a1000000a1000003f
:100158000a1000000a1000000a1000000a1000002f
:100168000a1000000a1000000a1000000a1000001f
:100178000a1000000a1000000a1000000a1000000f
:100188000a1000000a1000000a1000000a100000ff
:100198000a1000000a1000000a1000000a100000ef
:1001a8000a1000000a1000000a1000000a100000df
:1001b8000a1000000a1000000a1000000a100000cf
:1001c8000a1000000a1000000a1000000a100000bf
:1001d8000a1000000a1000000a1000000a100000af
:1001e8000a1000000a1000000a1000000a1000009f
:0801f8000a1000000a100000cb
:020000040000fa
:100208000a1000000a1000000a1000000a1000007e
:100218000a1000000a1000000a1000000a1000006e
:100228000a1000000a1000000a1000004e0f00001b
:100238000a1000000a1000000a1000000a1000004e
:10024800f60f00000a1000000a100000da0c000087
:100258009a0d0000aa0f00000a1000000a10000002
:100268000a1000000a1000000a1000000a1000001e
:100278000a1000000a1000000a1000000a1000000e
:100288000a1000000a1000000a1000000a100000fe
:100298000a1000000a100000180e0000d80e000016
:1002a8000a1000000a1000000a1000000a100000de
:1002b8000a1000000a1000000a1000000a100000ce
:1002c8000a1000000a1000000a1000000a100000be
:1002d8000a1000000a1000000a1000000a100000ae
:1002e8000a1000000a1000000a1000000a1000009e
:1002f8000a1000000a1000000a1000000a1000008e
:100308000a1000000a1000000a1000000a1000007d
:100318000a1000000a1000000a1000000a1000006d
:100328000a1000000a1000000a1000000a1000005d
:100338000a1000000a1000000a1000000a1000004d
:100348000a1000000a1000000a1000000a1000003d
:100358000a1000000a1000000a1000000a1000002d
:100368000a1000000a1000000a1000000a1000001d
:100378000a1000000a1000000a1000000a1000000d
:100388000a1000000a1000000a1000000a100000fd
:100398000a1000000a1000000a1000000a100000ed
:1003a8000a1000000a1000000a1000000a100000dd
:1003b8000a1000000a1000000a1000000a100000cd
:1003c8000a1000000a1000000a1000000a100000bd
:1003d8000a1000000a1000000a1000000a100000ad
:1003e8000a1000000a1000000a1000000a1000009d
:0803f8000a1000000a100000c9
:020000040000fa
:1018000001000000afa721000e7f22000e0188001a
:1018100000000000000020000000e0000200320094
:10182000000120002002880014000700fb010700cf
:101830000000e00003003a0060c623000100200021
:10184000020037000000200001002000810f70001e
:101850000100320014000700000020000000e0003a
:10186000020032000000020000000000e43002002c
:10187000000000000040da000000fe004440a90023
:10188000201020000000e0000300320000002000d3
:10189000a00188004440a800000006008a1f7800cc
:1018a0008b1f7800000006009101880080047800fa
:1018b0000000eb001a003700e284440032a0b400bc
:1018c0009905ba00e284440032a0b4009906ba0037
:1018d000e284440032a0b4000006eb00476fde0053
:1018e000fd07b200636ce10003003a00ebff070064
:1018f0000000eb000a003700606ce10004003a00d1
:10190000005deb008b05e900fdff3e0004003700a1
:101910006168e100010032000086eb000b00070067
:1019200019c7ba001905ba000e04e00003003a0016
:101930000a00e000e0ff3a0000000600fe07b200e7
:101940009e0188008a047800f5ff3700395dba00ef
:101950008b05e9000c003200295dba008b05e90017
:10196000080032000c00e00003003a00e28444006a
:1019700032a0b400f5ff370019ddba008b05e9008d
:10198000faff3a008904e800e184440032a0b40080
:101990000000060000000000000000000000000041
:1019a0000000000000000000000000000000000037
:1019b000000000003600f800809fbe00829fbe003d
:1019c000849fbe00869fbe003400f8000000200007
:1019d000a00188000400fa008560a900708320003f
:1019e00011c0b300014878003011800080407800b9
:1019f0006083200001487800100280004500de006e
:101a0000674060000080fb00000f7800110280003a
:101a1000000e20000100700010028800000000008d
:101a2000608320001040780080407800808720008c
:101a3000911607001e0078000040780067406000a3
:101a40000080fb00670060004500dd00120280009e
:101a5000f1f12f0081006100010070001002880088
:101a600000000000100280004500de0067406000ba
:101a70000080fb001007980011028000000e20007b
:101a800001007000100288000000000092918000a8
:101a90006083200090407800201b2100000041005e
:101aa00001487800909180000000e8009091880043
:101ab00091918000f0072000808f500002003600d6
:101ac0000000eb0090918800b1918000f0072000a9
:101ad000808f500003003e00b09180000000e800bd
:101ae000b09188001e0090000040780067406000c0
:101af0000080fb00670060004500dd0012028000ee
:101b0000f1f12f00810061000100700010028800d7
:101b1000000000000080fa003400f9004f03be000e
:101b20004f02be004f01be004f00be003600f9005c
:101b3000004006003600f800809fbe00829fbe0075
:101b4000849fbe00869fbe003400f8000000200085
:101b5000a00188000400fa008580a90050882000b8
:101b600011c0b30001487800100280004500de007b
:101b7000674060000080fb00000f780011028000c9
:101b8000000e20000100700010028800000000001c
:101b9000630047008000780080c8200064160700ba
:101ba000204798001e0078000040780067406000e1
:101bb0000080fb00670060004500dd00120280002d
:101bc000f1f12f0081006100010070001002880017
:101bd000000000002e4090000004e00008003200e9
:101be000be409000408820000148780040882000d6
:101bf000104078000080fb002011880004003700ae
:101c00009580a9006088200011c0b30001487800c9
:101c10000080fa003400f9004f03be004f02be00fe
:101c20004f01be004f00be003600f9000040060024
:101c30003600f800809fbe00829fbe00849fbe00d9
:101c4000869fbe003400f80000002000a00188003c
:101c50000400fa0087c0a90050c9200011c0b300d9
:101c600001487800b01180008040780040c9200011
:101c700001487800100280004500de0067406000e7
:101c80000080fb00000f780011028000000e200091
:101c900001007000100288000000000040c9200010
:101ca000104078008040780060092100f21507009c
:101cb0001e00780000407800674060000080fb0054
:101cc000670060004500dd0012028000f1f12f0086
:101cd0008100610001007000100288000000000017
:101ce000100280004500de00674060000080fb00bd
:101cf0001007980011028000000e20000100700003
:101d00001002880000000000c2b1800040c920001d
:101d100090407800802321000000410001487800b5
:101d2000c0b180000000e800c0b18800c1b18000ef
:101d3000f03f2000808f5000020036000000eb00d2
:101d4000c0b18800e1b18000f03f2000808f5000da
:101d500003003e00e0b180000000e800e0b1880030
:101d60001e00900000407800674060000080fb008b
:101d7000670060004500dd0012028000f1f12f00d5
:101d80008100610001007000100288000000000066
:101d90000080fa003400f9004f03be004f02be007d
:101da0004f01be004f00be003600f90000400600a3
:101db0003600f800809fbe00829fbe00849fbe0058
:101dc000869fbe003400f80000002000a0018800bb
:101dd0000400fa0087e0a900300a210011c0b30016
:101de00001487800100280004500de006740600076
:101df0000080fb00000f780011028000000e200020
:101e0000010070001002880000000000630047001d
:101e100080007800601a2100c5150700204798004f
:101e20001e00780000407800674060000080fb00e2
:101e3000670060004500dd0012028000f1f12f0014
:101e400081006100010070001002880000000000a5
:101e50002e4090000004e000040032003e4090005c
:101e60000080fb00a01188000400370097e0a90063
:101e7000400a210011c0b300014878000080fa0038
:101e80003400f9004f03be004f02be004f01be00f8
:101e90004f00be003600f900004006003600f80092
:101ea000809fbe00829fbe00849fbe00869fbe00b2
:101eb0003400f80000002000a00188000000fa00b3
:101ec0008460a9001000200030bc880020bc800085
:101ed0000000e80020bc880040bc800051bc8000ad
:101ee00061004000e080480040bc880051bc880090
:101ef00060bc80000000e80060bc8800b0bc8000ce
:101f00000000e0000b00320021bc80008040800017
:101f100000017800110009008280d8008000fd00d7
:101f20000000e00003003a00b1bc800040782100ce
:101f3000010001000080fa003400f9004f03be00e8
:101f40004f02be004f01be004f00be003600f90038
:101f500000400600809fbe003400f8000000200012
:101f6000a00188000000fa0085a0a900808120005f
:101f70009000780000188000008040008000d100b0
:101f8000808120000108780080812000900090006e
:101f900010188000008040008000d1008081200067
:101fa0001100980080812000a0009000201880007f
:101fb000008040008000d100808120002100980036
:101fc00080812000b0009000301880000080400028
:101fd0008000d10080812000310098000080fa004c
:101fe0003400f9004f00be00004006003400f80045
:101ff000881f780008002000a80188004f0478009e
:102000000000fa008500a9000080fa003400f90001
:10201000004006000040da000000fe00000005005d
:1020200003f0a200889fbe008a9fbe008c1f78002c
:10203000f5000700fc0033006450e1004f0032005f
:102040006420e1005200320003826c0007003b0074
:102050000905d0000306d000820f54000c065d0075
:10206000020039000200320089017800030678007e
:102070008582550004003d000003fd008103fd0042
:102080008502ea008b854200840f720002003b004b
:1020900060001000e08018006011b8000005eb003f
:1020a0007a28e1000a00390006007800c75ddd00eb
:1020b000f707b200878075002d003700828171001c
:1020c0000a017800610560008180d1000080d300a2
:1020d0008502e900f9ff3b000604400087844800c0
:1020e00002003b0060041400e0841c000988a30087
:1020f000070032008a8171008281710061016400f1
:102100008904d1000884d3008b05e800170037004c
:102110000978a30013003a000b00e000130034001c
:102120008b05e9000804440089844c000a447400cb
:102130000978a3000d003a000b00e000070034000e
:102140008b05e9000804440089844c0001003a0032
:102150000b0020000978a300f7ff32000001eb001c
:1021600002003700828171000a0178006b000700cd
:102170000cf0a70001f0a000b40037006420e100db
:1021800002003a00838f6c00b40033000801be00e7
:102190000200be00ad003700889fbe008a9fbe00cf
:1021a0008c1f7800980007009f00330003866c00a6
:1021b0006450e1002e0032006420e1003300320060
:1021c0006150e1002f0032006120e1003100320057
:1021d00085855500eb07b0000900200008042000a9
:1021e000050037000804440089844c000a003100cf
:1021f0000603430087834b000001530081815b008d
:10220000f8ff33000203be000800a00008044400e9
:1022100089844c00f6ff3900c639dd008301730064
:1022200001003200130020008904d1000884d3008b
:102230000998a300050032000800a7000300a000d1
:102240008904d1000884d3008b05e8008904d100fb
:102250000884d3000001eb000281d2002f000700a8
:1022600001f0a1000cf0a70001f0a00077003700fa
:102270006420e100790032000801be000200be00c7
:10228000f7ff37006120e100740032006000b80001
:10229000f3ff37000000200001f82700f0ff3700af
:1022a00014002000a70037000001be004100070015
:1022b0000470a70003f0a10003f8a30013003a0084
:1022c0006509b10010003200090035006928e100fd
:1022d0000200350001002800000005000000400059
:1022e000818048008502e900fcff3a0000000600fa
:1022f000f88f4200050035008100d1000080d30036
:102300008502e800fcff3a00000006008000eb00b8
:10231000000005006011b800a50037008100200012
:10232000618055000b003d000b00200061fe2f0076
:102330000100e1001d003400828171006101640030
:102340008904d1000884d3000000e800faff3a00b5
:102350007100200061006400030070000200600052
:102360000900320061044400e0844c000988a500a3
:10237000050032008b05e8006808e10002003a0021
:102380008904d1000884d300f20f20000258e10034
:1023900005003d00c75ddd00f907b20089807500ca
:1023a00008007800000006000bf827008b0078007a
:1023b00000000500c70ade00f107b200f50fb20009
:1023c00008003200e1cf4200020032000170a0009c
:1023d00024000500810f7000010032000408050090
:1023e00044000500810f700002003a00140005004f
:1023f0008502e9000000400081c04800fcff3b006e
:102400000170a000240005000004be00e9ff0700e1
:102410000003be000405be000200be00e5ff070089
:10242000844f7500000006000200be006450e10009
:10243000050036006420e100020036000968a300b0
:1024400001003a000800be000160a0004f067800bd
:102450004f05be004f04be0000000600f0ff2f0035
:10246000f1ff2700f9ff3700889fbe008a9fbe005a
:102470008c1f7800e4ff0700ebff330003866c003d
:102480006450e100240032006420e10027003200a3
:102490006150e100220032006120e10021003200a1
:1024a0008b854200eb07b1000134b800003ab80058
:1024b0000804420089844a00013ab8000030b8009c
:1024c0008880400009014a000400330000004000f9
:1024d00081804800020149008b05e900c909dd003f
:1024e000830170000100320013002000c814de00d8
:1024f0004814dd004709de001200b200c808de0003
:102500000884700085ff070001f0a1000cf0a7000f
:1025100001f0a000cdff37006120e100cfff3200c5
:102520000801be000200be00f7ff37006150e10065
:10253000fcff3a00c9ff37004c0007000400be0052
:1025400000000600889fbe008a9fbe00841f78009e
:10255000adff07004f00780011003300f0ff2f009f
:10256000838f6c0006003b00040565000a00a7008d
:102570000800370009f0a60010002000080037000e
:10258000820f5400838f5c0003003900100020008c
:1025900001003e000000200009f0a7000000ea0052
:1025a0004f05be004f04be000000e0000000060022
:1025b000889fbe008a9fbe000082700004027100e6
:1025c00004827100260032000004be000200be003a
:1025d0006011b8006b092000950220000182cf0035
:1025e0000a0039000541b1000082cf000700390020
:1025f0000541b1000982cf00040039000541b10056
:102600000882cf00010039000541b10005425200a7
:10261000120032000a003b008281710061016400f7
:102620008100d1000080d3008984d3000884d300c6
:102630008b05e8000442e800f7ff3a000700370086
:102640000804440089844c00000048008180480050
:102650008b05e9000442e900f9ff3a002fff07006b
:102660004f05be004f04be00000006006022b80007
:10267000060220000000d0008180d2000482d20037
:102680008582d2000000a0000202520083825a001c
:10269000030031000202420083824a000000a100d0
:1026a0000603e900f3ff3a000000060002003700cd
:1026b0000204e0000b003200810178000002780083
:1026c00030417800b14f5100f9ff32001000200076
:1026d00014427800934f5200030031000080eb0059
:1026e000000006000000eb0000000600881f7800d4
:1026f0000204780008017800fd000700080040008f
:102700004f047800000006000000fa00881f7800df
:1027100000047800ea8157003fb9970088007800ec
:1027200060372100070007000000e00002003500cc
:102730008040eb00017478004f0478000080fa00bc
:10274000000006006200fa00889fbe008a1f780021
:102750000005780081047800020478008300780086
:1027600080f92f000f004000b60107009a979f00e4
:10277000a9979f000000eb00b09f9f001885fb0009
:102780008a04fb000a05ea004f55de0050022000d3
:10279000808f54000d003200e10f55000b003a000d
:1027a0000a017800880078002f9097009f91970089
:1027b00003000100a0979f000000e0008e0032009f
:1027c0003f9897000000e800b09f9f000a04440073
:1027d00050022000808f5400040032000900e00005
:1027e000e6ff3a003f989700840037000000eb00b6
:1027f000909f9f00809f9f00f0979f00e0979f0011
:10280000d0979f00c0979f000700370041a7210085
:10281000010050000000400081a621006100780006
:10282000df98970001007000d09f9f008804780017
:1028300009047800384578008a00fb0040a7210091
:10284000b20007000000e000f0ff3a00a1c2b300b0
:10285000814f55000e003a00cf8897000180e900b3
:10286000c08f9f0010007800c09f9f000000e00014
:1028700005003d000000ea00c09f9f005f989700a0
:102880000020a000d09f9f000904e8000f0037003f
:10289000c09f9f000000eb0005003700f2ff2700fb
:1028a000820f5000020032006a01b900028040002d
:1028b0000904780088047800b900fb000103b10026
:1028c000e98f5000f5ff3600c09f9f00e0c2b300c3
:1028d000984f1000020032000080eb001900370012
:1028e000a0c2b300d84f100007003a00cf8897006d
:1028f0000180e900c08f9f0010007800a09f9f001a
:102900000804e800100037000000eb00a09f9f00c3
:102910008800780005003700f3ff2700830f500080
:10292000020032006a02b90004004100010478008c
:10293000880078003101fb000203b100e90f51006b
:10294000f5ff3600a09f9f00984478008900fb00a7
:1029500000a621006d0007000000e0000200320028
:102960000804e800010037008044eb00c97f9f00a5
:1029700080c6b30080cf540004003a0098cf140002
:102980000a003a006640500006003700c0c6b30097
:1029900080cf540005003a0098cf140003003a009d
:1029a00065404000c07f9f000804e8001801fb005c
:1029b000e3fb2f008f81410081f92f008f804000c1
:1029c000a0f92f000f004000100007000000e000f9
:1029d00009003a00e1fb2f008f804000a0f92f0092
:1029e0000f0040005b0007000000e000020035001f
:1029f0000804e80061ff37000080eb004f05780015
:102a00004f04be000080fa0000000600889fbe0050
:102a10008a1f78000004780030c5b300804f510051
:102a20000800320030c7b300804f5100050032006b
:102a300051c2b30078009000814f510017003a0056
:102a4000140037001180e900800878001005780034
:102a50006a049800d80c90000900e00004003d00d2
:102a60000a0078003500070080047800070037006e
:102a7000090178008000eb000a00780012000700ce
:102a80000000e000010032008a045000190c980098
:102a9000090037008271780005003700808141000d
:102aa0000204e00001003a00014178008249780008
:102ab0000000e800700498000000eb004f0578006b
:102ac0004f04be000000060003003700b0cf100026
:102ad000050032000201e900800178000200e000f8
:102ae000faff3a000000050003007800000006002d
:102af0008001780002003700b15978000201e90036
:102b00000200e000fcff3a0000000600020037006f
:102b10000304e000060032000001780002007800a3
:102b2000b041780081cf5100f9ff3a000100370031
:102b30000001eb0002007800000006008000780031
:102b4000010178003104e000fdff3a00000051006f
:102b5000000006000400fa00889fbe008a9fbe00a5
:102b60008c1f78000004780001067800f80d9000b2
:102b700078009000808555000808900080855500f9
:102b80001808900080855500280890008085550021
:102b900038089000808555004808900080855500d1
:102ba0000002220090bf9f0000032300a0bf9f00ef
:102bb000081090000028a30015003a000b00e00068
:102bc000130034000b0578008a047800e20f5500ea
:102bd0000100360029002000c8019000090178009a
:102be000ee80570058009000030001005004980048
:102bf0000000e0008c0032006808900009004000ee
:102c0000600c9800090555004240a900eeff3c0009
:102c1000780190000200e0000c003400c801900030
:102c20008c007800580090000300010050049800c8
:102c30008080eb000000e0007c003200e80890009b
:102c40007800900000804000600c9800880c900094
:102c50000900e0001100340009057800e28f5400fb
:102c6000010036002a002000c80190000a01780007
:102c7000ec805700580090000300010050049800b9
:102c80000000e00068003200680890000a00400080
:102c9000600c98008a845400edff370018099000fa
:102ca0000200e0000c003400c8019000e800900031
:102cb0005800900003000100500498008080eb0051
:102cc0000000e00059003200e80890001808900069
:102cd00000804000600c9800a80c90000900e00003
:102ce0001100340009057800e28f5400010036001d
:102cf0002a002000c80190000a017800ec805700eb
:102d00005800900003000100500498000000e0000b
:102d100045003200680890000a004000600c9800ee
:102d20008a845400edff3700380990000200e0006b
:102d30000e003400e80090001808900080804000e9
:102d4000c801900058009000030001005004980052
:102d50008080eb000000e00034003200e8089000c2
:102d60003808900000804000600c9800c80c90006b
:102d70000900e0001100340009057800e28f5400da
:102d8000010036002a002000c80190000a017800e6
:102d9000ec80570058009000030001005004980098
:102da0000000e00020003200680890000a004000a7
:102db000600c98008a845400edff370008109000e2
:102dc0008000eb000028a300180032000b00e00098
:102dd000160034008b04780009057800e28f540057
:102de000010036002a002000c80190000a01780086
:102df000ee80570058009000030001005004980036
:102e00000000e00008003200680890000a0040005e
:102e1000600c98008a8454004240a900eeff3c00f8
:102e20008000eb00010037008080eb00010078009b
:102e30004f0678004f05be004f04be000080fa0028
:0c2e4000000006000108780000000600f9
:020000040000fa
:102e4c0045430000432d00004d6f000062690000f7
:102e5c006c65000000650000636300006c6100009d
:102e6c006231000031320000320000006174000059
:102e7c005f7400006f0000003e3e0000204f000019
:102e8c006e4300006f6e00006e65000063740000fe
:102e9c00656400000d0a0000003e00003e200000aa
:102eac004f6e000044690000736f00006e6e0000ee
:102ebc006563000074650000640d00000a000000ea
:102ecc005749000046490000204700004f540000bd
:102edc0020490000500d00000a0000005749000076
:102eec00464900002044000049530000434f0000b5
:102efc004e4e000045430000540d00000a00000037
:102f0c00415400002b430000574a00004150000080
:102f1c003d22000025730000222c00002225000019
:102f2c00732200000d0a0000004f00004b0d000042
:102f3c000a00000041540000453000000d0a00005a
:102f4c0000410000542b000043490000504d00008c
:102f5c00555800003d3100000d0a000000410000f2
:102f6c00542b0000435700004d4f00004445000017
:102f7c003d3100000d0a0000005b000041540000d0
:102f8c005d200000536500006e640000696e000057
:102f9c00672000003e3e000020000000526500004b
:102fac0073650000746900006e67000020740000f7
:102fbc006865000020570000694600006920000089
:102fcc006d6f0000647500006c6500002e2e000013
:102fdc002e0d00000a000000415400002b5200008e
:102fec00535400000d0a00000052000065630000fd
:102ffc006f6e00006e6500006374000020740000aa
:10300c006f2000005769000046690000204e000048
:10301c0065740000776f0000726b00002e2e0000ac
:10302c002e0d00000a0000006d610000696e0000aa
:10303c00000000002b490000504400002c00000050
:04304c000000000080
:020000040000fa
:103050000200fa00000f7800b09180000000e0004c
:1030600014003200a1918000201b2100008040004c
:10307000904078001e00780001487800a091800000
:103080000000e800a0918800a1918000f0072000d6
:10309000808f5000020036000000eb00a0918800f5
:1030a000b09180000000e900b0918800100020007d
:1030b000010037000000eb000080fa00000006006d
:1030c0000200fa00000f7800e0b180000000e0008c
:1030d00014003200d1b18000802321000080400024
:1030e000904078001e00780001487800d0b1800040
:1030f0000000e800d0b18800d1b18000f03f20008e
:10310000808f5000020036000000eb00d0b1880034
:10311000e0b180000000e900e0b18800100020006c
:10312000010037000000eb000080fa0000000600fc
:103130000200fa000000eb00000f780005003700e5
:10314000201b21001e0040008040eb000148780059
:103150001e0fe800f00720009e007800808f5000ce
:10316000f7ff34000000eb00a09188000000eb00a6
:10317000909188000000eb00b09188000080fa0078
:10318000000006000200fa000000eb00000f7800cb
:1031900005003700802321001e0040008040eb0026
:1031a000014878001e0fe800f03f20009e007800e4
:1031b000808f5000f7ff34000000eb00d0b1880092
:1031c0000000eb00c0b188000000eb00e0b1880017
:1031d0000080fa00000006000800fa0020079800ae
:1031e0003107980014c0b3002e019000be0190007a
:1031f0000058220001002000800f5100818f5900eb
:1032000001003e000042eb00044f7800f711070078
:103210002135800000fe2f0000806000c000b30058
:1032200020358800c982a80061368000f00f2e008a
:10323000808060000030200001007000603688004f
:10324000c9a2a900f211070021e2a80021a2a90049
:103250002182a9002162a90001118000f0cf2f0076
:10326000008060000011880020e2a90020c2a900af
:1032700020a2a9002082a9009e40780061c06000c1
:103280000080fb00610060004300dd000111800050
:103290000130a100010070000011880001118000c0
:1032a00090ff2f0000806000001188002002a9001c
:1032b0001e4078000004e000110032002e01900052
:1032c000be0190004218dd00ce10de0081007000cb
:1032d0004210dd000ffc07000001be00004022008c
:1032e00041b72400acfb07000200200003f82300d4
:1032f0004bfb0700ecfb07000000780010003700d4
:103300002e019000be0190004418dd00cc10de00bc
:10331000810070004410dd00fefb07000001be00cc
:103320000040220041b724009bfb07000200200060
:1033300003f823003afb0700dbfb070000007800de
:10334000401188002342a8002362a90023e2a900bb
:1033500023a2a90022e2a90022c2a9009560a80028
:103360009580a9002342a800100280004500de00dd
:10337000674060000080fb00100798001102800089
:10338000000e200001007000100288000000000004
:103390000204200081832000808720001e10070087
:1033a000024020007188200080c820001a10070009
:1033b0001e00900000407800674060000080fb0025
:1033c000670060004500dd0012028000f1f12f006f
:1033d0008100610001007000100288000000000000
:1033e0000080fa00000006000800fa00200798009c
:1033f0003107980014c0b3002e019000be01900068
:103400000058220001002000800f5100818f5900d8
:1034100001003e000042eb00044f780073110700ea
:103420003135800000fe2f0000806000e000b30016
:1034300030358800c9c2a80071368000f00f2e0018
:10344000808060000050200001007000703688000d
:10345000c9e2a9006e11070031e2a80031a2a9005b
:103460003182a9003162a90081118000f0cf2f00c4
:10347000008060008011880030e2a90030c2a900fd
:1034800030a2a9003082a9009e40780061c060008f
:103490000080fb00610060004300dd0081118000be
:1034a0000130a100010070008011880081118000ae
:1034b00090ff2f0000806000801188003002a9007a
:1034c0001e4078000004e000110032002e01900040
:1034d000be0190004218dd00ce10de0081007000b9
:1034e0004210dd008bfb07000001be0000402200ff
:1034f00041b7240028fb07000200200003f8230046
:10350000c7fa070068fb07000000780010003700ca
:103510002e019000be0190004418dd00cc10de00aa
:10352000810070004410dd007afb07000001be003e
:103530000040220041b7240017fb070002002000d2
:1035400003f82300b6fa070057fb070000007800d5
:10355000c01188003342a8003362a90033e2a900f9
:1035600033a2a90032e2a90032c2a90097c0a80084
:1035700097e0a9003342a800100280004500de0059
:10358000674060000080fb00100798001102800077
:10359000000e2000010070001002880000000000f2
:1035a0000240200061c92000600921009a0f070035
:1035b00002102000510a2100601a2100960f070016
:1035c0001e00900000407800674060000080fb0013
:1035d000670060004500dd0012028000f1f12f005d
:1035e00081006100010070001002880000000000ee
:1035f0000080fa00000006000800fa00300798007a
:103600000000eb00000f7800be009000110798004a
:10361000040037001e0fe8001e0090000000e800c4
:10362000100798001e009000104078000004e00091
:10363000f8ff3a00706480000140200000805000d4
:103640009e0f500002003e000000eb002d003700ee
:10365000be009000110798001e0037001002800085
:103660004500de00674060000080fb0020079800f6
:1036700011028000000e200001007000100288007e
:10368000000000001e009000104078009e00900096
:103690008100e800110798008040780080c8200071
:1036a000750f07002e009000004078006740600012
:1036b0000080fb00670060004500dd001202800012
:1036c000f1f12f00810061000100700010028800fc
:1036d000000000001e009000104078000004e00090
:1036e000deff3a00a104800000002100008060009d
:1036f0000000e00002003a008580a8009580a80044
:103700001e0078000080fa00000006000800fa00a1
:10371000300798000000eb00000f7800be0090001a
:1037200011079800040037001e0fe8001e009000eb
:103730000000e800100798001e009000104078007c
:103740000004e000f8ff3a007064800001402000af
:10375000008050009e0f500021003e000000eb0052
:103760002c003700100280004500de00674060003a
:103770000080fb002007980011028000000e20004e
:103780000100700010028800000000003e00900060
:1037900010407800be0090008100e80031079800da
:1037a00080407800601a2100330f07002e0090003f
:1037b00000407800674060000080fb006700600008
:1037c0004500dd0012028000f1f12f008100610050
:1037d00001007000100288000000000001003700a6
:1037e000000000003e009000104078000004e0005f
:1037f000dcff3a00b1048000000028000080600077
:103800000000e00002003a0087e0a80097e0a8006e
:103810001e0078000080fa00000006000800fa0090
:103820002007980031079800706480000140200054
:10383000808050003e009000808f500002003e00cb
:103840000000eb002d0037000000eb00000f7800b7
:103850001e003700100280004500de006740600057
:103860000080fb001007980011028000000e20006d
:103870000100700010028800000000001e007800a7
:10388000ae0090000080400010407800804078003a
:1038900080c82000f80e07001e009000004078004d
:1038a000674060000080fb00670060004500dd00ad
:1038b00012028000f1f12f00810061000100700010
:1038c00010028800000000001e0fe8009e00780033
:1038d0003e009000808f5000deff3900a104800080
:1038e00000002100008060000000e00002003a00bb
:1038f0008580a8009580a8003e0090000080fa0016
:10390000000006000800fa00300798003e00900012
:103910009000900070648000024020000000510080
:10392000808f5000020039000000eb0033003700a8
:103930003e00900090007800110798000000eb0016
:10394000000f78001f003700100280004500de00e5
:10395000674060000080fb00200798001102800093
:10396000000e20000100700010028800000000001e
:103970001e009000104078009e0090008100e8003a
:10398000110798008040780080c82000ba0e070018
:103990002e00900000407800674060000080fb002f
:1039a000670060004500dd0012028000f1f12f0089
:1039b000810061000100700010028800000000001a
:1039c0001e0fe8009e0078003e009000100090005e
:1039d000808f5000dcff3900a1048000000021002e
:1039e000008060000000e00002003a008580a8002e
:1039f0009580a8003e009000100090000080fa0022
:103a0000000006000400fa0020479800716480005e
:103a1000f03f2000808f5000020036000000eb00d5
:103a200021003700100280004500de006740600082
:103a30000080fb00000f780011028000000e2000c3
:103a4000010070001002880000000000ae409000ed
:103a500080c82000880e07001e0078000040780013
:103a6000674060000080fb00670060004500dd00eb
:103a700012028000f1f12f0081006100010070004e
:103a80001002880000000000a10480000000210056
:103a9000008060000000e00002003a008580a8007d
:103aa0009580a800100020000080fa0000000600a9
:103ab0000800fa002007980031079800608d800008
:103ac00001102000808050003e009000808f500048
:103ad00002003e000000eb002d0037000000eb006c
:103ae000000f78001e003700100280004500de0045
:103af000674060000080fb00100798001102800002
:103b0000000e20000100700010028800000000007c
:103b10001e007800ae009000008040001040780049
:103b200080407800601a2100530e07001e009000ac
:103b300000407800674060000080fb006700600084
:103b40004500dd0012028000f1f12f0081006100cc
:103b50000100700010028800000000001e0fe80045
:103b60009e0078003e009000808f5000deff3900fc
:103b7000b104800000002800008060000000e00028
:103b800002003a0087e0a80097e0a8003e009000fd
:103b90000080fa00000006000800fa0030079800d4
:103ba0003e00900090009000608d80000210200088
:103bb00000005100808f5000020039000000eb002f
:103bc000330037003e009000900078001107980005
:103bd0000000eb00000f78001f003700100280008b
:103be0004500de00674060000080fb002007980071
:103bf00011028000000e20000100700010028800f9
:103c0000000000001e009000104078009e00900010
:103c10008100e8001107980080407800601a2100b8
:103c2000150e07002e0090000040780067406000ed
:103c30000080fb00670060004500dd00120280008c
:103c4000f1f12f0081006100010070001002880076
:103c5000000000001e0fe8009e0078003e0090006b
:103c600010009000808f5000dcff3900b10480000c
:103c700000002800008060000000e00002003a0020
:103c800087e0a80097e0a8003e0090001000900098
:103c90000080fa00000006000400fa0020479800a7
:103ca000618d8000f00f2000808f500002003600f0
:103cb0000000eb0021003700100280004500de000c
:103cc000674060000080fb00000f78001102800058
:103cd000000e2000010070001002880000000000ab
:103ce000ae409000601a2100e30d07001e0078002e
:103cf00000407800674060000080fb0067006000c3
:103d00004500dd0012028000f1f12f00810061000a
:103d1000010070001002880000000000b104800063
:103d200000002800008060000000e00002003a006f
:103d300087e0a80097e0a800100020000080fa00ab
:103d4000000006000400fa00000f78001107980038
:103d50009e007800814088009e009000b1bc8800e1
:103d60000080fa00000006000200fa00000f780050
:103d70009e00780071bc88000080fa0000000600f8
:103d80000200fa00000f78009e007800c1bc880095
:103d90000080fa00000006000200fa00000f780020
:103da0009e00780081bc88000080fa0000000600b8
:103db0000200fa00000f78009e00780091bc880095
:103dc0000080fa00000006000200fa00000f7800f0
:103dd0009e007800d1bc88000080fa000000060038
:103de0000200fa00000f78009e007800a1bc880055
:103df0000080fa00000006000200fa00000f7800c0
:103e00009e007800e1bc88000080fa0000000600f7
:103e10000000fa0000bd80000000e80000bd88003e
:103e200001bd8000703e2000808f50001c003600d5
:103e30000000eb0000bd880010bd80000000e8001d
:103e400010bd880011bd8000b0032000808f50009d
:103e5000130036000000eb0010bd880020bd80007c
:103e60000000e80020bd880021bd8000b0032000d4
:103e7000808f50000a0036000000eb0020bd880053
:103e800030bd80000000e80030bd880030bd8000fb
:103e9000f70f5000020036000000eb0030bd880034
:103ea0000080fa00000006000000fa00000178001f
:103eb000e079210082007800b0187800a010780026
:103ec000e480400064004000b0187800a010780042
:103ed000e480400064004000900878008180e800a1
:103ee0000080e800020078000080fa000000060070
:103ef0000400fa00004f780011479800224798000c
:103f00001e80fb0030bd88001e4090000080fb003a
:103f100020bd88002e4090000080fb0010bd88006e
:103f20000000eb0000bd88000000eb00f0bc880042
:103f30000080fa00000006000000fa00889fbe0022
:103f40008a9fbe0040bc800051bc8000f1f8070091
:103f50000004be00000880008000eb00edf80700c0
:103f60000005be00100880008000eb00e9f80700a3
:103f70000001be000a00be0087f807000001be0075
:103f80000800be0027f807004f05be004f04be0022
:103f90000080fa00000006000000fa0040bc80002b
:103fa00051bc8000823e20000289b90002017800e5
:103fb0006002b9008401780003014100833e2000c3
:103fc0000300b8000101410082007800020880006f
:103fd0000201d1008001eb00000041008180490016
:103fe0000080fa00000006000000fa0040bc8000db
:103ff00051bc80000080fa00000006000200fa00b8
:1040000030bc8000000f78000000eb0030bc88005e
:104010001e007800004078000080fa0000000600d2
:104020000000fa0004c1a9000421a90021088000b1
:10403000f0fc2f00008060000040a00020088800f5
:10404000007d2000100888000021ef009460a80087
:1040500005e1a8000080fa00000006000200fa0056
:10406000000f78009e007800714088000080fa0000
:10407000000006000000fa000000eb0080bc880091
:104080000000eb0070bc88000000eb00a0bc8800c2
:104090000000eb0090bc8800e1ff07000080fa0000
:1040a000000006000a00fa006047980041079800e7
:1040b000008229002007980013c8bf000004e00018
:1040c00005003d001368ef001468ef001568ef006d
:1040d0001668ef001768ef0017c8bf000080fb00ec
:1040e000e10f500027003200e10f500003003c00b8
:1040f0000000e00006003200a9003700e20f500087
:1041000030003200e30f50006d003200a400370091
:1041100014c8bf000080fb00ae009000008040008b
:10412000904078006e40900080cf500012003a001e
:1041300013c8bf008080fb00ee4190008282210006
:1041400003f178000040e80013e8b70014c8bf008e
:104150000040e80014e8b70014c8bf00e44f500066
:10416000880036001468ef0017c8bf000040e80060
:1041700017e8b7008a0037001368ef001468ef00f3
:104180008700370013c8bf008080fb00ee4190001d
:104190008282210003f178000040e80013e8b700b4
:1041a000ee409000c0c2b30080cf500077003a00cc
:1041b0001568ef0017c8bf000040e80017e8b70017
:1041c0007700370013c8bf008080fb00ee419000ed
:1041d0008282210003f178000040e80013e8b70074
:1041e00015c8bf008080fb00ee419000828a21004c
:1041f00003f178000040e80015e8b700ee409000b9
:10420000a0c3b30080cf500062003a0015c8bf00c1
:104210000040e90015e8b70015c8bf000080fb00aa
:10422000818a21000041eb00827078001668ef005f
:1042300010002000000f78001400370015c8bf00e0
:104240000080fb00818a2100614078000080fb0033
:104250000003b100004078009e00780081407800a3
:104260008180fb000088b900000078008040780061
:1042700016c8bf0000c0400016e8b7001e00780056
:104280006a00b90000007800000f780015c8bf0070
:104290008080fb008100ea00cf08de0081407800ca
:1042a0000040e90015e8b7000104e000e3ff3a0030
:1042b00017c8bf000040e80017e8b7003800370013
:1042c00013c8bf008080fb00ee4190008282210075
:1042d00003f178000040e80013e8b70016c8bf00fb
:1042e0000040e90016e8b70016c8bf000004e0006f
:1042f0002a003a000000eb00100798000c0037007d
:104300004e009000900078001e0090000080400059
:10431000828221009e00900081004100914078003f
:10432000014878001e0090000000e8001007980087
:1043300013c8bf008080fb001e009000808f5000db
:10434000efff3d004e009000900078001e009000ae
:10435000008040008040eb00014878001e00900083
:104360000000e900800078004e00900011009800e5
:104370001768ef001368ef001468ef0010002000ca
:1043800008003700000000000500370000000000b2
:1043900003003700000000000100370000000000ab
:1043a0000000eb000080fa00000006000600fa00a2
:1043b000204798002107980012c8bf000004e000c1
:1043c00001003d001268ef0012c8bf008080fb00b2
:1043d000ae419000827a210003f178000040e800ad
:1043e00012e8b7002e409000ea4f50001d003a003e
:1043f0000000eb00000f7800090037002e0090004d
:10440000900078001e00780000804000817a210032
:104410009e80400091407800014878001e0fe8001f
:1044200012c8bf000080fb009e0f5000f3ff3c004d
:104430002e009000900078001e0078000080400060
:104440008040eb000148780012c8bf008080fb006c
:104450002e009000110098001268ef00100020005c
:10446000010037000000eb000080fa0000000600a9
:10447000b600fa0070bc80000000e00027003200a7
:10448000100280004500de00674060000080fb00f5
:10449000000f780011028000000e20000100700063
:1044a00010028800000000006a004700e8fa0700d8
:1044b000100798001e0078000040780067406000f8
:1044c0000080fb00670060004500dd0012028000f4
:1044d000f1f12f00810061000100700010028800de
:1044e000000000001e0090000000e0000b00320001
:1044f00010c0b300504f98000040eb00404f9800b0
:104500006a0047007007980010002000000f980014
:1045100071bc80006c0047000100010090bc80006d
:104520000000e00027003200100280004500de009d
:10453000674060000080fb002007980011028000a7
:10454000000e200001007000100288000000000032
:104550006a004700dafa0700100798002e00900062
:1045600000407800674060000080fb00670060004a
:104570004500dd0012028000f1f12f008100610092
:104580000100700010028800000000001e00900072
:104590000000e0000b00320020c0b300305798004c
:1045a00010c0b300205798006a004700200f980001
:1045b00010002000300f980091bc8000720047006e
:1045c0000100010080bc80000000e0001200320009
:1045d00060882000104078000004e0000e003200e7
:1045e00010c0b300105f980020c0b300005f9800b7
:1045f0000000eb00500f98000000eb00600f9800e7
:1046000081bc800078004700010001006088200024
:104610008040eb0001487800a0bc80000000e00072
:1046200012003200400a2100104078000004e0002f
:104630000e00320020c0b300705f980030c0b3009d
:10464000605f98000000eb00001798000000eb008e
:1046500010179800a1bc80007e00470001000100f7
:10466000400a21008040eb000148780010028000e1
:104670004500de00674060000080fb0030079800c6
:1046800011028000000e200001007000100288005e
:10469000000000006a00470080007800808720004a
:1046a000a30b0700100798003e0090000040780020
:1046b000674060000080fb00670060004500dd008f
:1046c00012028000f1f12f008100610001007000f2
:1046d0001002880000000000c0bc80000000e00064
:1046e000170032001e0090000000e00014003200ad
:1046f00010c0b3005067980040c0b30040679800f6
:10470000600320000e004000301798000000eb000e
:10471000401798002e489000410220008e804000f3
:104720008180e80021ff07000000e0000400320063
:10473000c1bc8000400220000e00400001000100ca
:10474000100280004500de00674060000080fb0032
:104750004007980011028000000e20000100700048
:1047600010028800000000006a0047008000780006
:10477000600921006e0b0700100798004e009000a2
:1047800000407800674060000080fb006700600028
:104790004500dd0012028000f1f12f008100610070
:1047a000010070001002880000000000d0bc8000f2
:1047b0000000e000170032001e0090000000e00042
:1047c0001400320020c0b300306f980050c0b30016
:1047d000206f9800600320000e00400060179800d2
:1047e0000000eb00701798002e489000a1022000f6
:1047f0008e8040008180e800ecfe07000000e000b1
:1048000004003200d1bc8000a00220000e00400055
:1048100001000100e0bc80000000e0001700320051
:104820001e0090000000e0001400320020c0b30021
:104830001077980060c0b3000077980060032000f4
:104840000e004000101f98000000eb00201f980091
:104850002e489000010320008e8040008180e800f7
:1048600010fe07000000e00004003200e1bc800000
:10487000000320000e0040000100010060bc800029
:104880000000e0001000320061fd07006b07070028
:10489000ea090700e302070092080700b50b0700ca
:1048a000c60a070060bc80000000e90060bc880008
:1048b000704080000000e000030032007040800083
:1048c0000000e900704088000080fa000000060047
:1048d0000400fa00100798000000eb00000f7800b9
:1048e000000000001e0078009e0090000080400044
:1048f000104078000080fb000000ea004f00de005e
:10490000004078001e0fe8000004e000f5ff3a00c8
:104910001e00e9000080fa00000006000600fa0010
:1049200010079800210798000000eb00000f7800a6
:10493000090037001e007800ae00900000804000a3
:104940009e0078001e019000810041009140780097
:10495000014878001e0fe8001e0078009e009000bd
:1049600000804000104078000004e000f1ff3a00b1
:104970001e007800ae009000008040008040eb00f8
:10498000014878002e0090000080fa000000060028
:104990000800fa00100798002107980032079800d5
:1049a0000000eb00000f78000000eb00000f780023
:1049b0000a0037001e007800be0090000080400012
:1049c0009e0078001e019000810041009140780017
:1049d000014878001e0fe8001e0fe8002e0090002e
:1049e0009e007800808f5000f2ff35001e00780096
:1049f000be009000008040008040eb00014878003d
:104a00003e0090000080fa00000006000c00fa0052
:104a100040079800510798005e009000acff070027
:104a2000200798004e009000a9ff0700300798006b
:104a3000be0090002e009000808f500002003d00cc
:104a40000080eb00240037000000eb00000f78002e
:104a50000000eb00100798000000eb00000f78004a
:104a6000180037001e007800ce0090000080400043
:104a7000904078001e0090005e0190000000410010
:104a80001040780080cf50000b003a001e009000cc
:104a90000000e800100798009e0090002e00900093
:104aa000808f5000060035009e00e8002e00900028
:104ab00000805000080037000000eb00100798004d
:104ac0001e0fe8003e0090009e007800808f50008e
:104ad000e4ff35000080eb000080fa0000000600d3
:104ae0000e00fa00400798005107980062079800ee
:104af0006e00900076ff070020079800de0090000f
:104b000031079800be0090002e009000808f50006a
:104b100002003d000080eb00240037000000eb00a5
:104b2000000f78000000eb00100798000000eb0079
:104b3000000f7800180037001e007800ce009000ab
:104b400000804000904078001e0090006e019000b0
:104b5000000041001040780080cf50000b003a0068
:104b60001e0090000000e800100798009e009000d2
:104b70002e009000808f5000060035009e00e80057
:104b80002e00900000805000080037000000eb006d
:104b9000100798001e0fe8003e0090009e0078006d
:104ba000808f5000e4ff35000080eb000080fa00a9
:104bb000000006000e00fa005007980061079800f8
:104bc0006e00900042ff0700300798005e009000e2
:104bd0003fff070040079800ce0090003e00900085
:104be000808f500002003d000080eb00270037005e
:104bf0000000eb00000f78003e0090000000e9008c
:104c0000100798000000eb00200798004e0090006d
:104c1000000fe900190037001e007800de00900048
:104c200000804000904078001e0090006e019000cf
:104c3000000041001040780080cf50000c003a0086
:104c40001e0090000000e900100798002e00900060
:104c50000000e80020079800ae0090003e009000a1
:104c6000808f5000040035001e00780007003700d8
:104c70000000eb00200798001e0fe9001e007800de
:104c80000000e000e4ff3d000080eb000080fa003f
:104c9000000006000600fa0010079800210798009f
:104ca0000000eb00000f78000000eb00000f780020
:104cb000100037001e0078009e0090000080400029
:104cc0009040780000c2b30080cf5000080032004e
:104cd0001e0078009e009000008040009040780008
:104ce0002e009000014878001e0078000800370070
:104cf0001e0fe8001e0078009e009000008040001b
:104d0000104078000004e000eaff3a000000eb00e9
:104d10000080fa00000006000600fa001007980064
:104d2000414798000000eb00000f78000000eb0006
:104d3000000f78000a0037001e0078009e009000e7
:104d400000804000904078004e40900080cf50009e
:104d500002003a001e007800080037001e0fe8002d
:104d60001e0078009e0090000080400010407800f7
:104d70000004e000f0ff3a000080eb000080fa0041
:104d8000000006000800fa0020079800614798001c
:104d90002e009000cefe0700100798001e00900025
:104da000000fe9000a0037001e007800ae009000f6
:104db00000804000904078006e40900080cf50000e
:104dc00002003a001e007800080037001e0fe900bc
:104dd0001e007800ae009000008040001040780077
:104de0000004e000f0ff3a000080eb000080fa00d1
:104df000000006000800fa0020079800310798001c
:104e00002e009000b2fe0700100798001e009000d0
:104e1000000fe900100037001e007800ae0090007f
:104e2000008040009040780000c2b30080cf500066
:104e3000080032001e007800ae00900000804000a4
:104e4000904078003e009000014878001e007800f5
:104e5000090037001e0fe9001e007800ae00900028
:104e600000804000104078000004e000eaff3a00b3
:104e70001e0090000000e9000080fa00000006001b
:104e80000c00fa00200798003107980042079800ac
:104e9000530798000000eb00000f78002e009000f0
:104ea0008bfe0700100798004e0090000000e00005
:104eb00015003d000c0037001e007800de00900059
:104ec00000804000be0090002e0190008100410053
:104ed00091407800014878001e0fe8003e009000e5
:104ee0000000e800300798003e009000ae009000ff
:104ef00000804000104078000004e000eeff3a001f
:104f00005e00900023003700be0090004e0090002d
:104f1000808040001e009000808f5000040034000c
:104f20005e0090008040eb000148780018003700d8
:104f30000000eb00000f78000c0037001e00780026
:104f4000de00900000804000be0090002e01900026
:104f50008100410091407800014878003e009000b7
:104f60000000e800300798001e0fe8004e00900097
:104f70009e007800808f5000f0ff35001e00780002
:104f8000de009000008040008040eb000148780087
:104f90005e0090000080fa00000006000e00fa009b
:104fa000300798004107980052079800630798005f
:104fb0003e00900046fe070020079800ce009000bb
:104fc0002e009000808f500019003d00de00900000
:104fd0004e009000808f500015003500ce009000ec
:104fe000010f78000000eb00100798000c0037005c
:104ff0001e009000ee009000008040009e007800af
:105000003e01900081004100914078000148780005
:105010001e0fe8001e0090000000e8001007980036
:105020005e0090009e007800808f5000f0ff3400fa
:105030001e009000ee009000008040008040eb00d9
:10504000014878006e0090000080fa000000060021
:105050000e00fa00600798000000eb00000f7800d7
:105060000000eb00100798001e009000ee0090007a
:105070000080400090407800d0c2b30080cf500044
:1050800006003a0010002000000f78001e0090007b
:105090000000e800100798000a0037001e0090008a
:1050a000ee0090000080400090407800b0c2b30055
:1050b00080cf500003003a001e0090000000e8007e
:1050c000100798001e009000ee0090000080400045
:1050d000500798005e009000fdfd07002007980033
:1050e0001e0078000000e000020032000080eb00ab
:1050f0000100370010002000300798000000eb008e
:1051000040079800140037002e0090000000e900ce
:10511000200798002e009000de00900000804000e4
:10512000104078000000fb0001fd2f00808040004f
:105130003e0090000088b90000007800ce0090008a
:1051400000804000400798003e0090006a00b900cf
:1051500000007800300798002e0090000000e0006a
:10516000e9ff3a004e0090000080fa0000000600bf
:105170000800fa0020079800310798000000eb00b3
:10518000000f78000000eb001007980001003700c6
:105190001e0fe8001e007800ae0090000080400066
:1051a0009040780000c2b30080cf5000f8ff32007a
:1051b0000c0037001e009000be00900000804000f0
:1051c0009e0078002e0190008100410091407800ff
:1051d000014878001e0090000000e80010079800c9
:1051e0001e0fe8001e007800ae0090000080400016
:1051f000104078000004e000eeff3a001e0090002e
:10520000be009000008040008040eb000148780024
:105210003e0090000080fa00000006000800fa003e
:1052200020079800310798002e009000a8fd070085
:10523000000fe900010037001e0fe9001e00780092
:10524000ae009000008040009040780000c2b300a3
:1052500080cf5000f8ff32000000eb0010079800ec
:105260000b0037001e009000be0090000080400040
:105270009e0090002e019000810041009140780036
:10528000014878001e0090000000e8001007980018
:105290009e00e8001e009000808f5000f1ff3c004f
:1052a0001e009000be009000008040008040eb0097
:1052b000014878003e0090000080fa0000000600df
:1052c0000c00fa003007980041079800224f980020
:1052d0000000eb00000f78000000eb0010079800c2
:1052e000120037001e007800be00900000804000d1
:1052f00090407800414798001e0fe800ce40900093
:105300002e48900080cf5000080032001e00900010
:10531000ce00900000804000ce4090000148780010
:105320001e0090000000e800100798001e007800a2
:10533000be00900000804000104078000004e000b3
:10534000e8ff3a001e009000ce0090000080400070
:105350008040eb00014878004e0090000080fa0089
:10536000000006000c00fa00300798004107980082
:10537000224f9800334f98000000eb00000f780098
:105380000000eb0010079800180037001e0078009e
:10539000be00900000804000904078004147980097
:1053a0001e0fe800ce4090002e48900080cf5000a5
:1053b00006003a001e009000ce00900000804000e1
:1053c000be48900001487800050037001e0090009c
:1053d000ce00900000804000ce4090000148780050
:1053e0001e0090000000e800100798001e007800e2
:1053f000be00900000804000104078000004e000f3
:10540000e2ff3a001e009000ce00900000804000b5
:105410008040eb00014878004e0090000080fa00c8
:10542000000006000400fa0080a021001007980088
:105430000000eb00000f78005f0037001e009000b6
:1054400010407800e14f500047003a001e009000e5
:10545000104090000080fb00e10f50001600320069
:10546000e30f5000290032000000e0003e003a0047
:105470001e009000400090008000e8001e00900098
:10548000410098001e009000c00090001e00900097
:1054900010009000808f50002e0039001e009000f8
:1054a00011c0b300114098001e0078000040780041
:1054b000380107002c0037001e00900040009000cb
:1054c0008000e8001e009000410098001e0090003f
:1054d000c00090001e009000200190001e0090006f
:1054e0001000900000004100808f50001b00390028
:1054f0001e00900031c0b300114098001e007800db
:10550000004078003c010700170037001e009000a3
:10551000400090008000e8001e00900041009800cc
:105520001e009000c00090001e009000300090000f
:10553000808f50000b0039001e0090008040eb006f
:10554000114098001e0090008000eb004100980080
:1055500005003700000000000300370000000000d5
:1055600001003700000000001e0090005000900075
:105570000000e0000c0032001e009000500090007f
:105580008000e9001e009000510098001e0090006d
:10559000500090000000e00003003a001e00780078
:1055a00000407800140107001e0090006c004000cd
:1055b000100798001e0fe8001e007800e30f50004f
:1055c0009eff34000080fa00000006000400fa008c
:1055d000004f7800110798001e80fb006c00b90096
:1055e0008000780020a12100008040009e009000f3
:1055f000010878001e407800e60007000080fa00ed
:10560000000006000200fa00004f780011479800e1
:105610001e80fb006c00b9008000780080a0210093
:10562000008040009e409000014878000080fa0011
:10563000000006000a00fa002047980021079800a1
:1056400032079800430798002e4090000080fb002e
:105650006c00b9008000780080a02100008f40001d
:105660001e007800ae009000310098001e00780007
:10567000be009000110098001e007800ce0090003f
:10568000210098001e00780011c0b3000148780086
:105690000080fa00000006000600fa00204798008b
:1056a000210798002e4090000080fb006c00b9009c
:1056b0008000780080a02100008f40001e0078004c
:1056c000ae009000310098001e007800200090008d
:1056d000ae009000808050001e00780011009800fd
:1056e0000080fa00000006000600fa00204798003b
:1056f000210798002e4090000080fb006c00b9004c
:105700008000780080a02100008f40001e007800fb
:10571000ae009000210098001e007800b0009000bc
:105720002e009000808050001e007800110098002c
:105730000080fa00000006000600fa0020479800ea
:10574000210798002e4090000080fb006c00b900fb
:105750008000780080a02100008f40001e007800ab
:10576000ae009000110098001e007800b00090007c
:105770002e009000808050001e00780021009800cc
:105780000080fa00000006000200fa00004f7800d6
:105790001e80fb006100600000f0a7000000ea002e
:1057a0000000e9004f00de00004078000080fb00b0
:1057b000610060004200dd00211680000120a10090
:1057c00001007000201688001e80fb00620060004f
:1057d00000f0a7000000ea000000e9004f00de0032
:1057e000004078000080fb00610060004400dd00a4
:1057f000211680000140a1000100700020168800e1
:105800001e80fb006400600000f0a7000000ea00ba
:105810000000e9004f00de00004078000080fb003f
:10582000610060004200dd00611680000120a100df
:1058300001007000601688001e80fb006800600098
:1058400000f0a7000000ea000000e9004f00de00c1
:10585000004078000080fb00610060004300dd0034
:10586000611680000130a100010070006016880000
:105870000080fa00000006000000fa0060168000b8
:105880004300de00614060000080fb004300dd005b
:1058900080407800601680004200de0061406000b9
:1058a0000080fb004200dd000040780080c07000f6
:1058b000201680004400de00614060000080fb0094
:1058c000000040000040780080c07000201680007a
:1058d0004200de006140600000c070000080fa00fd
:1058e000000006000400fa0080a0210010079800c4
:1058f0000000eb00000f7800190037001e00900038
:105900008040eb00014878001e00900011c0b300f9
:10591000114098001e0090008000eb0041009800ac
:105920009e0078001e009000110098001e0090005c
:1059300021002000210098001e009000a1002000fe
:10594000310098001e0090008000eb00510098008c
:105950001e0090006c004000100798001e0fe80029
:105960001e007800e30f5000e4ff3400c042a9009d
:10597000c082a900c842a900c862a900c442a80008
:10598000c482a800cc42a800cc62a8000080fa0023
:10599000000006000200fa00004f78001e80fb00a5
:1059a000e10f50000c003200e10f500003003c00fa
:1059b0000000e000060032000d003700e20f50004a
:1059c00007003200e30f50000700320008003700e4
:1059d000c442a90006003700c482a90004003700b1
:1059e000cc42a90002003700cc62a90000000000f0
:1059f0000080fa00000006000200fa00004f780064
:105a00001e80fb00e10f50000c003200e10f50003f
:105a100003003c000000e000060032000d003700eb
:105a2000e20f500007003200e30f50000700320081
:105a300008003700c442a80006003700c482a8004e
:105a400004003700cc42a80002003700cc62a80056
:105a5000000000000080fa00000006000200fa00ca
:105a6000004f78001e80fb00e10f5000190032004b
:105a7000e10f500003003c000000e000060032008f
:105a800041003700e20f500021003200e30f5000c8
:105a90002e0032003c0037002016800064006000b9
:105aa00000f0a7000000ea000000e9004f00de005f
:105ab000004078000080fb00610060004200dd00d3
:105ac000211680000120a10001007000201688002e
:105ad0002d003700201680007000600000f0a70045
:105ae0000000ea000000e9004f00de0000407800fe
:105af0000080fb00610060004400dd002116800092
:105b00000140a10001007000201688001e0037002f
:105b1000601680006400600000f0a7000000ea004a
:105b20000000e9004f00de00004078000080fb002c
:105b3000610060004200dd00611680000120a100cc
:105b400001007000601688000f00370060168000aa
:105b50006800600000f0a7000000ea000000e90013
:105b60004f00de00004078000080fb006100600014
:105b70004300dd00611680000130a10001007000cb
:105b800060168800000000000080fa000000060097
:105b90000200fa00004f78001e80fb00e10f500069
:105ba00012003200e10f500003003c000000e00052
:105bb0000600320025003700e20f500013003200cb
:105bc000e30f50001900320020003700101680004b
:105bd0006400600000f0a7000000ea000000e90097
:105be0004f00de00004078001900370010168000da
:105bf0007000600000f0a7000000ea000000e9006b
:105c00004f00de0000407800110037005016800081
:105c10006400600000f0a7000000ea000000e90056
:105c20004f00de0000407800090037005016800069
:105c30006800600000f0a7000000ea000000e90032
:105c40004f00de0000407800010037000040eb000c
:105c50000080fa00000006000000fa000000eb00df
:105c600090c988000000eb00a0c988000000eb008c
:105c7000b0c988000080fa00000006000400fa00a5
:105c8000000f780011079800b0c98000ff0f500086
:105c9000020034000000eb001800370090c98000bb
:105ca00080004000208b2100008040001e0878000a
:105cb00090c980000002b00080004000208b2100cd
:105cc000008040009e0090000108780090c980008c
:105cd0008000e800000220000001780011000900a7
:105ce0008200d8008000fd0090c98800b0c9800003
:105cf0000000e800b0c98800100020000080fa0011
:105d0000000006000400fa00000f78001107980058
:105d1000b0c980000000e00002003c000000eb0081
:105d20001b003700a0c9800080004000208b2100ac
:105d300000804000900078001e0078000108780084
:105d4000a0c980000002b00080004000208b21002c
:105d500000804000900078001e009000010878004c
:105d6000a0c980008000e800000220000001780047
:105d7000110009008200d8008000fd00a0c9880041
:105d8000b0c980000000e900b0c988001000200000
:105d90000080fa00000006000200fa00000f780000
:105da0000080200020009000840407000080200074
:105db0002000900034040700008020008000eb00e9
:105dc000210098000080fa00000006000200fa009e
:105dd000000f780000802000210020003100980092
:105de0000080200020009000740407000080200044
:105df0002000900024040700008020008000eb00b9
:105e00002100980000002000812c240011050700cb
:105e1000400620004b0507000080fa000000060045
:105e20000600fa00000f780011079800220798007a
:105e3000008020001e087800008020009e00900056
:105e40001100980000802000100078002ff6070055
:105e50000080200011002000310098000080200008
:105e6000200090000000e0000900320000802000c7
:105e700020009000510407000080200020009000c6
:105e800001040700008020008000eb002100980042
:105e900063ee22000001eb00ae009000c073290009
:105ea000c203070001802000a00098000080fa00d3
:105eb000000006000200fa00000f7800207429009c
:105ec000cdf507000080fa00000006000200fa008d
:105ed000000f780030752900c7f507000080fa0030
:105ee000000006000a00fa00400798004e009000eb
:105ef00010019000a001900022079800330798003d
:105f0000ae019000030f7800008020003000900068
:105f1000e10f50000e003a002e009000100798008c
:105f20000080200010009000800078001e0090008b
:105f3000def107000000e00005003a0000802000cc
:105f40008000eb00310098000000eb0092ff07009a
:105f500060c580000000e0000a003a001e007800e2
:105f600061762900d1f107000000e00011003a003d
:105f70001000200060c588000000eb00cdff070086
:105f80000c00370060c58000e10f500009003a00a6
:105f90001e00780041772900c4f107000000e000ee
:105fa00004003a000000eb0060c588000000eb0030
:105fb000c6ff07001e0078008ff507005100200083
:105fc0000040eb0081fd07000080fa0000000600a1
:105fd0000400fa00000f7800110798000000eb00a1
:105fe00060c588009e00780071c588009e00900002
:105ff00081c5880081c5800070c58000811f780040
:10600000801f780060782900801f7800809321002d
:10601000bdf10700e6875700b1792900007a290011
:1060200016ff0700b1792900707a290013ff0700d5
:10603000b1792900507b290010ff0700b1792900b0
:10604000809321000dff07000080fa000000060089
:106050000600fa0020079800404080005140800070
:1060600061004000e08048004040880051408800c6
:1060700000802000300090000000e00004003200aa
:106080000080200030009000e20f50000e003a0027
:106090000e80e800800078000e00780019ff0700ed
:1060a0000000e00008003200307c290052f50700b3
:1060b0001e00780050f507009e0090001e0078003a
:1060c0000271220056ff070060c58000e10f5000fa
:1060d0000c003a004040800051408000a2002000a7
:1060e0000300200014f10700e00f5000e08f58007b
:1060f00033003a002100200030c0b30033fd070018
:106100002f00370060c580000000e0002c003a003e
:106110004240800053408000100020000100200019
:106120000202780003017800800178000100780005
:1061300003026200000061008000eb00c000dd008f
:10614000000020000001be006120b80000017100c5
:1061500081817100e00f5100e08f590003003a0087
:106160002100200030c0b30018fd0700614080000e
:1061700010c0b300c2122000828f500001003e0008
:106180000040eb008100e800614088000004e0006e
:106190000b0032000c28ef00407d290016f50700a7
:1061a000b1792900207f2900b4fe0700b07f2900c3
:1061b00011f50700114180000041800084ff0700b5
:1061c0000080fa00000006000000fa00190607002f
:1061d00000202c0011002000fff3070000202c00fd
:1061e0001100200080f40700befd07007e050700b7
:1061f00083010700f70307009ef7070096fe0700dc
:10620000830223001200200041062000a081290003
:10621000e602070000202100a10720001306070066
:1062200020f72200e8f607001141800000418000bd
:1062300067ff07008ef8070043050700fdff3700e2
:106240000400fa0080962100100798000000eb007f
:10625000000f78001c0037001e0090008000eb004b
:10626000510098001e00900080c0eb0001487800ab
:106270001e0090008000eb00110098001e009000ae
:106280008040eb00414098001e0090008000eb0031
:10629000310098001e0090008000eb006100980023
:1062a0001e0090008000eb00710098001e0090001e
:1062b0008000eb00010898001e0090007200400072
:1062c000100798001e0fe8001e007800e40f500031
:1062d000e1ff34003428ef00500020000080fa0075
:1062e000000006000800fa00200798003107980017
:1062f000a0418000e40f5000020034000000eb00d9
:106300002f00370080962100100798000000eb0056
:10631000000f7800260037001e00900040409000db
:106320000004e0001e003a001e00900031c0b300df
:10633000414098001e0090008000eb003100980062
:106340001e007800804078001e0090000148780010
:106350001e009000ae009000110098001e009000fa
:10636000be009000510098001e0090001100200017
:10637000610098001e0090008000eb007100980002
:106380001e0090008000eb0001089800a0418000f2
:106390000000e800a04188001e00900008003700bf
:1063a0001e00900072004000100798001e0fe800c9
:1063b0001e007800e40f5000d7ff34000000eb000f
:1063c0000080fa00000006000600fa00200798008e
:1063d000a04180000000e00002003c000000eb0053
:1063e0002d00370080962100100798000000eb0078
:1063f000000f7800240037009e0090002e009000cf
:10640000808f50001c003a001e0090008000eb00be
:10641000510098001e00900080c0eb0001487800f9
:106420001e00900061822900110098001e0090005b
:106430008040eb00414098001e0090008000eb007f
:10644000310098001e0090008000eb006100980071
:106450001e0090008000eb00710098001e0090006c
:106460008000eb0001089800a04180000000e900d6
:10647000a0418800070037001e0090007200400015
:10648000100798001e0fe8001e007800e40f50006f
:10649000d9ff3400100020000080fa000000060040
:1064a0000400fa00000f7800110798001e00780021
:1064b000404090000004e00002003a000000eb00c1
:1064c000040037001e0078009e00900051009800e4
:1064d000100020000080fa00000006000400fa000e
:1064e000000f7800110798001e00780040409000cf
:1064f0000004e00002003a000000eb000a00370050
:106500001e0078008000eb00610098001e007800fb
:1065100021c0b300414098001e0078009e0090000a
:1065200041009800100020000080fa0000000600e2
:106530000200fa00000f78001e0078004040900032
:106540000004e00002003a000000eb000d003700fc
:106550001e00780040409000e24f500008003a00d2
:106560001e0078008000eb00610098001e0078009b
:1065700031c0b300414098001000200001003700f6
:106580000000eb000080fa00000006000400fa00a2
:10659000000f7800110798001e007800404090001e
:1065a0000004e00002003a000000eb000a0037009f
:1065b0001e0078008000eb00610098001e0078004b
:1065c00011c0b300414098001e0078009e0090006a
:1065d00041009800100020000080fa000000060032
:1065e0000400fa00000f7800110798001e007800e0
:1065f000404090000004e00002003a000000eb0080
:106600000c0037001e0078009e0090001101be00b3
:1066100072009800030898001e00780041002000d6
:10662000610098001e00780031c0b300414098001e
:10663000100020000080fa00000006001400fa009c
:106640000000eb00100798000000eb002007980006
:1066500080962100300798000000eb00000f7800c2
:106660005c0037003e009000404090000004e000d5
:10667000540032003e00900040409000e24f500035
:10668000040032003e00900040409000e14f500076
:1066900018003a003e009000400090000000e0002a
:1066a0000f003a003e00900040409000e24f500042
:1066b00004003a003e009000210020006100980094
:1066c000030037003e009000510020006100980058
:1066d0003e00900031c0b3004140980005003700f3
:1066e0003e009000400090008000e9003e009000d5
:1066f000410098003e00900040409000e34f500061
:1067000029003a002e0090000000e80020079800c1
:1067100010c0b300204f98003e0090005000900041
:10672000100f9800be009000610798003e00900096
:1067300010009000700798003e009000100090003c
:1067400063f80700000f9800100280004500de008b
:10675000674060000080fb00400798001102800045
:10676000000e2000010070001002880000000000f0
:106770006a004700a70307004e0090000040780021
:10678000674060000080fb00670060004500dd009e
:1067900012028000f1f12f00810061000100700001
:1067a00010028800000000001e0090000000e800b9
:1067b00010079800a04180009e009000808f50003c
:1067c0000b003d003e009000720040003007980032
:1067d0001e0fe8001e007800e40f500005003c008a
:1067e000a04180000000e0009eff3c000100370057
:1067f000000000002e0090000080fa00000006005b
:106800000400fa00c882a800c8a2a800c8c2a80054
:10681000c8e2a80080a32100100798000000eb0048
:10682000000f7800110037001e00780080407800cb
:106830001e009000114098001e0090008040eb0068
:10684000414098001e0090008000eb00310098004d
:106850001e0090008000eb00410098001e00900098
:106860006a004000100798001e0fe8001e00780024
:10687000e30f5000ecff34000080fa000000060037
:106880000400fa00004f7800110798001e80fb00fa
:106890006a00b9008000780000a421000080400058
:1068a0009e00900001087800100020000080fa008f
:1068b000000006000200fa00004f78001e80fb0076
:1068c000e10f500012003200e10f500003003c00c5
:1068d0000000e0000600320028003700e20f500000
:1068e00014003200e30f50001b0032002300370079
:1068f000501680007000600000f0a7000000ea0061
:106900000000e9004f00de00004078001c00370066
:1069100051168000000220000080600000f0a700f7
:106920000000ea000000e9004f00de0000407800af
:106930001300370051168000000420000080600022
:1069400000f0a7000000ea000000e9004f00de00b0
:10695000004078000a00370051168000000820002f
:106960000080600000f0a7000000ea000000e900dd
:106970004f00de0000407800010037000040eb00cf
:106980000080fa00000006000400fa0050168000a3
:106990004400de00100798001e0090006f006800a1
:1069a000100798001e0090006f006000100798000c
:1069b0000000eb00000f78000c0037001e00900074
:1069c00061006000004078000004e0000300320035
:1069d0001e00780000407800080037001e0090007c
:1069e0000080d100100798001e0fe8001e007800fc
:1069f000e30f5000f1ff3400f0c0b3000080fa0054
:106a0000000006000000fa00501680004400de007e
:106a1000004078006f4060000080fa00000006002f
:106a20001000fa00604f98006e4890000080fb0054
:106a30006a00b9008000780080a32100008f400028
:106a40001e007800400090000000e00023003200ab
:106a500020c0b300404798001e007800400090001e
:106a6000600798009e007800310798001e00e8003b
:106a70004007980010002000500798001002800086
:106a80004500de00674060000080fb0010079800b2
:106a900011028000000e200001007000100288002a
:106aa0000000000064004700da0207001e009000aa
:106ab00000407800674060000080fb0067006000d5
:106ac0004500dd0012028000f1f12f00810061001d
:106ad0000100700010028800000000000080fa0031
:106ae000000006000400fa0080a3210010079800af
:106af0000000eb00000f7800800037001e009000bf
:106b0000400090000000e000780032001e0090007d
:106b10001040900067ff07000004e0000d003a00fd
:106b20001e0090008000eb00310098001e009000d5
:106b30008040eb00014878001e0090008040eb0090
:106b4000414098001e0090006a0040001007980025
:106b5000690037001e009000104078000080fb00a4
:106b6000e10f500021003200e20f500034003200eb
:106b70000000e0005d003a001e009000b0009000b0
:106b800010c0b300f48f500001003e000040eb0045
:106b90000101e8009e009000b20098000004e000af
:106ba0004d0032001e0090008000eb003100980084
:106bb0001e00900011c0b300414098001e009000dc
:106bc00011c0b300014878001e0090001000900032
:106bd0008000e8001e009000110098001e00900048
:106be000104090008eff0700400037001e0090000c
:106bf000b000900010c0b300823e2000828f500091
:106c000001003e000040eb000101e8009e00900002
:106c1000b20098000004e000310032001e00900035
:106c20008000eb0031009800000f200080418800b8
:106c30001e00900021c0b300014878002b003700ef
:106c40001e009000b00090008241800010c0b30090
:106c5000828f500001003e000040eb000101e8007f
:106c60009e009000b20098000004e0001e00320078
:106c70001e0090008000eb00310098001e00900084
:106c8000100090008000e8001e00900011009800a5
:106c90008141800020032000808f500007003600d3
:106ca0008041800074005000804188001e009000e8
:106cb00021c0b30041409800030037001e0090003f
:106cc00031c0b300414098001e0090001040900079
:106cd00053ff0700050037000000000003003700e5
:106ce0000000000001003700000000001e009000be
:106cf0006a004000100798001e0fe8001e00780090
:106d0000e30f50007dff34000040eb000080fa00ec
:106d1000000006000400fa00209c210010079800e3
:106d20000000eb00000f7800190037001e009000f3
:106d30008080eb00110098001e0090008000eb00a6
:106d4000010878001e0090008000eb0061009800b0
:106d50001e0090008000eb00310098001e009000a3
:106d60008000eb00210098001e0090008080eb0066
:106d7000410098001e0090008000eb005100980038
:106d80001e0090006e004000100798001e0fe800e3
:106d90001e007800e40f5000e4ff34003228ef00ba
:106da000500020000080fa00000006000c00fa00ed
:106db0002007980031079800420798005307980071
:106dc00090418000e40f5000020034000000eb000e
:106dd0002b003700209c2100100798000000eb00da
:106de000000f7800220037001e0090005000900035
:106df0000000e0001a003a009e0078001e0090009b
:106e0000110098001e009000ae009000010878006c
:106e10001e009000de009000610098001e009000af
:106e2000be009000310098001e009000be0090004f
:106e3000210098001e009000ce00900041009800b4
:106e40001e00900021002000510098009041800019
:106e50000000e800904188001e0090000800370004
:106e60001e0090006e004000100798001e0fe80002
:106e70001e007800e40f5000dbff34000000eb0040
:106e80000080fa00000006000600fa0020079800c3
:106e90002e009000500090000000e00002003a0038
:106ea0000000eb0025003700209c2100100798000f
:106eb0000000eb00000f78001c0037009e009000df
