:020000040000fa
:08000000020c040000000000e6
:020000040000fa
:100008000e1000000e1000000e1000000e10000070
:100018000e1000000e1000000e1000000e10000060
:100028000e1000000e1000000e100000520f00000d
:100038000e1000000e1000000e1000000e10000040
:10004800fa0f00000e1000000e100000de0c000079
:100058009e0d0000ae0f00000e1000000e100000f4
:100068000e1000000e1000000e1000000e10000010
:100078000e1000000e1000000e1000000e10000000
:100088000e1000000e1000000e1000000e100000f0
:100098000e1000000e1000001c0e0000dc0e000008
:1000a8000e1000000e1000000e1000000e100000d0
:1000b8000e1000000e1000000e1000000e100000c0
:1000c8000e1000000e1000000e1000000e100000b0
:1000d8000e1000000e1000000e1000000e100000a0
:1000e8000e1000000e1000000e1000000e10000090
:1000f8000e1000000e1000000e1000000e10000080
:100108000e1000000e1000000e1000000e1000006f
:100118000e1000000e1000000e1000000e1000005f
:100128000e1000000e1000000e1000000e1000004f
:100138000e1000000e1000000e1000000e1000003f
:100148000e1000000e1000000e1000000e1000002f
:100158000e1000000e1000000e1000000e1000001f
:100168000e1000000e1000000e1000000e1000000f
:100178000e1000000e1000000e1000000e100000ff
:100188000e1000000e1000000e1000000e100000ef
:100198000e1000000e1000000e1000000e100000df
:1001a8000e1000000e1000000e1000000e100000cf
:1001b8000e1000000e1000000e1000000e100000bf
:1001c8000e1000000e1000000e1000000e100000af
:1001d8000e1000000e1000000e1000000e1000009f
:1001e8000e1000000e1000000e1000000e1000008f
:0801f8000e1000000e100000c3
:020000040000fa
:100208000e1000000e1000000e1000000e1000006e
:100218000e1000000e1000000e1000000e1000005e
:100228000e1000000e1000000e100000520f00000b
:100238000e1000000e1000000e1000000e1000003e
:10024800fa0f00000e1000000e100000de0c000077
:100258009e0d0000ae0f00000e1000000e100000f2
:100268000e1000000e1000000e1000000e1000000e
:100278000e1000000e1000000e1000000e100000fe
:100288000e1000000e1000000e1000000e100000ee
:100298000e1000000e1000001c0e0000dc0e000006
:1002a8000e1000000e1000000e1000000e100000ce
:1002b8000e1000000e1000000e1000000e100000be
:1002c8000e1000000e1000000e1000000e100000ae
:1002d8000e1000000e1000000e1000000e1000009e
:1002e8000e1000000e1000000e1000000e1000008e
:1002f8000e1000000e1000000e1000000e1000007e
:100308000e1000000e1000000e1000000e1000006d
:100318000e1000000e1000000e1000000e1000005d
:100328000e1000000e1000000e1000000e1000004d
:100338000e1000000e1000000e1000000e1000003d
:100348000e1000000e1000000e1000000e1000002d
:100358000e1000000e1000000e1000000e1000001d
:100368000e1000000e1000000e1000000e1000000d
:100378000e1000000e1000000e1000000e100000fd
:100388000e1000000e1000000e1000000e100000ed
:100398000e1000000e1000000e1000000e100000dd
:1003a8000e1000000e1000000e1000000e100000cd
:1003b8000e1000000e1000000e1000000e100000bd
:1003c8000e1000000e1000000e1000000e100000ad
:1003d8000e1000000e1000000e1000000e1000009d
:1003e8000e1000000e1000000e1000000e1000008d
:0803f8000e1000000e100000c1
:020000040000fa
:10180000010000004ff321000e7f22000e0188002e
:1018100000000000000020000000e0000200320094
:10182000000120002002880014000700fd010700cd
:101830000000e00003003a00e0e82400010020007e
:10184000020037000000200001002000810f70001e
:101850000100320014000700000020000000e0003a
:101860000200320000000200000000004a2e0200c8
:10187000000000000040da000000fe004440a90023
:10188000808c20000000e0000300320000002000f7
:10189000a00188004440a800000006008a1f7800cc
:1018a0008b1f7800000006009101880080047800fa
:1018b0000000eb001a003700e284440032a0b400bc
:1018c0009905ba00e284440032a0b4009906ba0037
:1018d000e284440032a0b4000006eb00476fde0053
:1018e000fd07b200636ce10003003a00ebff070064
:1018f0000000eb000a003700606ce10004003a00d1
:10190000005deb008b05e900fdff3e0004003700a1
:101910006168e100010032000086eb000b00070067
:1019200019c7ba001905ba000e04e00003003a0016
:101930000a00e000e0ff3a0000000600fe07b200e7
:101940009e0188008a047800f5ff3700395dba00ef
:101950008b05e9000c003200295dba008b05e90017
:10196000080032000c00e00003003a00e28444006a
:1019700032a0b400f5ff370019ddba008b05e9008d
:10198000faff3a008904e800e184440032a0b40080
:101990000000060000000000000000000000000041
:1019a0000000000000000000000000000000000037
:1019b0000000000000000000000000003600f800f9
:1019c000809fbe00829fbe00849fbe00869fbe0097
:1019d0003400f80000002000a00188000400fa0094
:1019e0008560a9005083200011c0b3000148780031
:1019f000301180008040780040832000014878004a
:101a0000100280004500de00674060000080fb009f
:101a1000000f780011028000000e2000010070000d
:101a20001002880000000000408320001040780071
:101a30008040780060872000512007001e00780059
:101a400000407800674060000080fb006700600095
:101a50004500dd0012028000f1f12f0081006100dd
:101a600001007000100288000000000010028000d9
:101a70004500de00674060000080fb001007980012
:101a800011028000000e200001007000100288008a
:101a90000000000082a98000408320009040780070
:101aa000004b2100000041000148780080a980001f
:101ab0000000e80080a9880081a98000f0072000cc
:101ac000808f5000020036000000eb0080a98800e3
:101ad000a1a98000f0072000808f500003003e0085
:101ae000a0a980000000e800a0a988001e009000c6
:101af00000407800674060000080fb0067006000e5
:101b00004500dd0012028000f1f12f00810061002c
:101b10000100700010028800000000000080fa0040
:101b20003400f9004f03be004f02be004f01be005b
:101b30004f00be003600f900004006003600f800f5
:101b4000809fbe00829fbe00849fbe00869fbe0015
:101b50003400f80000002000a00188000400fa0012
:101b60008580a9003088200011c0b30001487800aa
:101b7000100280004500de00674060000080fb002e
:101b8000000f780011028000000e2000010070009c
:101b90001002880000000000630047008000780009
:101ba00060c8200024200700204798001e0078000d
:101bb00000407800674060000080fb006700600024
:101bc0004500dd0012028000f1f12f00810061006c
:101bd0000100700010028800000000002e409000fc
:101be0000004e00008003200be4090002088200081
:101bf0000148780020882000104078000080fb0019
:101c000020118800040037009580a900408820003a
:101c100011c0b300014878000080fa003400f900d8
:101c20004f03be004f02be004f01be004f00be007a
:101c30003600f900004006003600f800809fbe0024
:101c4000829fbe00849fbe00869fbe003400f800c5
:101c500000002000a00188000400fa0087c0a9004d
:101c600030c9200011c0b30001487800b0118000d5
:101c70008040780020c920000148780010028000d0
:101c80004500de00674060000080fb00000f780028
:101c900011028000000e2000010070001002880078
:101ca0000000000020c9200010407800804078002b
:101cb00040092100b21f07001e0078000040780094
:101cc000674060000080fb00670060004500dd00a9
:101cd00012028000f1f12f0081006100010070000c
:101ce0001002880000000000100280004500de00a5
:101cf000674060000080fb00100798001102800020
:101d0000000e20000100700010028800000000009a
:101d1000b2c9800020c920009040780060532100a3
:101d20000000410001487800b0c980000000e800d0
:101d3000b0c98800b1c98000f03f2000808f5000fa
:101d4000020036000000eb00b0c98800d1c9800055
:101d5000f03f2000808f500003003e00d0c980007b
:101d60000000e800d0c988001e0090000040780004
:101d7000674060000080fb00670060004500dd00f8
:101d800012028000f1f12f0081006100010070005b
:101d900010028800000000000080fa003400f90002
:101da0004f03be004f02be004f01be004f00be00f9
:101db0003600f900004006003600f800809fbe00a3
:101dc000829fbe00849fbe00869fbe003400f80044
:101dd00000002000a00188000400fa0087e0a900ac
:101de000100a210011c0b3000148780010028000e1
:101df0004500de00674060000080fb00000f7800b7
:101e000011028000000e2000010070001002880006
:101e1000000000006300470080007800404a210075
:101e2000851f0700204798001e00780000407800ba
:101e3000674060000080fb00670060004500dd0037
:101e400012028000f1f12f0081006100010070009a
:101e500010028800000000002e4090000004e00006
:101e6000040032003e4090000080fb00a01188007a
:101e70000400370097e0a900200a210011c0b30038
:101e8000014878000080fa003400f9004f03be00da
:101e90004f02be004f01be004f00be003600f900e9
:101ea000004006003600f800809fbe00829fbe0002
:101eb000849fbe00869fbe003400f8000000200012
:101ec000a00188000000fa008460a9001000200032
:101ed000b0e58800a0e580000000e800a0e58800eb
:101ee000c0e58000d1e5800061004000e08048004e
:101ef000c0e58800d1e58800e0e580000000e8004a
:101f0000e0e5880030e680000000e0000b003200d1
:101f1000a1e5800060408000000178001100090008
:101f20008280d8008000fd000000e00003003a003d
:101f300031e6800040cb2100010001000080fa0062
:101f40003400f9004f03be004f02be004f01be0037
:101f50004f00be003600f90000400600809fbe0022
:101f60003400f80000002000a00188000000fa0002
:101f700085a0a90040812000900078000018800012
:101f8000008040008000d1004081200001087800de
:101f900040812000900090001018800000804000d8
:101fa0008000d10040812000110098004081200075
:101fb000a000900020188000008040008000d10028
:101fc000408120002100980040812000b000900056
:101fd00030188000008040008000d1004081200047
:101fe000310098000080fa003400f9004f00be0074
:101ff000004006003400f800881f78000800200028
:10200000a80188004f0478000000fa008500a900ac
:102010000080fa003400f900004006000040da00b9
:102020000000fe000000050003f0a200889fbe0033
:102030008a9fbe008c1f7800f5000700fc0033006b
:102040006450e1004f0032006420e1005200320091
:1020500003826c0007003b000905d0000306d00096
:10206000820f54000c065d000200390002003200ad
:1020700089017800030678008582550004003d0040
:102080000003fd008103fd008502ea008b8542000c
:10209000840f720002003b0060001000e080180016
:1020a0006011b8000005eb007a28e1000a00390051
:1020b00006007800c75ddd00f707b2008780750075
:1020c0002d003700828171000a01780061056000ef
:1020d0008180d1000080d3008502e900f9ff3b0038
:1020e000060440008784480002003b00600414009e
:1020f000e0841c000988a300070032008a81710077
:1021000082817100610164008904d1000884d300d8
:102110008b05e800170037000978a30013003a0088
:102120000b00e000130034008b05e90008044400b4
:1021300089844c000a4474000978a3000d003a0019
:102140000b00e000070034008b05e90008044400a0
:1021500089844c0001003a000b0020000978a3009c
:10216000f7ff32000001eb000200370082817100ae
:102170000a0178006b0007000cf0a70001f0a00036
:10218000b40037006420e10002003a00838f6c0045
:10219000b40033000801be000200be00ad003700ed
:1021a000889fbe008a9fbe008c1f780098000700a1
:1021b0009f00330003866c006450e1002e00320063
:1021c0006420e100330032006150e1002f00320052
:1021d0006120e1003100320085855500eb07b00039
:1021e000090020000804200005003700080444000e
:1021f00089844c000a0031000603430087834b00aa
:102200000001530081815b00f8ff33000203be0030
:102210000800a0000804440089844c00f6ff39003f
:10222000c639dd0083017300010032001300200075
:102230008904d1000884d3000998a3000500320066
:102240000800a7000300a0008904d1000884d3007f
:102250008b05e8008904d1000884d3000001eb005d
:102260000281d2002f00070001f0a1000cf0a700ae
:1022700001f0a000770037006420e100790032000f
:102280000801be000200be00f7ff37006120e10038
:10229000740032006000b800f3ff37000000200037
:1022a00001f82700f0ff370014002000a4003700d9
:1022b0000001be00410007000470a70003f0a10068
:1022c00003f8a30013003a006509b10010003200c2
:1022d000090035006928e1000200350001002800ee
:1022e0000000050000004000818048008502e900f0
:1022f000fcff3a0000000600f88f420005003500a0
:102300008100d1000080d3008502e800fcff3a0084
:10231000000006008000eb00000005006011b8001e
:10232000a200370081002000618055000b003d00b5
:102330000b00200061fe2f000100e1001d003400b1
:1023400082817100610164008904d1000884d30096
:102350000000e800faff3a0071002000610064000c
:1023600003007000020060000900320061044400b4
:10237000e0844c000988a500050032008b05e800c8
:102380006808e10002003a008904d1000884d30003
:10239000f20f20000258e10005003d00c75ddd009e
:1023a000f907b20089807500080078000000060077
:1023b0000bf827008b00780000000500c70ade003c
:1023c000f107b200f50fb20008003200e1cf420081
:1023d000020032000170a00024000500810f70008f
:1023e000010032000408050044000500810f700060
:1023f00002003a00140005008502e90000004000d8
:1024000081c04800fcff3b000170a00024000500d3
:102410000004be00e9ff07000003be000405be0083
:102420000200be00e5ff0700844f750000000600b3
:102430000200be006450e100050036006420e100a7
:10244000020036000968a30001003a000800be003f
:102450000160a0004f0678004f05be004f04be008b
:1024600000000600f0ff2f00f1ff2700f9ff370002
:10247000889fbe008a9fbe008c1f7800e4ff070083
:10248000ebff330003866c006450e100240032004f
:102490006420e100270032006150e1002200320098
:1024a0006120e100210032008b854200eb07b10082
:1024b0000134b800003ab8000804420089844a0098
:1024c000013ab8000030b8008880400009014a0095
:1024d00004003300000040008180480002014900f0
:1024e0008b05e900c909dd0083017000010032009d
:1024f00013002000c814de004814dd004709de0088
:102500001200b200c808de000884700085ff0700d2
:1025100001f0a1000cf0a70001f0a000cdff3700f2
:102520006120e100cfff32000801be000200be00c2
:10253000f7ff37006150e100fcff3a00c9ff3700a8
:10254000889fbe008a9fbe00841f7800b0ff0700ee
:102550004f00780011003300f0ff2f00838f6c00d4
:1025600006003b00040565000a00a70008003700cc
:1025700009f0a6001000200008003700820f540068
:10258000838f5c00030039001000200001003e0032
:102590000000200009f0a7000000ea004f05be007f
:1025a0004f04be000000e00000000600889fbe004f
:1025b0008a9fbe00008270000402710004827100d4
:1025c000260032000004be000200be006011b80008
:1025d0006b092000950220000182cf000a0039001b
:1025e0000541b1000082cf00070039000541b1006c
:1025f0000982cf00040039000541b1000882cf00f4
:10260000010039000541b1000542520012003200bc
:102610000a003b0082817100610164008100d100e9
:102620000080d3008984d3000884d3008b05e800a0
:102630000442e800f7ff3a000700370008044400ae
:1026400089844c0000004800818048008b05e90027
:102650000442e900f9ff3a0032ff07004f05be00cf
:102660004f04be0000000600800178000200370021
:10267000b15978000201e9000200e000fcff3a00d5
:1026800000000600020037000204e0000b003200e8
:10269000810178000002780030417800b14f51008c
:1026a000f9ff32001000200014427800934f5200ce
:1026b000030031000080eb00000006000000eb008a
:1026c0000000060080007800010178003104e0007d
:1026d000fdff3a000000510000000600881f78004e
:1026e0000204780008017800dfff070008004000be
:1026f0004f047800000006000000fa00881f7800f0
:1027000000047800ea8157003fb9970088007800fc
:10271000e0362100070007000000e000020035005d
:102720008040eb00017478004f0478000080fa00cc
:10273000000006006200fa00889fbe008a1f780031
:102740000005780081047800020478008300780096
:1027500080f92f000f004000d40307009a979f00d4
:10276000a9979f000000eb00b09f9f001885fb0019
:102770008a04fb000a05ea004f55de0050022000e3
:10278000808f54000d003200e10f55000b003a001d
:102790000a017800880078002f9097009f91970099
:1027a00003000100a0979f000000e0008e003200af
:1027b0003f9897000000e800b09f9f000a04440083
:1027c00050022000808f5400040032000900e00015
:1027d000e6ff3a003f989700840037000000eb00c6
:1027e000909f9f00809f9f00f0979f00e0979f0021
:1027f000d0979f00c0979f0007003700e1f22100ab
:10280000010050000000400021f22100610078002a
:10281000df98970001007000d09f9f008804780027
:1028200009047800384578008a00fb00e0f22100b6
:10283000a70107000000e000f0ff3a00a1c2b300ca
:10284000814f55000e003a00cf8897000180e900c3
:10285000c08f9f0010007800c09f9f000000e00024
:1028600005003d000000ea00c09f9f005f989700b0
:102870000020a000d09f9f000904e8000f0037004f
:10288000c09f9f000000eb0005003700f2ff27000b
:10289000820f5000020032006a01b900028040003d
:1028a0000904780088047800b900fb000103b10036
:1028b000e98f5000f5ff3600c09f9f00e0c2b300d3
:1028c000984f1000020032000080eb001900370022
:1028d000a0c2b300d84f100007003a00cf8897007d
:1028e0000180e900c08f9f0010007800a09f9f002a
:1028f0000804e800100037000000eb00a09f9f00d4
:102900008800780005003700f3ff2700830f500090
:10291000020032006a02b90004004100010478009c
:10292000880078003101fb000203b100e90f51007b
:10293000f5ff3600a09f9f00984478008900fb00b7
:10294000a0f12100620107000000e0000200320057
:102950000804e800010037008044eb00c97f9f00b5
:1029600080c6b30080cf540004003a0098cf140012
:102970000a003a006640500006003700c0c6b300a7
:1029800080cf540005003a0098cf140003003a00ad
:1029900065404000c07f9f000804e8001801fb006c
:1029a000e3fb2f008f81410081f92f008f804000d1
:1029b000a0f92f000f004000100007000000e00009
:1029c00009003a00e1fb2f008f804000a0f92f00a2
:1029d0000f004000790207000000e000020035000f
:1029e0000804e80061ff37000080eb004f05780025
:1029f0004f04be000080fa0000000600889fbe0061
:102a00008a1f780000047800e0c6b300804f5100b0
:102a1000c100320015003c006b405000804f510057
:102a2000240032000a003c0070405000804f5100ea
:102a3000fa00320065404000804f510068003200cb
:102a400050c2b300804f51000b013a00070137001c
:102a500040c6b300804f51001b003200654040006b
:102a6000804f510004013a001700370030c7b3000f
:102a7000804f5100e900320007003c0064405000e4
:102a8000804f5100560032000040e800804f510056
:102a9000f9003a00d300370050c7b300804f51000f
:102aa0004f00320063404000804f5100f2003a0076
:102ab0004b0037001181e90082087800780090000f
:102ac00012417800ea00370028609000c4c6b300c5
:102ad000844f500007003a00110278006400520051
:102ae000800878001002be004fabde00860378003d
:102af0001100370014c7b300844f500003003200a8
:102b0000a4c6b300844f500006003a0011027800ba
:102b100068005200800878003002be002003be002a
:102b2000050037001180e900800878001002780065
:102b3000cfa2de00612bb900049cbe000694be004b
:102b40002860900081c6b300814f50000d00320014
:102b500021c6b300814f500004003a000402fb007c
:102b6000cfa2de00612bb9000800370041c7b300d7
:102b7000814f500003003200e6c04000814f5000fa
:102b800004003a00cfa2de00612bb900049cbe0015
:102b90000694be003802be002803be0078009000f4
:102ba000d1c2b300e00f5200e08f5a00e00f5b008b
:102bb000e08f5b0008003500881090000118a3002a
:102bc00002003200b1c2b300030037000108a300c5
:102bd0004c00320001c2b300817178004700370019
:102be00028609000c4c6b300844f500006003a002d
:102bf0001102780064005200800878001002be00c4
:102c00006033b8001100370014c7b300844f500080
:102c100003003200a4c6b300844f500006003a00ff
:102c20001102780068005200800878003002be006f
:102c30002003be00050037001180e90080087800fd
:102c4000100278008002eb006033b800049cbe00e4
:102c50000694be002860900081c6b300814f5000ea
:102c60000d00320021c6b300814f500004003a002d
:102c70000482fb008002eb006033b80008003700dc
:102c800041c7b300814f500003003200e6c040004e
:102c9000814f500004003a008002eb006033b8001e
:102ca000049cbe000694be00081090000038a300eb
:102cb000140032003802be002803be00e00f5200ac
:102cc000e08f5a00e00f5b00e08f5b000d003200e8
:102cd00080c7b300804f51000300320080c5b300ad
:102ce000804f510007003a007800900001c3b30004
:102cf000817178000000e800827178000000e8002f
:102d0000700498007800900080814100630498006e
:102d1000824078003e00370028619000c3c6b300af
:102d20001180e900834f5100220032000a003c006c
:102d3000e4c15100834f51002500320083c1e800f7
:102d4000834f510013003200e8c15100834f5100fe
:102d50001e003a000a00370043c7b300834f5100fa
:102d60001b003200e6c14100834f510018003200c1
:102d7000e9c15100834f510014003a0005003700ab
:102d80008008780010007800485c900008487800bf
:102d9000410037008008780010007800680a900031
:102da000cfa2de00612bb9000498be000690be00e1
:102db000390037008008780010007800680990001a
:102dc000cf91de000288be00330037001180e90099
:102dd0008008780010007800680c900008087800df
:102de0002d0037001180e90080087800100278007b
:102df000cfa2de00612bb900049cbe000694be0089
:102e000078009000808141006304980081c7b3007e
:102e1000080078003a0007001f0037001180e90021
:102e200080087800100578006a049800d80c90009b
:102e30000900e00004003d000a00780021fe0700c0
:102e40008004780007003700090178008000eb005b
:102e50000a007800140007000000e00001003200c2
:102e60008a045000190c98000b003700780090007d
:102e70008271780006003700780090008081410060
:102e80000204e00001003a0052c2b3008249780017
:102e90000000e800700498000000eb004f05780087
:102ea0004f04be000000060003003700b0cf100042
:102eb000050032000201e900800178000200e00014
:102ec000faff3a0000000500030078000000060049
:102ed000020037000304e000060032000001780021
:102ee00002007800b041780081cf5100f9ff3a002c
:102ef000010037000001eb0002007800000006002e
:102f0000fc874700889fbe008a9fbe008c9fbe0042
:102f10008e1f78000006780080c5b30080cf500077
:102f20000a0032007740400080cf50000a00320093
:102f30006940400080cf50000b00320090f021002b
:102f400080bf9f00ae0020000a00370082ef210002
:102f500082bf9f000600370093f0210083bf9f00cf
:102f60008e0020000300370094f0210084bf9f00f2
:102f70000e0120003c02be002c03be000605be0070
:102f80000404be0040c6b30080cf500003003200ee
:102f90006540400080cf50000b003a00e00f520027
:102fa000e08f5a00e00f5b00e08f5b0006003d0001
:102fb0006000b8006011b800040450008584580017
:102fc0000605590087855900e80f570004003200b4
:102fd00040002000f00f570038003a000100370091
:102fe00030002000e00f5400e08f5c00e00f5d0037
:102ff000e08f5d0004003a00dc0890008d012000a5
:103000000100e000060032008e00e90088806000c8
:103010008fba9700e5c07800f1ef9f007d01200096
:10302000800078008100e900050033008b05d100a5
:103030000a85d3008984d3000884d300f9ff3700c0
:10304000089ebe000a96be00120037008d06e900f9
:103050008e00e900848060000fb99700e2c178001b
:1030600082fd2f000f01410003f17e0080007800f7
:103070008100e900050033008783d1000683d30077
:103080008582d3000482d300f9ff3700049ebe007e
:103090000696be003c02be002c03be00e00f5200ac
:1030a000e08f5a00e00f5b00e08f5b008b00340084
:1030b0000d00e000e5ff3c00880037002c60900028
:1030c00081c6b300814f50000b00320006003c0067
:1030d0000004e00008003200e6c05000814f5000bc
:1030e0004e003a0004003700c1c6b300814f5000c3
:1030f0004a003a00210037000800e00004003a00ce
:103100005c0890008d0120000000e0000600320005
:10311000110009000e84d8000fb99700e2c07800b2
:10312000f1ef9f007d012000110009000e84d800fe
:103130000a003700110009000e04d8008d06e900ce
:103140000e81b900020454008fb8970061417c00e1
:1031500081fd2f008f80400082f07e000004780007
:103160000800e000020032000d00e000f1ff3c002a
:10317000cfc4de00614db90025003700e00f5400d8
:10318000e08f5c0004003a005c0890008d01200094
:103190000000e000070032006171b9000800be00c5
:1031a000630107008fb99700e3417800f3ef9f00b8
:1031b0007d0120006171b9000800be004c010700cc
:1031c0000b0037006171b9000800be00390107002b
:1031d0008d06e90000f1b900020454000fba97000f
:1031e000e4427c0084fd2f000f02420005f27e00c5
:1031f0000004be00e00f5000e08f580002003200d3
:103200000d00e000efff3c004fcdde008a057800a6
:10321000089ebe000a96be0030003700e00f540042
:10322000e08f5c00e00f5d00e08f5d0004003a007d
:103230005c0890008d0120000000e00009003200d1
:103240006172b900612bb9000800be000a01be001e
:10325000da0107000fba970064427800f4ef9f008c
:103260007d0120006172b900612bb9000800be0029
:103270000a01be00ca0107000d0037006172b900e3
:10328000612bb9000800be000a01be00cf01070093
:103290008d06e90000f2b900040454008fba9700cb
:1032a00065427c0085fd2f008f82420084f27e0003
:1032b000009ebe000296be003c04be002c05be006f
:1032c000e00f5400e08f5c00e00f5d00e08f5d00d8
:1032d000020034000d00e000e8ff3c00e80f57005a
:1032e00010003a000c1090000038a3000d003200ce
:1032f000f78f560006003e0085fd2f008f824200aa
:10330000e5c07e0000c3b30080cf5000050032004e
:103310008d06e90002c3b30081fd2f008f804000bd
:1033200082f07e0078811600120e98006c009000ea
:1033300083fd2f008f8141008d804100cafc070072
:103340001c089000dc089000810f500006003d0032
:1033500000805000000e98000c1090000040a1006a
:10336000001698000f0037000100e0000d003d003e
:103370008c109000f4806000f08f500009003a003b
:103380007c099000fc009000810051000c09900025
:1033900082805000008050004240a90001003400ab
:1033a000000e98004f0778004f06be004f05be0084
:1033b0004f04be00cf01b100000006000400fa0077
:1033c000889fbe008a9fbe008c1f78000004780092
:1033d00001067800f80d9000780090008085550077
:1033e00008089000808555001808900080855500d9
:1033f0002808900080855500380890008085550089
:1034000048089000808555000002220090bf9f0070
:1034100000032300a0bf9f00081090000028a30015
:1034200015003a000b00e000130034000b05780093
:103430008a047800e20f55000100360029002000c0
:10344000c801900009017800ee80570058009000f4
:1034500003000100500498000000e0008c003200de
:103460006808900009004000600c980009055500ac
:103470004240a900eeff3c00780190000200e0000d
:103480000c003400c80190008c00780058009000b7
:1034900003000100500498008080eb000000e00071
:1034a0007c003200e8089000780090000080400026
:1034b000600c9800880c90000900e00011003400b6
:1034c00009057800e28f5400010036002a00200030
:1034d000c80190000a017800ec8057005800900065
:1034e00003000100500498000000e0006800320072
:1034f000680890000a004000600c98008a8454001c
:10350000edff3700180990000200e0000c003400c5
:10351000c8019000e80090005800900003000100ee
:10352000500498008080eb000000e0005900320059
:10353000e80890001808900000804000600c980097
:10354000a80c90000900e000110034000905780083
:10355000e28f5400010036002a002000c8019000cc
:103560000a017800ec805700580090000300010029
:10357000500498000000e000450032006808900008
:103580000a004000600c98008a845400edff370068
:10359000380990000200e0000e003400e8009000be
:1035a0001808900080804000c801900058009000ea
:1035b00003000100500498008080eb000000e00050
:1035c00034003200e8089000380890000080400085
:1035d000600c9800c80c90000900e0001100340055
:1035e00009057800e28f5400010036002a0020000f
:1035f000c80190000a017800ec8057005800900044
:1036000003000100500498000000e0002000320098
:10361000680890000a004000600c98008a845400fa
:10362000edff3700081090008000eb000028a30099
:10363000180032000b00e000160034008b04780004
:1036400009057800e28f5400010036002a002000ae
:10365000c80190000a017800ee80570058009000e1
:1036600003000100500498000000e0000800320050
:10367000680890000a004000600c98008a8454009a
:103680004240a900eeff3c008000eb000100370043
:103690008080eb00010078004f0678004f05be00e7
:1036a0004f04be000080fa00000006000108780008
:1036b00000000600839f68000100e00002003d005a
:1036c00060001000e08018000300e00002003d00f0
:1036d00060011100e0811900050007004f00e000c3
:1036e00002003b0060001000e080180000000600af
:1036f0006022b800060220000000d0008180d200c5
:103700000482d2008582d2000000a0000202520092
:1037100083825a00030031000202420083824a0081
:103720000000a1000603e900f3ff3a0000000600d4
:10373000efff07000400be0000000600889fbe00e7
:103740008a9fbe0030044200b0844a0030054b001e
:1037500090854b006000b1000898be000a90be0042
:103760000440e10005c8e10006d0e10007d8e1000f
:1037700002003100680040001008e8004f05be005c
:103780004f04be0000000600889fbe008a9fbe0056
:103790003004be002005be000418540005985c00eb
:1037a00006185d0007985d00110020000440e1004c
:1037b00005c8e10006d0e10007d8e10001003900aa
:1037c0008000eb00108810004f05be004f04be00c3
:1037d000000006001200fa00889fbe008a9fbe000b
:1037e0008c9fbe00e0b79f00f1b79f0082bf9f0093
:1037f00093bf9f000605be000404be000000eb005e
:10380000d0b79f00c0b79f00b0b79f00a0b79f0080
:1038100090b79f000006eb005fb19700cfb0970014
:10382000820141003fb097000200e00004003d002b
:10383000370007007e805700c0ff070003003700f5
:10384000330007007e805700cfff0700dfb69700e8
:103850000d00e0000c0035006fb29700ffb297003a
:103860000fbb97009fbb97001000200001002000b5
:103870006011b800000272008182720002037300be
:10388000838373001b0007000c06e800010420007e
:10389000810f5600e0ff3a000d00e00004003d00fb
:1038a0000802be000a03be007e805700a3ff070087
:1038b0005fa897000000e00005003a001fb29700e3
:1038c000afb297003fb39700cfb39700090007004e
:1038d0006fb09700ffb097000fb997009fb997009e
:1038e0004f06be004f05be004f04be000080fa0028
:1038f000000006000100070000000600a4b79f00ba
:10390000b5b79f00c6b79f00d7b79f00000006005d
:103910004f09de0082817100b3b79f004f01de00c6
:103920008180400082807000a1b79f008fb0970017
:103930004f09de00000040000200700090b79f00b9
:103940007fa897004f01de008180400082807000d8
:1039500081b79f000d0007004f3ade0000004000d5
:1039600004007000f0af9f0008000700040242004e
:1039700085824a0006034b0087834b00dfff070068
:103980000802be000a03be00000006002fb2970026
:10399000bfb297004fb39700dfb397000000060057
:1039a000881f780018002000881f780089ff070012
:1039b0008f87e9004f04780000000600801feb00ad
:1039c00084ff07008f87e90000000600889fbe0083
:1039d0008a9fbe00e00f5000e08f5800e00f5900b2
:1039e000e08f59000c003d006044b8006055b800fd
:1039f0000000540081805c0002015d0083815d0055
:103a0000180020001500070008003d0018000700fe
:103a10000004eb00050037000004eb000f00070076
:103a200002003d001200070018002000dcff070024
:103a30000800e000060032006022b8006033b800e1
:103a40000000520081805a0002015b0083815b000c
:103a50004f05be004f04be0000000600e00f5200fc
:103a6000e08f5a00e00f5b00e08f5b000000060073
:103a70006044b8006055b8000402540085825c00c0
:103a800006035d0087835d0000000600889fbe007e
:103a90008a9fbe008c1f7800e00f5000e08f580016
:103aa000e00f5900e08f59000d003d006044b80060
:103ab0006055b8000000540081805c0002015d0088
:103ac00083815d001c0020000820e10009a8e100be
:103ad0000ab0e1000bb8e1000d003d00080037001e
:103ae0000006eb00e00f5200e08f5a00e00f5b0091
:103af000e08f5b0006003d006044b8006055b800f0
:103b00000402540085825c0006035d0087835d002b
:103b1000aaff07000c00e000060032006022b80097
:103b20006033b8000000520081805a0002015b003f
:103b300083815b004f0678004f05be004f04be0036
:043b4000000006007b
:020000040000fa
:103b4400574c00005254000030320000005700006f
:103b54004c52000054310000313100003132000079
:103b6400004f00004b0d00000a0000004552000009
:103b7400524f0000520d00000a00000046410000b0
:103b8400494c0000454400000d0a0000007200008a
:103b940065610000647900000d0a00000057000010
:103ba40049460000492000004449000053430000f6
:103bb4004f4e00004e450000435400000d0a000023
:103bc400005700004946000049200000434f000010
:103bd4004e4e00004543000054450000440d0000d3
:103be4000a00000057490000464900002047000031
:103bf4004f54000020490000500d00000a0000004e
:103c04006275000073790000207000002e2e000001
:103c14002e0d00000a0000005b3000005d20000053
:103c24004d4f0000445500004c4500005f53000018
:103c340054410000544500005f4400004953000013
:103c4400434f00004e4e0000454300005445000021
:103c5400440d00000a0000005b3100005d200000fc
:103c64004d4f0000445500004c4500005f530000d8
:103c740054410000544500005f57000041490000d2
:103c8400544900004e4700000d0a0000005b00008c
:103c9400325d0000204d00004f440000554c0000f0
:103ca400455f00005354000041540000455f00008c
:103cb400434f00004e4e00004543000054450000b1
:103cc400440d00000a0000005b3000005d2000008d
:103cd4004e450000545700004f5200004b5f000057
:103ce4005354000041540000455f00004449000063
:103cf400534300004f4e00004e4500004354000063
:103d0400454400000d0a0000005b0000315d000026
:103d1400204e0000455700004f5200004b54000055
:103d24005f53000054410000544500005f4300000d
:103d34004f4e00004e45000043540000454400002f
:103d44000d0a0000005b0000325d0000204e000000
:103d540045540000574f0000524b00005f530000d1
:103d640054410000544500005f4700004f540000d8
:103d74005f490000500d00000a0000005b300000a5
:103d84005d200000534500005256000045520000db
:103d94005f53000054410000544500005f5300008d
:103da400544f000050500000454400000d0a00002c
:103db400005b0000315d000020530000455200000c
:103dc40056450000525f0000535400004154000067
:103dd400455f000050520000455000004152000071
:103de400450d00000a0000005b3200005d20000069
:103df4005345000052560000455200005f53000036
:103e040054410000544500005f5300005441000039
:103e140052540000494e0000470d00000a00000003
:103e24005b3300005d200000534500005256000043
:103e3400455200005f530000544100005445000007
:103e44005f520000554e00004e4900004e470000ee
:103e54000d0a000000730000657200007665000022
:103e64007200000020200000202000003e3e0000e0
:103e7400415400002052000065730000706f000080
:103e84006e730000653a000020000000202000004e
:103e94003e3e0000576900004669000020520000c1
:103ea400656300006569000076650000643a0000ff
:103eb400200000002b490000504400002c000000aa
:103ec4000d0a0000004f00004e0000004f460000a5
:103ed400460000003c680000746d00006c3e000069
:103ee4003c6200006f640000793e00003c68000002
:103ef400313e00003c64000069760000207300003d
:103f0400747900006c6500003d270000636f0000b9
:103f14006c6f0000723a00006f720000616e000066
:103f2400676500003b2700003e20000020200000c1
:103f34002020000020200000204c00004544000008
:103f44005b3000005d3a000020250000733c000057
:103f5400627200002f3e000020200000202000009c
:103f640020200000202000004c450000445b00009d
:103f7400315d00003a200000257300003c6200001f
:103f8400722f00003e2000002020000020200000ae
:103f940020200000204c0000454400005b3200005b
:103fa4005d3a000020250000733c000062720000ae
:103fb4002f3e0000202000002020000020200000d0
:103fc400202000004c450000445b0000335d0000ed
:103fd4003a200000257300003c620000722f0000ac
:103fe4003e200000202000002020000020200000af
:103ff400203c00002f640000697600003e3c000075
:104004002f680000313e00003c6200006f64000035
:10401400793e00003c2f0000687400006d6c0000c5
:104024003e0000006f6e0000006f00006666000036
:10403400006900006e760000003c00006874000017
:104044006d6c00003e3c0000626f0000647900006b
:104054003e3c0000683100003e3c00006469000002
:104064007620000073740000796c0000653d000048
:10407400276300006f6c00006f7200003a6f00004d
:10408400726100006e670000653b0000273e00007f
:104094004c450000445b0000256400005d3a0000cc
:1040a40020250000733c00002f64000069760000a6
:1040b4003e3c00002f680000313e00003c620000de
:1040c4006f640000793e00003c2f0000687400001b
:1040d4006d6c00003e0000003c680000746d000040
:1040e4006c3e00003c6200006f640000793e0000fa
:1040f4003c680000313e00003c640000697600002a
:1041040020730000747900006c6500003d270000f6
:10411400636f00006c6f0000723a00006772000069
:10412400656500006e3b0000273e00002020000073
:104134002020000020200000202000005053000018
:10414400575b0000305d00003a200000257300003a
:104154003c620000722f00003e200000202000007e
:1041640020200000202000002050000053570000b1
:104174005b3100005d3a000020250000733c000024
:10418400627200002f3e000020200000202000006a
:10419400202000002020000050530000575b000046
:1041a400325d00003a200000257300003c620000ec
:1041b400722f00003e20000020200000202000007c
:1041c4002020000020500000535700005b33000003
:1041d4005d3a000020250000733c0000627200007c
:1041e4002f3e00002020000020200000202000009e
:1041f400202000003c2f000064690000763e00008f
:104204003c2f0000683100003e3c0000626f00005b
:10421400647900003e3c00002f680000746d0000cb
:104224006c3e0000003c0000687400006d6c0000ef
:104234003e3c0000626f0000647900003e3c0000d8
:10424400683100003e3c00006469000076200000f4
:1042540073740000796c0000653d00002763000062
:104264006f6c00006f7200003a6700007265000016
:10427400656e00003b2700003e50000053570000cd
:104284005b250000645d00003a20000025730000f7
:104294003c2f000064690000763e00003c2f0000c3
:1042a400683100003e3c0000626f00006479000049
:1042b4003e3c00002f680000746d00006c3e00005e
:1042c400003c0000687400006d6c00003e3c00007f
:1042d400626f0000647900003e3c00006831000019
:1042e4003e3c000064690000762000007374000006
:1042f400796c0000653d0000276300006f6c0000ce
:104304006f7200003a6200006c750000653b0000ab
:10431400273e000020200000202000002020000074
:104324002020000041440000435b0000305d000099
:104334003a200000252e0000346400003c62000096
:10434400722f00003e2000002020000020200000ea
:104354002020000020410000444300005b310000a5
:104364005d3a0000202500002e340000643c00006b
:10437400627200002f3e0000202000002020000078
:10438400202000002020000041440000435b000086
:10439400325d00003a200000252e00003464000045
:1043a4003c620000722f00003e200000202000002c
:1043b4002020000020200000204100004443000091
:1043c4005b3300005d3a0000202500002e3400001d
:1043d400643c0000627200002f3e000020200000b8
:1043e4002020000020200000202000003c2f00009e
:1043f40064690000763e00003c2f00006831000034
:104404003e3c0000626f0000647900003e3c000006
:104414002f680000746d00006c3e0000003c00003a
:10442400687400006d6c00003e3c0000626f000088
:10443400647900003e3c0000683100003e3c00000e
:10444400646900007620000073740000796c000039
:10445400653d0000276300006f6c00006f72000070
:104464003a6200006c750000653b0000273e0000c6
:1044740041440000435b0000256400005d3a0000f5
:10448400202500002e340000643c00002f6400004e
:10449400697600003e3c00002f680000313e0000b9
:1044a4003c6200006f640000793e00003c2f000075
:1044b400687400006d6c00003e000000616c000038
:1044c4006c0000003c680000746d00006c3e00004d
:1044d4003c6200006f640000793e00003c6800000c
:1044e400313e000020200000202000002020000099
:1044f400202000003c640000697600002073000066
:10450400747900006c6500003d270000636f0000b3
:104514006c6f0000723a000067720000656500006d
:104524006e2700003e200000202000002020000014
:104534002020000020500000535700005b30000092
:104544005d3a000020250000733c00006272000008
:104554002f3e00002020000020200000202000002a
:104564002020000050530000575b0000315d000024
:104574003a200000257300003c620000722f000006
:104584003e20000020200000202000002020000009
:1045940020500000535700005b3200005d3a0000d9
:1045a40020250000733c0000627200002f3e0000d2
:1045b40020200000202000002020000020200000f7
:1045c40050530000575b0000335d00003a200000a8
:1045d400257300003c620000722f00003e3c000086
:1045e4002f640000697600003e3c00006872000001
:1045f4002f3e00002020000020200000202000008a
:10460400202000003c640000697600002073000054
:10461400747900006c6500003d270000636f0000a2
:104624006c6f0000723a0000626c00007565000057
:10463400273e000020200000202000002020000051
:104644002020000041440000435b0000305d000076
:104654003a200000252e0000346400003c62000073
:10466400722f00003e2000002020000020200000c7
:104674002020000020410000444300005b31000082
:104684005d3a0000202500002e340000643c000048
:10469400627200002f3e0000202000002020000055
:1046a400202000002020000041440000435b000063
:1046b400325d00003a200000252e00003464000022
:1046c4003c620000722f00003e2000002020000009
:1046d400202000002020000020410000444300006e
:1046e4005b3300005d3a0000202500002e340000fa
:1046f400643c0000627200002f3e00003c2f00006a
:1047040064690000763e00003c680000722f0000df
:104714003e20000020200000202000002020000077
:10472400203c0000646900007620000073740000df
:10473400796c0000653d0000276300006f6c000089
:104744006f7200003a6f0000726100006e67000033
:10475400652700003e2000002020000020200000eb
:1047640020200000204c0000454400005b30000085
:104774005d3a000020250000733c000062720000d6
:104784002f3e0000202000002020000020200000f8
:10479400202000004c450000445b0000315d000017
:1047a4003a200000257300003c620000722f0000d4
:1047b4003e200000202000002020000020200000d7
:1047c400204c0000454400005b3200005d3a0000cc
:1047d40020250000733c0000627200002f3e0000a0
:1047e40020200000202000002020000020200000c5
:1047f4004c450000445b0000335d00003a2000009b
:10480400257300003c620000722f00003e3c000053
:104814002f640000697600003e3c000068720000ce
:104824002f3e000020200000202000002020000057
:10483400202000003c2f0000683100003e3c0000b6
:10484400626f0000647900003e3c00002f680000a5
:10485400746d00006c3e000000720000657300007f
:10486400700000002c0000004745000054200000a8
:104874002f00000048540000545000002f00000096
:104884006661000076690000636f00006e2e000010
:10489400696300006f000000746900006d6500002a
:1048a400003c0000687400006d6c00003e3c000099
:1048b400626f0000647900003e3c00006831000033
:1048c4003e3c000064690000763e0000537900001d
:1048d40073740000656d000020540000696d0000d1
:1048e400653a0000202500002e320000643a0000e2
:1048f400252e0000326400003a2500002e3200000c
:10490400643a0000252e0000336400003c2f0000b0
:1049140064690000763e00003c2f0000683100000e
:104924003e3c0000626f0000647900003e3c0000e1
:104934002f680000746d00006c3e0000006c0000e5
:104944006564000000610000646300000070000002
:1049540073770000003c0000687400006d6c000078
:104964003e3c0000626f0000647900003e3c0000a1
:10497400683100003e3c00006469000076200000bd
:1049840073740000796c0000653d0000276300002b
:104994006f6c00006f7200003a72000065640000e2
:1049a4003b2700003e5400006865000020720000b0
:1049b400657100007565000073740000202200001a
:1049c4002f250000732200002069000073200000de
:1049d4006e6f00007420000073750000707000009a
:1049e4006f72000074650000642100003c2f000019
:1049f40064690000763e00003c2f0000683100002e
:104a04003e3c0000626f0000647900003e3c000000
:104a14002f680000746d00006c3e0000004100002f
:104a2400542b00004349000050530000454e000041
:104a3400443d0000256400002c250000640d0000a6
:104a44000a000000415400002b43000049500000bc
:104a5400434c00004f530000453d00002564000016
:104a64000d0a000000410000542b000043490000df
:104a7400504d0000555800003d3100000d0a000063
:104a840000410000542b0000434900005053000033
:104a94004552000056450000523d0000312c0000f4
:104aa400383000000d0a000000410000542b0000c3
:104ab4004349000046530000520d00000a00000064
:104ac4000d0a00005265000073650000746900005f
:104ad4006e67000020740000686500002057000025
:104ae40069460000692000006d6f000064750000d5
:104af4006c6500002e2e00002e0d00000a00000040
:104b0400415400002b520000535400000d0a0000d1
:104b14000053000079730000746500006d200000ec
:104b2400546900006d6500003a2000002020000058
:104b34005b250000645d0000202500002e3200008b
:104b4400643a0000252e0000326400003a2500007b
:104b54002e320000640d00000a0000004d6f0000ba
:104b6400647500006c6500002e7300007461000021
:104b7400746500003a200000200000004e6500002b
:104b8400747700006f7200006b2e000073740000d5
:104b940061740000653a00002000000053650000c5
:104ba40072760000657200002e73000074610000cc
:104bb400746500003a200000200000000d0a000087
:104bc4004e6f0000206900006e6300006f6d0000ee
:104bd400696e0000672000006d65000073730000bb
:104be40061670000652c00002072000065730000fe
:104bf40065740000696e000067200000746800009e
:104c0400652000005769000046690000206d00001f
:104c14006f640000756c0000652e00002e2e0000ed
:104c24000d0a0000000d00000a2a00002a2a0000d4
:104c340041700000706c0000796900006e6700002c
:104c440020460000697200007374000020420000d6
:104c54006f6f0000742a00002a2a00000d0a000069
:104c64000041000054450000300d00000a0000001f
:104c7400415400002b430000574d00004f440000f6
:104c8400453d0000310d00000a00000041540000c1
:104c94002b430000574a0000415000003d22000011
:104ca40025730000222c000022250000732200003e
:104cb4000d0a0000006d0000616900006e00000034
:104cc4002b490000504400002c00000000000000ac
:020000040000fa
:104cd4000000fa000000eb00f0c98800c093210036
:104ce4008040eb00014878000080fa0000000600d4
:104cf4000200fa00000f78000000eb00f0c9880001
:104d0400c0932100104078000004e0000d00320040
:104d1400c093210010407800e14f500009003a0090
:104d24001e007800e30f500006003a00c0932100f3
:104d340021c0b3000148780000ca80004106200069
:104d440050120700c0932100104078000080fb003f
:104d54000080fa00000006000400fa00000f78004a
:104d6400110798009e00780021ca88009e009000d8
:104d740031ca8800209421008040eb00014878006b
:104d84000080fa00000006000200fa00000f78001c
:104d940020942100104078000004e00007003a004d
:104da4001e007800e50f500019003a0020942100fd
:104db40011c0b30001487800150037002094210089
:104dc40010407800e14f500007003a001e007800c0
:104dd400e60f50000e003a002094210021c0b300d9
:104de400014878000a003700209421001040780020
:104df400e24f500006003a001e007800e40f500015
:104e040003003a00209421008040eb000148780020
:104e140020942100104078000080fb000080fa00fc
:104e2400000006000000fa00809421008040eb009e
:104e3400014878000000eb0050ca88000080fa00a6
:104e4400000006000200fa00000f780080942100a0
:104e5400104078000004e0000a003a008094210029
:104e640011c0b3000148780063ce22001200200074
:104e7400411f2000d0f229008d11070060ca88006c
:104e8400150037008094210010407800e14f500055
:104e940007003a001e0078000000e00004003a0019
:104ea4008094210021c0b300014878000a00370033
:104eb4008094210010407800e24f500006003a0030
:104ec4001e0078000000e00003003a0080942100f6
:104ed40031c0b3000148780080942100104078006c
:104ee4000080fb000080fa00000006000400fa00c5
:104ef400100798000000eb00000f78001500370041
:104f04001e0078008000400040ed21000080400039
:104f140010007800800078001e009000d8f507008b
:104f24000000e0000a003a0040f32900ed04070005
:104f34001e0078008000400040ed21000080400009
:104f440010007800e70407001e0078000500370011
:104f54001e0fe8001e007800e70f5000e8ff340041
:104f64000080eb000080fa00000006001000fa0048
:104f7400700798007e00900010019000a00190003e
:104f840052079800630798005e009000000f7800b5
:104f940080f42900d30407001e007800d104070020
:104fa4008094210010407800e34f50000b003a0039
:104fb400c1f529001e007800cf0907000000e000b9
:104fc40006003a0020f62900c604070010c0b3000a
:104fd40000e8b7001e007800a40107001e00780056
:104fe400c2ff0700100798001e00900040ff070052
:104ff40020079800c093210010407800e24f500031
:105004000b003a001e0090005fff07003007980075
:105014002094210010407800e24f500006003a002e
:105024001e00900087ff0700400798000300370028
:105034000000000001003700000000000080fa00ba
:10504400000006000a00fa003007980041079800a3
:105054003e0090009af50700100798001e0090008b
:10506400e30f500002003c000000eb007800370022
:105074003e009000630040009040780030c7b300c9
:1050840080cf500027003a0050168000680060006e
:105094000000e00002003a0053f629000100370046
:1050a40083f6290050168000640060000000e000d0
:1050b40002003a0052f629000100370082f6290066
:1050c40010168000700060000000e00002003a004a
:1050d40051f629000100370081f6290010168000de
:1050e400640060000000e00002003a0050f629006d
:1050f4000100370080f62900831f7800821f7800a2
:10510400811f7800801f7800c0f62900801f780076
:105114004e00900077f50700ea8757001000200042
:105124004b0037003e0090006300400010407800c0
:105134008040780000cdb30000c040004047980094
:105144004e409000e34f5000020036000000eb0098
:105154003f0037001e009000e40f500009003a00a1
:105164004e409000c50d07000004e000020032002c
:1051740050f629000100370080f62900000f78005e
:10518400290037003e0090006400400041012a00dd
:105194003bf507000000e00005003a0050f6290046
:1051a400000f78004e409000350d07001e003700b8
:1051b4003e0090006400400071012a0030f50700b1
:1051c4000000e00005003a0080f62900000f780096
:1051d4004e409000430d0700130037003e0090003e
:1051e40064004000b1012a0025f507000000e0003a
:1051f4000b003a004e409000530d07004e409000c3
:105204009e0d07000004e0000200320050f6290061
:105214000100370080f62900000f780002003700f3
:105224000000eb000a0037004e4090000080fb00b5
:105234009e1f7800801f7800f0012a00801f7800ec
:105244004e0090002bf50700e68757001000200061
:105254000080fa00000006000a00fa0030079800f7
:10526400410798003e00900015f50700000f7800f4
:105274001e007800e40f5000020032000000eb0032
:105284004f0037003e0090006300400090407800db
:1052940030c7b30080cf50002a003a005116800076
:1052a40000082000008060000000e00002003a00d6
:1052b40053f629000100370083f6290051168000b7
:1052c40000042000008060000000e00002003a00ba
:1052d40052f629000100370082f629005116800099
:1052e40000022000008060000000e00002003a009c
:1052f40051f629000100370081f62900501680007c
:10530400700060000000e00002003a0050f629003e
:105314000100370080f62900831f7800821f78007f
:10532400811f7800801f7800e0062a00801f780023
:105334004e009000eff40700ea87570010002000a9
:105344001f0037003e0090006300400010407800ca
:105354008040780000cdb30000c040002047980092
:105364002e409000e34f5000020036000000eb0096
:10537400130037002e4090000f0f07000004e000d8
:105384000200320050f629000100370080f629009f
:10539400200798002e4090000080fb00ae00900093
:1053a400811f7800801f780050112a00801f780028
:1053b4004e009000cff40700e6875700100020004d
:1053c4000080fa00000006000a00fa003007980086
:1053d400410798003e009000b9f40700000f7800e0
:1053e4001e007800e40f5000020032000000eb00c1
:1053f400370037003e009000630040009040780082
:1054040030c7b30080cf500013003a004081200021
:10541400b0019000408120002001900040812000d4
:10542400900090004081200010007800831f7800d5
:10543400821f7800811f7800801f780030162a00b0
:10544400801f78004e009000aaf40700ea875700f6
:10545400100020001e0037003e0090006300400052
:10546400104078008040780000cdb30000c04000b8
:10547400204798002e409000e34f50000200360071
:105484000000eb00120037002e4090000080fb006b
:10549400418120000000400000804000100078009e
:1054a400200798002e4090000080fb00ae00900082
:1054b400811f7800801f780010212a00801f780047
:1054c4004e0090008bf40700e68757001000200080
:1054d4000080fa00000006000400fa00889fbe0065
:1054e4008a9fbe00000f78001107980001262a0049
:1054f4001e00780062f407000000e00002003200a1
:105504000000eb0055003700501680006800600072
:105514000000e00002003a0057f6290001003700bd
:1055240087f6290050168000640060000000e00047
:1055340002003a0056f629000100370086f62900d9
:1055440010168000700060000000e00002003a00c5
:1055540055f629000100370085f629001016800051
:10556400640060000000e00002003a0054f62900e4
:105574000100370084f6290040812000b005900026
:10558400408120002005900040812000900490007c
:10559400408120001004780051168000000820008b
:1055a400008060000000e00002003a0053f6290089
:1055b4000100370083f62900511680000004200002
:1055c400008060000000e00002003a0052f629006a
:1055d4000100370082f629005116800000022000e5
:1055e400008060000000e00002003a0051f629004b
:1055f4000100370081f62900501680007000600019
:105604000000e00002003a0050f6290001003700d3
:1056140080f62900871f7800861f7800851f780090
:10562400841f78008b1f78008a1f7800891f7800f8
:10563400881f7800831f7800821f7800811f7800fc
:10564400801f780040262a00801f78001e009000ea
:1056540028f40700fa875700100020004f05be0009
:105664004f04be000080fa00000006003400fa0077
:10567400101f9800e70047001f0009008058eb0046
:105684008094210010407800e34f50000400320061
:1056940010408000bd0f07000228ef00c80037004b
:1056a400104080000000e00006003a0083b32200ae
:1056b40012002000a1002000f0422a007c0f070005
:1056c4001040880000c8bf00e14f5000a0003a001d
:1056d4009e1890001107980041432a001e00900074
:1056e400050807004047980061432a001e00900007
:1056f4000108070050479800c1432a001e0090008b
:10570400fd070700604798004e4090000080fb00b2
:105714000000e8009e0090000080400010407800e7
:105724008040780000cdb30000c0400008e8b70016
:1057340021442a001e009000ef0707000000e0004b
:10574400050035000068ef00104080008f0f07004f
:105754000228ef009a0037005e4090006540400048
:10576400504798006e4090000040e9006047980060
:105774006e4090008080fb005e4090000080fb0043
:1057840000805000800078005e4090000080fb00a4
:105794001e019000000041000101780080007800a3
:1057a400e0942100aff307006e4090008080fb007e
:1057b4005e4090000080fb0000805000e1942100d6
:1057c4000041eb00827078000000eb00000f7800cd
:1057d400800220000e004000ee040700e1442a008d
:1057e400e0942100a6f307000000e0000e003a0058
:1057f400de1190006e119000fe1090000e189000c3
:10580400831f7800821f7800811f7800801f780032
:1058140030452a00801f7800e0962100b5f3070088
:10582400ea8757002a003700114a2a00e094210031
:10583400b10707000000e00005003a00e1962100ee
:10584400e0942100fffd0700000f780020003700de
:10585400514a2a00e0942100a70707000000e00055
:1058640005003a00e1962100e0942100d6fe0700ed
:10587400000f780016003700914a2a00e0942100b6
:105884009d0707000000e00005003a00e1962100b2
:10589400e094210070fe0700000f78000c00370030
:1058a40001262a00e0942100930707000000e0008d
:1058b40005003a00e1962100e094210006ff07006c
:1058c400000f7800020037000000eb00000f7800a2
:1058d4001e0078000000e00007003a00e094210078
:1058e400801f7800d04a2a00801f7800e0962100ab
:1058f40080f30700e48757000041800070f307003d
:105904008000780008c8bf000081fb0067004700e2
:10591400811f7800821f780011512a00811f7800ae
:1059240074f30700e687570067004700b2020700d8
:1059340020c0b30000e8b70010408000210320001d
:10594400500f0700400120003f1007001c003700e3
:1059540000c8bf00e24f500008003a000041800038
:10596400a502070030c0b30000e8b7001040800073
:10597400810c2000430f07001100370000c8bf004e
:10598400e34f50000e003a0008c8bf008080fb00bf
:1059940067004700811f780041522a00811f780068
:1059a40054f30700e487570067004700920207009a
:1059b4000068ef0010408000f40e07000228ef009a
:1059c4000080fa00000006000200fa00000f7800d0
:1059d40080942100104078000080fb00e10f50000b
:1059e4000d003200e10f500003003c000000e00015
:1059f4000600320015003700e20f500009003200a3
:105a0400e30f50000a0032001000370060ca800023
:105a1400de0e07000d00370050532a0076020700ff
:105a24000a00370030542a007302070007003700c9
:105a340070552a007002070060ca8000d30e070068
:105a4400e001200000100700000000000080fa00c0
:105a5400000006003600fa00201f98000e007800af
:105a64004c040700c0932100104078000004e000bb
:105a74000a003a0020562a001a020700c0932100a7
:105a840011c0b3000148780020582a005a020700c8
:105a940000ca800081bb2000fa0e07002e0090008f
:105aa4006101b8002040800031408000800f510027
:105ab400818f59005000360000c8bf000004e00088
:105ac40031003a006a004700320407007e02900069
:105ad4008e0990001e099000f1c9800074004700ef
:105ae400841f7800831f7800821f7800811f78004c
:105af400b1582a00811f7800fef20700ea87570098
:105b040074004700f7010700005b2a00f501070055
:105b1400c0932100104078000080fb00800040000a
:105b240040ee21000080400010007800ed010700e5
:105b3400005c2a00eb01070020942100104078004b
:105b44000080fb0080004000a0ee210000804000a7
:105b540010007800e3010700005d2a00e10107005e
:105b640080942100104078000080fb0080004000f9
:105b740000ef21000080400010007800d9010700e8
:105b840020f62900d7010700f0c980000000e800d2
:105b9400f0c98800f0c98000ea0f500003003a0001
:105ba40070552a001402070013003700f0c9800062
:105bb400eb0f5000100036000000eb00f0c9880025
:105bc400c09321008040eb0001487800005e2a0069
:105bd400c4010700c09321008040eb000148780015
:105be400209421008040eb0001487800809421003b
:105bf4008040eb00014878002e0090008000eb000c
:105c040020408800314088000080fa00000006002f
:105c14003000fa0050168000700060000000e000c0
:105c240019003a0050612a00ae01070030632a00cf
:105c3400f101070000a02600810120006a1107007d
:105c4400a0632a00ec01070000a0260081012000c7
:105c540065110700f1408000e0408000811f78005a
:105c6400801f780080642a00801f78000e0078006e
:105c7400a0f20700e68757000e007800de01070057
:105c8400800c2000700f07000080fa00000006005e
:105c94000000fa004611070000402200410f2000d6
:105ca4005111070000202c0011002000850007007e
:105cb40000202c001100200006010700440a070000
:105cc400f01007008f0c0700030f070024040700df
:105cd400fffb0700f1408000e04080001efc07004d
:105ce40050fc070000002c00a15524001a0f0700e7
:105cf40040012000540f070000002000a14f2400a1
:105d0400150f0700c3d22200120020004106200014
:105d1400d0652a00e60d070000ca8800bcff070012
:105d2400807b22006303070080072000460f0700e2
:105d34000a050700ab100700fdff37000200fa0058
:105d4400000f7800a0a980000000e00014003200d9
:105d540091a98000004b2100008040009040780011
:105d64001e0078000148780090a980000000e80037
:105d740090a9880091a98000f0072000808f50002e
:105d8400020036000000eb0090a98800a0a9800062
:105d94000000e900a0a988001000200001003700dd
:105da4000000eb000080fa00000006000200fa0088
:105db400000f7800d0c980000000e0001400320019
:105dc400c1c98000605321000080400090407800e9
:105dd4001e00780001487800c0c980000000e80077
:105de400c0c98800c1c98000f03f2000808f5000e6
:105df400020036000000eb00c0c98800d0c9800052
:105e04000000e900d0c9880010002000010037001c
:105e14000000eb000080fa00000006000200fa0017
:105e24000000eb00000f780005003700004b210054
:105e34001e0040008040eb00014878001e0fe8007f
:105e4400f00720009e007800808f5000f7ff340098
:105e54000000eb0090a988000000eb0080a98800f6
:105e64000000eb00a0a988000080fa0000000600f2
:105e74000200fa000000eb00000f78000500370074
:105e8400605321001e0040008040eb000148780070
:105e94001e0fe800f03f20009e007800808f500025
:105ea400f7ff34000000eb00c0c988000000eb00dd
:105eb400b0c988000000eb00d0c988000080fa0057
:105ec400000006000800fa00200798003107980037
:105ed40014c0b3002e019000be01900000582200af
:105ee40001002000800f5100818f590001003e0005
:105ef4000042eb00044f78009b100700213580001e
:105f040000fe2f0000806000c000b3002035880030
:105f1400c982a80061368000f00f2e0080806000e6
:105f2400003020000100700060368800c9a2a9007a
:105f34009610070021e2a80021a2a9002182a9004d
:105f44002162a90001118000f0cf2f0000806000c1
:105f54000011880020e2a90020c2a90020a2a90003
:105f64002082a9009e40780061c060000080fb0090
:105f7400610060004300dd00011180000130a100d8
:105f840001007000001188000111800090ff2f00b3
:105f940000806000001188002002a9001e407800e3
:105fa4000004e000110032002e019000be019000b8
:105fb4004218dd00ce10de00810070004210dd00ca
:105fc400d5f007000001be000040220041b72400c4
:105fd40072f007000200200003f8230011f007000c
:105fe400b2f0070000007800100037002e01900086
:105ff400be0190004418dd00cc10de00810070006a
:106004004410dd00c4f007000001be00004022007f
:1060140041b7240061f007000200200003f82300c8
:1060240000f00700a1f0070000007800401188008c
:106034002342a8002362a90023e2a90023a2a90005
:1060440022e2a90022c2a9009560a8009580a900b7
:106054002342a800100280004500de006740600073
:106064000080fb001007980011028000000e200041
:1060740001007000100288000000000002042000eb
:106084006183200060872000a40e070002402000e6
:106094005188200060c82000a00e07001e00900058
:1060a40000407800674060000080fb0067006000eb
:1060b4004500dd0012028000f1f12f008100610033
:1060c4000100700010028800000000000080fa0047
:1060d400000006000800fa00200798003107980025
:1060e40014c0b3002e019000be019000005822009d
:1060f40001002000800f5100818f590001003e00f3
:106104000042eb00044f780017100700313580007f
:1061140000fe2f0000806000e000b30030358800ee
:10612400c9c2a80071368000f00f2e008080600084
:10613400005020000100700070368800c9e2a900f8
:106144001210070031e2a80031a2a9003182a9008f
:106154003162a90081118000f0cf2f00008060001f
:106164008011880030e2a90030c2a90030a2a90041
:106174003082a9009e40780061c060000080fb006e
:10618400610060004300dd00811180000130a10046
:1061940001007000801188008111800090ff2f00a1
:1061a40000806000801188003002a9001e40780041
:1061b4000004e000110032002e019000be019000a6
:1061c4004218dd00ce10de00810070004210dd00b8
:1061d40051f007000001be000040220041b7240036
:1061e400eeef07000200200003f823008def070004
:1061f4002ef0070000007800100037002e019000f8
:10620400be0190004418dd00cc10de008100700057
:106214004410dd0040f007000001be0000402200f1
:1062240041b72400ddef07000200200003f823003b
:106234007cef07001df0070000007800c011880003
:106244003342a8003362a90033e2a90033a2a900b3
:1062540032e2a90032c2a90097c0a80097e0a900c1
:106264003342a800100280004500de006740600051
:106274000080fb001007980011028000000e20002f
:10628400010070001002880000000000024020009d
:1062940041c9200040092100200e070002402000cf
:1062a400310a2100404a21001c0e07001e00900004
:1062b40000407800674060000080fb0067006000d9
:1062c4004500dd0012028000f1f12f008100610021
:1062d4000100700010028800000000000080fa0035
:1062e400000006000800fa00300798000000eb00e8
:1062f400000f7800be0090001107980004003700da
:106304001e0fe8001e0090000000e800100798002f
:106314001e009000104078000004e000f8ff3a00ee
:106324006064800001402000008050009e0f5000f7
:1063340002003e000000eb002d003700be0090007c
:10634400110798001e003700100280004500de008f
:10635400674060000080fb00200798001102800065
:10636400000e2000010070001002880000000000f0
:106374001e009000104078009e0090008100e8000c
:10638400110798008040780060c82000fb0d0700ca
:106394002e00900000407800674060000080fb0001
:1063a400670060004500dd0012028000f1f12f005b
:1063b40081006100010070001002880000000000ec
:1063c4001e009000104078000004e000deff3a0058
:1063d400a104800000002100008060000000e000b3
:1063e40002003a008580a8009580a8001e0078006d
:1063f4000080fa00000006000800fa003007980048
:106404000000eb00000f7800be0090001107980018
:10641400040037001e0fe8001e0090000000e80092
:10642400100798001e009000104078000004e0005f
:10643400f8ff3a00606480000140200000805000b2
:106444009e0f500021003e000000eb002c0037009e
:10645400100280004500de00674060000080fb0001
:106464002007980011028000000e20000100700037
:1064740010028800000000003e00900010407800e8
:10648400be0090008100e800310798008040780049
:10649400404a2100b90d07002e009000004078000a
:1064a400674060000080fb00670060004500dd007d
:1064b40012028000f1f12f008100610001007000e0
:1064c40010028800000000000100370000000000f6
:1064d4003e009000104078000004e000dcff3a0029
:1064e400b104800000002800008060000000e0008b
:1064f40002003a0087e0a80097e0a8001e00780098
:106504000080fa00000006000800fa002007980046
:1065140031079800606480000140200080805000b2
:106524003e009000808f500002003e000000eb000f
:106534002d0037000000eb00000f78001e0037002c
:10654400100280004500de00674060000080fb0010
:106554001007980011028000000e20000100700056
:1065640010028800000000001e007800ae009000b9
:1065740000804000104078008040780060c820000f
:106584007e0d07001e009000004078006740600008
:106594000080fb00670060004500dd0012028000ff
:1065a400f1f12f00810061000100700010028800e9
:1065b400000000001e0fe8009e0078003e009000de
:1065c400808f5000deff3900a1048000000021000c
:1065d400008060000000e00002003a008580a8000e
:1065e4009580a8003e0090000080fa00000006009c
:1065f4000800fa00300798003e00900090009000d8
:10660400606480000240200000005100808f500030
:10661400020039000000eb00330037003e00900018
:1066240090007800110798000000eb00000f78003c
:106634001f003700100280004500de006740600044
:106644000080fb002007980011028000000e20004b
:106654000100700010028800000000001e0090007d
:10666400104078009e0090008100e8001107980017
:106674008040780060c82000400d07002e00900084
:1066840000407800674060000080fb006700600005
:106694004500dd0012028000f1f12f00810061004d
:1066a4000100700010028800000000001e0fe800c6
:1066b4009e0078003e00900010009000808f5000f3
:1066c400dcff3900a104800000002100008060008c
:1066d4000000e00002003a008580a8009580a80030
:1066e4003e009000100090000080fa0000000600b8
:1066f4000400fa002047980061648000f03f200005
:10670400808f5000020036000000eb0021003700ab
:10671400100280004500de00674060000080fb003e
:10672400000f780011028000000e200001007000ac
:106734001002880000000000ae40900060c82000f5
:106744000e0d07001e0078000040780067406000ce
:106754000080fb00670060004500dd00120280003d
:10676400f1f12f0081006100010070001002880027
:1067740000000000a10480000000210000806000ef
:106784000000e00002003a008580a8009580a8007f
:10679400100020000080fa00000006000800fa0043
:1067a400200798003107980050a580000140200080
:1067b400808050003e009000808f500002003e0018
:1067c4000000eb002d0037000000eb00000f780004
:1067d4001e003700100280004500de0067406000a4
:1067e4000080fb001007980011028000000e2000ba
:1067f4000100700010028800000000001e007800f4
:10680400ae00900000804000104078008040780086
:10681400404a2100d90c07001e0090000040780077
:10682400674060000080fb00670060004500dd00f9
:1068340012028000f1f12f0081006100010070005c
:1068440010028800000000001e0fe8009e0078007f
:106854003e009000808f5000deff3900b1048000bc
:1068640000002800008060000000e00002003a0000
:1068740087e0a80097e0a8003e0090000080fa009e
:10688400000006000800fa00300798003e0090005f
:106894009000900050a580000240200000005100ac
:1068a400808f5000020039000000eb0033003700f5
:1068b4003e00900090007800110798000000eb0063
:1068c400000f78001f003700100280004500de0032
:1068d400674060000080fb002007980011028000e0
:1068e400000e20000100700010028800000000006b
:1068f4001e009000104078009e0090008100e80087
:106904001107980080407800404a21009b0c070042
:106914002e00900000407800674060000080fb007b
:10692400670060004500dd0012028000f1f12f00d5
:106934008100610001007000100288000000000066
:106944001e0fe8009e0078003e00900010009000aa
:10695400808f5000dcff3900b10480000000280063
:10696400008060000000e00002003a0087e0a80018
:1069740097e0a8003e009000100090000080fa000c
:10698400000006000400fa002047980051a580008a
:10699400f03f2000808f5000020036000000eb0022
:1069a40021003700100280004500de0067406000cf
:1069b4000080fb00000f780011028000000e200010
:1069c400010070001002880000000000ae4090003a
:1069d400404a2100690c07001e007800004078003e
:1069e400674060000080fb00670060004500dd0038
:1069f40012028000f1f12f0081006100010070009b
:106a04001002880000000000b1048000000028008b
:106a1400008060000000e00002003a0087e0a80067
:106a240097e0a800100020000080fa000000060093
:106a34000400fa00000f7800110798009e00780007
:106a4400614088009e00900031e688000080fa00d2
:106a5400000006000200fa00000f78009e00780093
:106a6400f1e588000080fa00000006000200fa0048
:106a7400000f78009e00780041e688000080fa004c
:106a8400000006000200fa00000f78009e00780063
:106a940001e688000080fa00000006000200fa0007
:106aa400000f78009e00780011e688000080fa004c
:106ab400000006000200fa00000f78009e00780033
:106ac40051e688000080fa00000006000200fa0087
:106ad400000f78009e00780021e688000080fa000c
:106ae400000006000200fa00000f78009e00780003
:106af40061e688000080fa00000006000000fa0049
:106b040080e680000000e80080e6880081e68000de
:106b1400703e2000808f50001c0036000000eb0007
:106b240080e6880090e680000000e80090e6880097
:106b340091e68000b0032000808f500013003600df
:106b44000000eb0090e68800a0e680000000e8006a
:106b5400a0e68800a1e68000b0032000808f5000ea
:106b64000a0036000000eb00a0e68800b0e68000d2
:106b74000000e800b0e68800b0e68000f70f50009f
:106b8400020036000000eb00b0e688000080fa0046
:106b9400000006000000fa0000017800e0cc2100ab
:106ba40082007800b0187800a0107800e4804000db
:106bb40064004000b0187800a0107800e480400021
:106bc40064004000900878008180e8000080e800bc
:106bd400020078000080fa00000006000400fa00b9
:106be400004f780011479800224798001e80fb0050
:106bf400b0e688001e4090000080fb00a0e68800fc
:106c04002e4090000080fb0090e688000000eb001e
:106c140080e688000000eb0070e688000080fa003f
:106c2400000006000000fa00889fbe008a9fbe0094
:106c3400c0e58000d1e58000b7ed07000004be0088
:106c4400000880008000eb00b3ed07000005be00e3
:106c5400100880008000eb00afed07000001be00cb
:106c64000a00be004ded07000001be000800be0092
:106c7400edec07004f05be004f04be000080fa0093
:106c8400000006000000fa00c0e58000d1e58000a5
:106c9400823e20000289b900020178006002b90036
:106ca4008401780003014100833e20000300b80002
:106cb4000101410082007800020880000201d10035
:106cc4008001eb0000004100818049000080fa004f
:106cd400000006000000fa00c0e58000d1e5800055
:106ce4000080fa00000006000200fa00b0e580000f
:106cf400000f78000000eb00b0e588001e0078006b
:106d0400004078000080fa00000006000000fa004d
:106d140004c1a9000421a90021088000f0fc2f006f
:106d2400008060000040a00020088800007d200052
:106d3400100888000021ef009460a80005e1a80075
:106d44000080fa00000006000200fa00000f78003c
:106d54009e007800514088000080fa000000060080
:106d64000000fa000000eb0000e688000000eb00e1
:106d7400f0e588000000eb0020e688000000eb004e
:106d840010e68800e1ff07000080fa00000006001a
:106d94000a00fa00604798004107980020662a001c
:106da400200798000fc8bf000004e00005003d0064
:106db4000f68ef001068ef001168ef001268ef0031
:106dc4001368ef0013c8bf000080fb00e10f500000
:106dd40027003200e10f500003003c000000e000f7
:106de40006003200a9003700e20f500030003200e4
:106df400e30f50006d003200a400370010c8bf003c
:106e04000080fb00ae0090000080400090407800bd
:106e14006e40900080cf500012003a000fc8bf00af
:106e24008080fb00ee41900082d5210003f17800c0
:106e34000040e8000fe8b70010c8bf000040e800b9
:106e440010e8b70010c8bf00e44f500088003600b7
:106e54001068ef0013c8bf000040e80013e8b70053
:106e64008a0037000f68ef001068ef0087003700d2
:106e74000fc8bf008080fb00ee41900082d5210046
:106e840003f178000040e8000fe8b700ee409000fe
:106e9400c0c2b30080cf500077003a001168ef0001
:106ea40013c8bf000040e80013e8b70077003700bc
:106eb4000fc8bf008080fb00ee41900082d5210006
