:020000040000fa
:08000000020c040000000000e6
:020000040000fa
:100008000a1000000a1000000a1000000a10000080
:100018000a1000000a1000000a1000000a10000070
:100028000a1000000a1000000a1000004e0f00001d
:100038000a1000000a1000000a1000000a10000050
:10004800f60f00000a1000000a100000da0c000089
:100058009a0d0000aa0f00000a1000000a10000004
:100068000a1000000a1000000a1000000a10000020
:100078000a1000000a1000000a1000000a10000010
:100088000a1000000a1000000a1000000a10000000
:100098000a1000000a100000180e0000d80e000018
:1000a8000a1000000a1000000a1000000a100000e0
:1000b8000a1000000a1000000a1000000a100000d0
:1000c8000a1000000a1000000a1000000a100000c0
:1000d8000a1000000a1000000a1000000a100000b0
:1000e8000a1000000a1000000a1000000a100000a0
:1000f8000a1000000a1000000a1000000a10000090
:100108000a1000000a1000000a1000000a1000007f
:100118000a1000000a1000000a1000000a1000006f
:100128000a1000000a1000000a1000000a1000005f
:100138000a1000000a1000000a1000000a1000004f
:100148000a1000000a1000000a1000000a1000003f
:100158000a1000000a1000000a1000000a1000002f
:100168000a1000000a1000000a1000000a1000001f
:100178000a1000000a1000000a1000000a1000000f
:100188000a1000000a1000000a1000000a100000ff
:100198000a1000000a1000000a1000000a100000ef
:1001a8000a1000000a1000000a1000000a100000df
:1001b8000a1000000a1000000a1000000a100000cf
:1001c8000a1000000a1000000a1000000a100000bf
:1001d8000a1000000a1000000a1000000a100000af
:1001e8000a1000000a1000000a1000000a1000009f
:0801f8000a1000000a100000cb
:020000040000fa
:100208000a1000000a1000000a1000000a1000007e
:100218000a1000000a1000000a1000000a1000006e
:100228000a1000000a1000000a1000004e0f00001b
:100238000a1000000a1000000a1000000a1000004e
:10024800f60f00000a1000000a100000da0c000087
:100258009a0d0000aa0f00000a1000000a10000002
:100268000a1000000a1000000a1000000a1000001e
:100278000a1000000a1000000a1000000a1000000e
:100288000a1000000a1000000a1000000a100000fe
:100298000a1000000a100000180e0000d80e000016
:1002a8000a1000000a1000000a1000000a100000de
:1002b8000a1000000a1000000a1000000a100000ce
:1002c8000a1000000a1000000a1000000a100000be
:1002d8000a1000000a1000000a1000000a100000ae
:1002e8000a1000000a1000000a1000000a1000009e
:1002f8000a1000000a1000000a1000000a1000008e
:100308000a1000000a1000000a1000000a1000007d
:100318000a1000000a1000000a1000000a1000006d
:100328000a1000000a1000000a1000000a1000005d
:100338000a1000000a1000000a1000000a1000004d
:100348000a1000000a1000000a1000000a1000003d
:100358000a1000000a1000000a1000000a1000002d
:100368000a1000000a1000000a1000000a1000001d
:100378000a1000000a1000000a1000000a1000000d
:100388000a1000000a1000000a1000000a100000fd
:100398000a1000000a1000000a1000000a100000ed
:1003a8000a1000000a1000000a1000000a100000dd
:1003b8000a1000000a1000000a1000000a100000cd
:1003c8000a1000000a1000000a1000000a100000bd
:1003d8000a1000000a1000000a1000000a100000ad
:1003e8000a1000000a1000000a1000000a1000009d
:0803f8000a1000000a100000c9
:020000040000fa
:10180000010000008fe421000e7f22000e018800fd
:1018100000000000000020000000e0000200320094
:10182000000120002002880014000700fb010700cf
:101830000000e00003003a00806d24000100200059
:10184000020037000000200001002000810f70001e
:101850000100320014000700000020000000e0003a
:10186000020032000000020000000000e837020021
:10187000000000000040da000000fe004440a90023
:10188000803d20000000e000030032000000200046
:10189000a00188004440a800000006008a1f7800cc
:1018a0008b1f7800000006009101880080047800fa
:1018b0000000eb001a003700e284440032a0b400bc
:1018c0009905ba00e284440032a0b4009906ba0037
:1018d000e284440032a0b4000006eb00476fde0053
:1018e000fd07b200636ce10003003a00ebff070064
:1018f0000000eb000a003700606ce10004003a00d1
:10190000005deb008b05e900fdff3e0004003700a1
:101910006168e100010032000086eb000b00070067
:1019200019c7ba001905ba000e04e00003003a0016
:101930000a00e000e0ff3a0000000600fe07b200e7
:101940009e0188008a047800f5ff3700395dba00ef
:101950008b05e9000c003200295dba008b05e90017
:10196000080032000c00e00003003a00e28444006a
:1019700032a0b400f5ff370019ddba008b05e9008d
:10198000faff3a008904e800e184440032a0b40080
:101990000000060000000000000000000000000041
:1019a0000000000000000000000000000000000037
:1019b000000000003600f800809fbe00829fbe003d
:1019c000849fbe00869fbe003400f8000000200007
:1019d000a00188000400fa008560a900b0832000ff
:1019e00011c0b300014878003011800080407800b9
:1019f000a083200001487800100280004500de002e
:101a0000674060000080fb00000f7800110280003a
:101a1000000e20000100700010028800000000008d
:101a2000a08320001040780080407800c08720000c
:101a3000201c07001e00780000407800674060000e
:101a40000080fb00670060004500dd00120280009e
:101a5000f1f12f0081006100010070001002880088
:101a600000000000100280004500de0067406000ba
:101a70000080fb001007980011028000000e20007b
:101a8000010070001002880000000000b2a9800070
:101a9000a083200090407800604b210000004100ae
:101aa00001487800b0a980000000e800b0a98800d3
:101ab000b1a98000f0072000808f5000020036009e
:101ac0000000eb00b0a98800d1a98000f007200039
:101ad000808f500003003e00d0a980000000e80085
:101ae000d0a988001e009000004078006740600088
:101af0000080fb00670060004500dd0012028000ee
:101b0000f1f12f00810061000100700010028800d7
:101b1000000000000080fa003400f9004f03be000e
:101b20004f02be004f01be004f00be003600f9005c
:101b3000004006003600f800809fbe00829fbe0075
:101b4000849fbe00869fbe003400f8000000200085
:101b5000a00188000400fa008580a9009088200078
:101b600011c0b30001487800100280004500de007b
:101b7000674060000080fb00000f780011028000c9
:101b8000000e20000100700010028800000000001c
:101b90006300470080007800c0c82000f31b0700e6
:101ba000204798001e0078000040780067406000e1
:101bb0000080fb00670060004500dd00120280002d
:101bc000f1f12f0081006100010070001002880017
:101bd000000000002e4090000004e00008003200e9
:101be000be40900080882000014878008088200056
:101bf000104078000080fb002011880004003700ae
:101c00009580a900a088200011c0b3000148780089
:101c10000080fa003400f9004f03be004f02be00fe
:101c20004f01be004f00be003600f9000040060024
:101c30003600f800809fbe00829fbe00849fbe00d9
:101c4000869fbe003400f80000002000a00188003c
:101c50000400fa0087c0a90090c9200011c0b30099
:101c600001487800b01180008040780080c92000d1
:101c700001487800100280004500de0067406000e7
:101c80000080fb00000f780011028000000e200091
:101c900001007000100288000000000080c92000d0
:101ca0001040780080407800a0092100811b0700c7
:101cb0001e00780000407800674060000080fb0054
:101cc000670060004500dd0012028000f1f12f0086
:101cd0008100610001007000100288000000000017
:101ce000100280004500de00674060000080fb00bd
:101cf0001007980011028000000e20000100700003
:101d00001002880000000000e2c9800080c92000a5
:101d100090407800c0532100000041000148780045
:101d2000e0c980000000e800e0c98800e1c9800047
:101d3000f03f2000808f5000020036000000eb00d2
:101d4000e0c9880001ca8000f03f2000808f500069
:101d500003003e0000ca80000000e80000ca8800be
:101d60001e00900000407800674060000080fb008b
:101d7000670060004500dd0012028000f1f12f00d5
:101d80008100610001007000100288000000000066
:101d90000080fa003400f9004f03be004f02be007d
:101da0004f01be004f00be003600f90000400600a3
:101db0003600f800809fbe00829fbe00849fbe0058
:101dc000869fbe003400f80000002000a0018800bb
:101dd0000400fa0087e0a900700a210011c0b300d6
:101de00001487800100280004500de006740600076
:101df0000080fb00000f780011028000000e200020
:101e0000010070001002880000000000630047001d
:101e100080007800a04a2100541b0700204798004a
:101e20001e00780000407800674060000080fb00e2
:101e3000670060004500dd0012028000f1f12f0014
:101e400081006100010070001002880000000000a5
:101e50002e4090000004e000040032003e4090005c
:101e60000080fb00a01188000400370097e0a90063
:101e7000800a210011c0b300014878000080fa00f8
:101e80003400f9004f03be004f02be004f01be00f8
:101e90004f00be003600f900004006003600f80092
:101ea000809fbe00829fbe00849fbe00869fbe00b2
:101eb0003400f80000002000a00188000000fa00b3
:101ec0008460a9001000200070df880060df8000bf
:101ed0000000e80060df880080df800091df800084
:101ee00061004000e080480080df880091df8800ca
:101ef000a0df80000000e800a0df8800f0df8000a5
:101f00000000e0000b00320061df800090408000a4
:101f100000017800110009008280d8008000fd00d7
:101f20000000e00003003a00f1df8000c0be2100a5
:101f3000010001000080fa003400f9004f03be00e8
:101f40004f02be004f01be004f00be003600f90038
:101f500000400600809fbe003400f8000000200012
:101f6000a00188000000fa0085a0a900a08120003f
:101f70009000780000188000008040008000d100b0
:101f8000a081200001087800a0812000900090002e
:101f900010188000008040008000d100a081200047
:101fa00011009800a0812000a0009000201880005f
:101fb000008040008000d100a08120002100980016
:101fc000a0812000b0009000301880000080400008
:101fd0008000d100a0812000310098000080fa002c
:101fe0003400f9004f00be00004006003400f80045
:101ff000881f780008002000a80188004f0478009e
:102000000000fa008500a9000080fa003400f90001
:10201000004006000040da000000fe00000005005d
:1020200003f0a200889fbe008a9fbe008c1f78002c
:10203000f5000700fc0033006450e1004f0032005f
:102040006420e1005200320003826c0007003b0074
:102050000905d0000306d000820f54000c065d0075
:10206000020039000200320089017800030678007e
:102070008582550004003d000003fd008103fd0042
:102080008502ea008b854200840f720002003b004b
:1020900060001000e08018006011b8000005eb003f
:1020a0007a28e1000a00390006007800c75ddd00eb
:1020b000f707b200878075002d003700828171001c
:1020c0000a017800610560008180d1000080d300a2
:1020d0008502e900f9ff3b000604400087844800c0
:1020e00002003b0060041400e0841c000988a30087
:1020f000070032008a8171008281710061016400f1
:102100008904d1000884d3008b05e800170037004c
:102110000978a30013003a000b00e000130034001c
:102120008b05e9000804440089844c000a447400cb
:102130000978a3000d003a000b00e000070034000e
:102140008b05e9000804440089844c0001003a0032
:102150000b0020000978a300f7ff32000001eb001c
:1021600002003700828171000a0178006b000700cd
:102170000cf0a70001f0a000b40037006420e100db
:1021800002003a00838f6c00b40033000801be00e7
:102190000200be00ad003700889fbe008a9fbe00cf
:1021a0008c1f7800980007009f00330003866c00a6
:1021b0006450e1002e0032006420e1003300320060
:1021c0006150e1002f0032006120e1003100320057
:1021d00085855500eb07b0000900200008042000a9
:1021e000050037000804440089844c000a003100cf
:1021f0000603430087834b000001530081815b008d
:10220000f8ff33000203be000800a00008044400e9
:1022100089844c00f6ff3900c639dd008301730064
:1022200001003200130020008904d1000884d3008b
:102230000998a300050032000800a7000300a000d1
:102240008904d1000884d3008b05e8008904d100fb
:102250000884d3000001eb000281d2002f000700a8
:1022600001f0a1000cf0a70001f0a00077003700fa
:102270006420e100790032000801be000200be00c7
:10228000f7ff37006120e100740032006000b80001
:10229000f3ff37000000200001f82700f0ff3700af
:1022a00014002000a70037000001be004100070015
:1022b0000470a70003f0a10003f8a30013003a0084
:1022c0006509b10010003200090035006928e100fd
:1022d0000200350001002800000005000000400059
:1022e000818048008502e900fcff3a0000000600fa
:1022f000f88f4200050035008100d1000080d30036
:102300008502e800fcff3a00000006008000eb00b8
:10231000000005006011b800a50037008100200012
:10232000618055000b003d000b00200061fe2f0076
:102330000100e1001d003400828171006101640030
:102340008904d1000884d3000000e800faff3a00b5
:102350007100200061006400030070000200600052
:102360000900320061044400e0844c000988a500a3
:10237000050032008b05e8006808e10002003a0021
:102380008904d1000884d300f20f20000258e10034
:1023900005003d00c75ddd00f907b20089807500ca
:1023a00008007800000006000bf827008b0078007a
:1023b00000000500c70ade00f107b200f50fb20009
:1023c00008003200e1cf4200020032000170a0009c
:1023d00024000500810f7000010032000408050090
:1023e00044000500810f700002003a00140005004f
:1023f0008502e9000000400081c04800fcff3b006e
:102400000170a000240005000004be00e9ff0700e1
:102410000003be000405be000200be00e5ff070089
:10242000844f7500000006000200be006450e10009
:10243000050036006420e100020036000968a300b0
:1024400001003a000800be000160a0004f067800bd
:102450004f05be004f04be0000000600f0ff2f0035
:10246000f1ff2700f9ff3700889fbe008a9fbe005a
:102470008c1f7800e4ff0700ebff330003866c003d
:102480006450e100240032006420e10027003200a3
:102490006150e100220032006120e10021003200a1
:1024a0008b854200eb07b1000134b800003ab80058
:1024b0000804420089844a00013ab8000030b8009c
:1024c0008880400009014a000400330000004000f9
:1024d00081804800020149008b05e900c909dd003f
:1024e000830170000100320013002000c814de00d8
:1024f0004814dd004709de001200b200c808de0003
:102500000884700085ff070001f0a1000cf0a7000f
:1025100001f0a000cdff37006120e100cfff3200c5
:102520000801be000200be00f7ff37006150e10065
:10253000fcff3a00c9ff37004c0007000400be0052
:1025400000000600889fbe008a9fbe00841f78009e
:10255000adff07004f00780011003300f0ff2f009f
:10256000838f6c0006003b00040565000a00a7008d
:102570000800370009f0a60010002000080037000e
:10258000820f5400838f5c0003003900100020008c
:1025900001003e000000200009f0a7000000ea0052
:1025a0004f05be004f04be000000e0000000060022
:1025b000889fbe008a9fbe000082700004027100e6
:1025c00004827100260032000004be000200be003a
:1025d0006011b8006b092000950220000182cf0035
:1025e0000a0039000541b1000082cf000700390020
:1025f0000541b1000982cf00040039000541b10056
:102600000882cf00010039000541b10005425200a7
:10261000120032000a003b008281710061016400f7
:102620008100d1000080d3008984d3000884d300c6
:102630008b05e8000442e800f7ff3a000700370086
:102640000804440089844c00000048008180480050
:102650008b05e9000442e900f9ff3a002fff07006b
:102660004f05be004f04be00000006006022b80007
:10267000060220000000d0008180d2000482d20037
:102680008582d2000000a0000202520083825a001c
:10269000030031000202420083824a000000a100d0
:1026a0000603e900f3ff3a0000000600800178000d
:1026b00002003700b15978000201e9000200e00091
:1026c000fcff3a0000000600020037000204e000b0
:1026d0000b00320081017800000278003041780060
:1026e000b14f5100f9ff3200100020001442780071
:1026f000934f5200030031000080eb000000060001
:102700000000eb0000000600800078000101780066
:102710003104e000fdff3a00000051000000060017
:10272000889fbe0081047800194478000804e00006
:102730000e00320006003700d24178000304e000aa
:102740000a003200d1cf1100fbff32000000e80088
:102750008800fb00070007000000e00003003200d3
:102760000901780080007800f3ff37004f04be00b5
:10277000000006000001eb00030037000201e80042
:102780000404e000070032006103b8006112b800e1
:102790008601420066427a00814f5200f7ff3a00fc
:1027a000010037008001eb00030078000000060004
:1027b000881f78000204780008017800bbff07003a
:1027c000080040004f047800000006000000fa00f6
:1027d000881f780000047800ea8157003fb997000d
:1027e00088007800803d2100070007000000e0001d
:1027f000020035008040eb00017478004f0478003f
:102800000080fa00000006006200fa00889fbe0007
:102810008a1f78000005780081047800020478009f
:102820008300780080f92f000f004000c8030700e4
:102830009a979f00a9979f000000eb00b09f9f0010
:102840001885fb008a04fb000a05ea004f55de00ec
:1028500050022000808f54000d003200e10f55001f
:102860000b003a000a017800880078002f9097004a
:102870009f91970003000100a0979f000000e000d7
:102880008e0032003f9897000000e800b09f9f0044
:102890000a04440050022000808f540004003200db
:1028a0000900e000e6ff3a003f98970084003700f7
:1028b0000000eb00909f9f00809f9f00f0979f007b
:1028c000e0979f00d0979f00c0979f0007003700b8
:1028d00021e42100010050000000400061e32100dc
:1028e00061007800df98970001007000d09f9f0082
:1028f0008804780009047800384578008a00fb00d5
:1029000020e421009bff07000000e000f0ff3a00f8
:10291000a1c2b300814f55000e003a00cf88970046
:102920000180e900c08f9f0010007800c09f9f00c9
:102930000000e00005003d000000ea00c09f9f008d
:102940005f9897000020a000d09f9f000904e80036
:102950000f003700c09f9f000000eb00050037000c
:10296000f2ff2700820f5000020032006a01b90016
:10297000028040000904780088047800b900fb0058
:102980000103b100e98f5000f5ff3600c09f9f00a2
:10299000e0c2b300984f1000020032000080eb004c
:1029a00019003700a0c2b300d84f100007003a004a
:1029b000cf8897000180e900c08f9f001000780049
:1029c000a09f9f000804e800100037000000eb0003
:1029d000a09f9f008800780005003700f3ff2700c4
:1029e000830f5000020032006a02b9000400410067
:1029f00001047800880078003101fb000203b10077
:102a0000e90f5100f5ff3600a09f9f009844780021
:102a10008900fb00e0e2210056ff07000000e00013
:102a2000020032000804e800010037008044eb0097
:102a3000c97f9f0080c6b30080cf540004003a00d5
:102a400098cf14000a003a00664050000600370094
:102a5000c0c6b30080cf540005003a0098cf1400e0
:102a600003003a0065404000c07f9f000804e80072
:102a70001801fb00e3fb2f008f81410081f92f003b
:102a80008f804000a0f92f000f00400010000700c9
:102a90000000e00009003a00e1fb2f008f804000b9
:102aa000a0f92f000f0040006d0207000000e000b9
:102ab000020035000804e80061ff37000080eb00e9
:102ac0004f0578004f04be000080fa0000000600a9
:102ad000889fbe008a1f780000047800e0c6b3001b
:102ae000804f5100c100320015003c006b40500087
:102af000804f5100240032000a003c00704050001a
:102b0000804f5100fa00320065404000804f510074
:102b10006800320050c2b300804f51000b013a00f0
:102b20000701370040c6b300804f51001b00320040
:102b300065404000804f510004013a001700370003
:102b400030c7b300804f5100e900320007003c005d
:102b500064405000804f5100560032000040e800b1
:102b6000804f5100f9003a00d300370050c7b3003e
:102b7000804f51004f00320063404000804f5100b1
:102b8000f2003a004b0037001181e900820878001a
:102b90007800900012417800ea0037002860900029
:102ba000c4c6b300844f500007003a0011027800f9
:102bb00064005200800878001002be004fabde00b7
:102bc000860378001100370014c7b300844f50000b
:102bd00003003200a4c6b300844f500006003a0040
:102be0001102780068005200800878003002be00b0
:102bf0002003be00050037001180e900800878003e
:102c000010027800cfa2de00612bb900049cbe0048
:102c10000694be002860900081c6b300814f50002a
:102c20000d00320021c6b300814f500004003a006d
:102c30000402fb00cfa2de00612bb90008003700c0
:102c400041c7b300814f500003003200e6c040008e
:102c5000814f500004003a00cfa2de00612bb90082
:102c6000049cbe000694be003802be002803be00cd
:102c700078009000d1c2b300e00f5200e08f5a00fc
:102c8000e00f5b00e08f5b000800350088109000cb
:102c90000118a30002003200b1c2b30003003700e4
:102ca0000108a3004c00320001c2b300817178001a
:102cb0004700370028609000c4c6b300844f50001e
:102cc00006003a0011027800640052008008780083
:102cd0001002be006033b8001100370014c7b30003
:102ce000844f500003003200a4c6b300844f50004c
:102cf00006003a001102780068005200800878004f
:102d00003002be002003be00050037001180e9003c
:102d100080087800100278008002eb006033b80071
:102d2000049cbe000694be002860900081c6b300db
:102d3000814f50000d00320021c6b300814f50007a
:102d400004003a000482fb008002eb006033b8000c
:102d50000800370041c7b300814f50000300320024
:102d6000e6c04000814f500004003a008002eb00b2
:102d70006033b800049cbe000694be0008109000aa
:102d80000038a300140032003802be002803be0041
:102d9000e00f5200e08f5a00e00f5b00e08f5b0015
:102da0000d00320080c7b300804f51000300320095
:102db00080c5b300804f510007003a0078009000b2
:102dc00001c3b300817178000000e80082717800cf
:102dd0000000e800700498007800900080814100b5
:102de00063049800824078003e003700286190001c
:102df000c3c6b3001180e900834f510022003200a6
:102e00000a003c00e4c15100834f5100250032000c
:102e100083c1e800834f510013003200e8c1510024
:102e2000834f51001e003a000a00370043c7b30029
:102e3000834f51001b003200e6c14100834f510017
:102e400018003200e9c15100834f510014003a00cc
:102e5000050037008008780010007800485c90007a
:102e6000084878004100370080087800100078009a
:102e7000680a9000cfa2de00612bb9000498be0062
:102e80000690be00390037008008780010007800f6
:102e900068099000cf91de000288be003300370041
:102ea0001180e9008008780010007800680c90001c
:102eb000080878002d0037001180e90080087800ac
:102ec00010027800cfa2de00612bb900049cbe0086
:102ed0000694be0078009000808141006304980051
:102ee00081c7b300080078002e0007001f003700dc
:102ef0001180e90080087800100578006a049800c5
:102f0000d80c90000900e00004003d000a007800a1
:102f1000fdfd0700800478000700370009017800f4
:102f20008000eb000a007800140007000000e000b9
:102f3000010032008a045000190c98000b00370081
:102f400078009000827178000600370078009000c9
:102f5000808141000204e00001003a0052c2b30047
:102f6000824978000000e800700498000000eb003f
:102f70004f0578004f04be00000006000300370034
:102f8000b0cf1000050032000201e9008001780096
:102f90000200e000faff3a0000000500030078009c
:102fa00000000600fc874700889fbe008a9fbe0085
:102fb0008c9fbe008e1f78000006780080c5b3008d
:102fc00080cf50000a0032007740400080cf500090
:102fd0000a0032006940400080cf50000b003200f0
:102fe000d0e1210080bf9f00ae0020000a00370022
:102ff000c2e0210082bf9f0006003700d3e121001c
:1030000083bf9f008e00200003003700d4e1210021
:1030100084bf9f000e0120003c02be002c03be00b6
:103020000605be000404be0040c6b30080cf5000b9
:10303000030032006540400080cf50000b003a0092
:10304000e00f5200e08f5a00e00f5b00e08f5b0062
:1030500006003d006000b8006011b8000404500094
:10306000858458000605590087855900e80f5700e8
:103070000400320040002000f00f570038003a00f2
:103080000100370030002000e00f5400e08f5c00aa
:10309000e00f5d00e08f5d0004003a00dc08900066
:1030a0008d0120000100e000060032008e00e900e2
:1030b000888060008fba9700e5c07800f1ef9f002c
:1030c0007d012000800078008100e90005003300c8
:1030d0008b05d1000a85d3008984d3000884d300ee
:1030e000f9ff3700089ebe000a96be0012003700a6
:1030f0008d06e9008e00e900848060000fb997001a
:10310000e2c1780082fd2f000f01410003f17e0033
:10311000800078008100e900050033008783d1003a
:103120000683d3008582d3000482d300f9ff3700e1
:10313000049ebe000696be003c02be002c03be00ec
:10314000e00f5200e08f5a00e00f5b00e08f5b0061
:103150008b0034000d00e000e5ff3c0088003700e4
:103160002c60900081c6b300814f50000b003200ec
:1031700006003c000004e00008003200e6c05000f9
:10318000814f50004e003a0004003700c1c6b30022
:10319000814f50004a003a00210037000800e0004b
:1031a00004003a005c0890008d0120000000e0005f
:1031b00006003200110009000e84d8000fb99700f4
:1031c000e2c07800f1ef9f007d01200011000900ae
:1031d0000e84d8000a003700110009000e04d80040
:1031e0008d06e9000e81b900020454008fb89700e3
:1031f00061417c0081fd2f008f80400082f07e00c5
:10320000000478000800e000020032000d00e00039
:10321000f1ff3c00cfc4de00614db900250037004e
:10322000e00f5400e08f5c0004003a005c0890005e
:103230008d0120000000e000070032006171b9003c
:103240000800be00bcfc07008fb99700e34178007e
:10325000f3ef9f007d0120006171b9000800be00fe
:1032600002fd07000b0037006171b9000800be00c5
:10327000390107008d06e90000f1b900020454008d
:103280000fba9700e4427c0084fd2f000f02420039
:1032900005f27e000004be00e00f5000e08f5800f1
:1032a000020032000d00e000efff3c004fcdde00d9
:1032b0008a057800089ebe000a96be0030003700de
:1032c000e00f5400e08f5c00e00f5d00e08f5d00d8
:1032d00004003a005c0890008d0120000000e0002e
:1032e000090032006172b900612bb9000800be000c
:1032f0000a01be00c70107000fba970064427800b8
:10330000f4ef9f007d0120006172b900612bb900cc
:103310000800be000a01be00b70107000d0037001b
:103320006172b900612bb9000800be000a01be003d
:10333000bc0107008d06e90000f2b9000404540046
:103340008fba970065427c0085fd2f008f82420076
:1033500084f27e00009ebe000296be003c04be00c9
:103360002c05be00e00f5400e08f5c00e00f5d0014
:10337000e08f5d00020034000d00e000e8ff3c003b
:10338000e80f570010003a000c1090000038a3001e
:103390000d003200f78f560006003e0085fd2f001d
:1033a0008f824200e5c07e0000c3b30080cf500092
:1033b000050032008d06e90002c3b30081fd2f0035
:1033c0008f80400082f07e0078811600120e9800f7
:1033d0006c00900083fd2f008f8141008d804100a3
:1033e000b2fc07001c089000dc089000810f500020
:1033f00006003d0000805000000e98000c10900068
:103400000040a100001698000f0037000100e00006
:103410000d003d008c109000f4806000f08f500093
:1034200009003a007c099000fc00900081005100e6
:103430000c09900082805000008050004240a9009a
:1034400001003400000e98004f0778004f06be00c0
:103450004f05be004f04be00cf01b10000000600c2
:103460000400fa00889fbe008a9fbe008c1f78006f
:103470000004780001067800f80d900078009000b4
:103480008085550008089000808555001808900038
:1034900080855500280890008085550038089000e8
:1034a0008085550048089000808555000002220064
:1034b00090bf9f0000032300a0bf9f000810900052
:1034c0000028a30015003a000b00e00013003400b0
:1034d0000b0578008a047800e20f550001003600e1
:1034e00029002000c801900009017800ee805700f3
:1034f0005800900003000100500498000000e00014
:103500008c0032006808900009004000600c9800b0
:10351000090555004240a900eeff3c0078019000eb
:103520000200e0000c003400c80190008c0078001c
:103530005800900003000100500498008080eb00c8
:103540000000e0007c003200e80890007800900065
:1035500000804000600c9800880c90000900e0009a
:103560001100340009057800e28f54000100360094
:103570002a002000c80190000a017800ec80570062
:103580005800900003000100500498000000e00083
:1035900068003200680890000a004000600c980043
:1035a0008a845400edff3700180990000200e00003
:1035b0000c003400c8019000e80090005800900012
:1035c00003000100500498008080eb000000e00040
:1035d00059003200e8089000180890000080400070
:1035e000600c9800a80c90000900e0001100340065
:1035f00009057800e28f5400010036002a002000ff
:10360000c80190000a017800ec8057005800900033
:1036100003000100500498000000e0004500320063
:10362000680890000a004000600c98008a845400ea
:10363000edff3700380990000200e0000e00340072
:10364000e80090001808900080804000c8019000b9
:103650005800900003000100500498008080eb00a7
:103660000000e00034003200e808900038089000c4
:1036700000804000600c9800c80c90000900e00039
:103680001100340009057800e28f54000100360073
:103690002a002000c80190000a017800ec80570041
:1036a0005800900003000100500498000000e00062
:1036b00020003200680890000a004000600c98006a
:1036c0008a845400edff3700081090008000eb0062
:1036d0000028a300180032000b00e00016003400a0
:1036e0008b04780009057800e28f54000100360051
:1036f0002a002000c80190000a017800ee805700df
:103700005800900003000100500498000000e00001
:1037100008003200680890000a004000600c980021
:103720008a8454004240a900eeff3c008000eb0078
:10373000010037008080eb00010078004f06780020
:103740004f05be004f04be000080fa0000000600d6
:103750000108780000000600839f68000100e00077
:1037600002003d0060001000e08018000300e0004f
:1037700002003d0060011100e0811900bbfb070061
:103780004f00e00002003b0060001000e0801800e5
:1037900000000600889fbe008a9fbe0030044200e1
:1037a000b0844a0030054b0090854b006000b100aa
:1037b0000898be000a90be000440e10005c8e10080
:1037c00006d0e10007d8e1000200310068004000a7
:1037d0001008e8004f05be004f04be0000000600c0
:1037e000889fbe008a9fbe003004be002005be0038
:1037f0000418540005985c0006185d0007985d00e9
:10380000110020000440e10005c8e10006d0e100fd
:1038100007d8e100010039008000eb00108810009b
:103820004f05be004f04be00000006001200fa0063
:10383000889fbe008a9fbe008c9fbe00e0b79f009d
:10384000f1b79f0082bf9f0093bf9f000605be0097
:103850000404be000000eb00d0b79f00c0b79f007b
:10386000b0b79f00a0b79f0090b79f000006eb0085
:103870005fb19700cfb09700820141003fb0970041
:103880000200e00004003d00370007007e80570082
:10389000c0ff070003003700330007007e80570099
:1038a000cfff0700dfb697000d00e0000c003500e9
:1038b0006fb29700ffb297000fbb97009fbb9700b6
:1038c00010002000010020006011b800000272000a
:1038d0008182720002037300838373001b00070060
:1038e0000c06e80001042000810f5600e0ff3a00ba
:1038f0000d00e00004003d000802be000a03be0007
:103900007e805700a3ff07005fa897000000e0003b
:1039100005003a001fb29700afb297003fb397007f
:10392000cfb39700090007006fb09700ffb0970072
:103930000fb997009fb997004f06be004f05be0014
:103940004f04be000080fa000000060001000700de
:1039500000000600a4b79f00b5b79f00c6b79f0040
:10396000d7b79f00000006004f09de00828171007a
:10397000b3b79f004f01de0081804000828070005d
:10398000a1b79f008fb097004f09de0000004000f4
:103990000200700090b79f007fa897004f01de00e3
:1039a000818040008280700081b79f000d00070079
:1039b0004f3ade000000400004007000f0af9f00ae
:1039c000080007000402420085824a0006034b00fb
:1039d00087834b00dfff07000802be000a03be001a
:1039e000000006002fb29700bfb297004fb39700b8
:1039f000dfb3970000000600881f78001800200041
:103a0000881f780089ff07008f87e9004f0478003e
:103a100000000600801feb0084ff07008f87e9008d
:103a200000000600889fbe008a9fbe00e00f500085
:103a3000e08f5800e00f5900e08f59000c003d0066
:103a40006044b8006055b8000000540081805c00fc
:103a500002015d0083815d00180020001500070051
:103a600008003d00180007000004eb0005003700c7
:103a70000004eb000f00070002003d0012000700e9
:103a800018002000dcff07000800e00006003200fc
:103a90006022b8006033b8000000520081805a00f4
:103aa00002015b0083815b004f05be004f04be0036
:103ab00000000600e00f5200e08f5a00e00f5b00ac
:103ac000e08f5b00000006006044b8006055b8005d
:103ad0000402540085825c0006035d0087835d005c
:103ae00000000600889fbe008a9fbe008c1f7800e1
:103af000e00f5000e08f5800e00f5900e08f5900b0
:103b00000d003d006044b8006055b800000054004e
:103b100081805c0002015d0083815d001c0020004b
:103b20000820e10009a8e1000ab0e1000bb8e100bb
:103b30000d003d00080037000006eb00e00f5200ca
:103b4000e08f5a00e00f5b00e08f5b0006003d0055
:103b50006044b8006055b8000402540085825c00df
:103b600006035d0087835d00aaff07000c00e000ec
:103b7000060032006022b8006033b8000000520036
:103b800081805a0002015b0083815b004f06780050
:0c3b90004f05be004f04be000000060000
:020000040000fa
:103b9c0045430000432d00004d6f0000626900009a
:103bac006c65000000650000636300006c61000040
:103bbc0062310000313200003200000061740000fc
:103bcc005f7400006f0000003e3e0000204f0000bc
:103bdc006e4300006f6e00006e65000063740000a1
:103bec00656400000d0a0000003e00003e2000004d
:103bfc005374000061720000746900006e6700006d
:103c0c00205300006572000076650000722e0000e3
:103c1c002e2e00000d0a0000004f00004b0d00007e
:103c2c000a000000415400002b43000049500000e2
:103c3c005345000052560000455200003d31000033
:103c4c002c380000300d00000a0000004154000028
:103c5c002b43000049460000535200000d0a00009f
:103c6c00003e00003e2000004f6e00004469000042
:103c7c00736f00006e6e00006563000074650000d9
:103c8c00640d00000a0000003c680000746d000028
:103c9c006c3e00003c68000065610000643e000062
:103cac003c730000747900006c6500003e2e00002f
:103cbc0072650000647b0000636f00006c6f000095
:103ccc00723a000072650000643b00007d2e00001b
:103cdc0067720000656500006e7b0000636f00007a
:103cec006c6f0000723a000067720000656500009e
:103cfc006e3b00007d2e0000626c000075650000bc
:103d0c007b6300006f6c00006f7200003a62000071
:103d1c006c750000653b00007d3c00002f730000bb
:103d2c00747900006c6500003e3c00002f680000b8
:103d3c0065610000643e00003c6200006f6400009e
:103d4c00793e00003c680000333e000057650000df
:103d5c006c6300006f6d000065200000746f000044
:103d6c00204900006f540000205700006f720000c3
:103d7c006c640000213c00002f680000333e000002
:103d8c003c680000343e0000537500007070000069
:103d9c006f7200007465000064200000636f000007
:103dac006d6d0000616e0000647300003a3c000011
:103dbc002f680000343e00003c7500006c3e000093
:103dcc003c6c000069200000636c00006173000013
:103ddc00733d00002772000065640000273e000060
:103dec00495000002f6c000065640000302d00006d
:103dfc006f6e00003c2f00006c6900003e3c000020
:103e0c006c690000206300006c610000737300009b
:103e1c003d27000072650000642700003e49000049
:103e2c00502f00006c650000643100002d6f000005
:103e3c006e3c00002f6c0000693e00003c6c0000e2
:103e4c0069200000636c000061730000733d00008a
:103e5c002772000065640000273e000049500000f6
:103e6c002f6c000065640000322d00006f6e0000a6
:103e7c003c2f00006c6900003e3c00006c690000a7
:103e8c00206300006c610000737300003d2700008c
:103e9c0072650000642700003e490000502f0000ae
:103eac006c650000643300002d6f00006e3c000058
:103ebc002f6c0000693e00003c6c00006920000083
:103ecc00636c000061730000733d00002767000005
:103edc0072650000656e0000273e0000495000002e
:103eec002f6c000065640000302d00006f66000030
:103efc00663c00002f6c0000693e00003c6c00002a
:103f0c0069200000636c000061730000733d0000c9
:103f1c002767000072650000656e0000273e0000f8
:103f2c00495000002f6c000065640000312d00002a
:103f3c006f660000663c00002f6c0000693e0000bc
:103f4c003c6c000069200000636c00006173000091
:103f5c00733d00002767000072650000656e00006d
:103f6c00273e0000495000002f6c000065640000e3
:103f7c00322d00006f660000663c00002f6c0000c4
:103f8c00693e00003c6c000069200000636c00007e
:103f9c0061730000733d000027670000726500002c
:103fac00656e0000273e0000495000002f6c000099
:103fbc0065640000332d00006f660000663c000055
:103fcc002f6c0000693e00003c6c00006920000072
:103fdc00636c000061730000733d000027620000f9
:103fec006c750000652700003e490000502f000052
:103ffc0062650000657000003c2f00006c690000d9
:10400c003e3c00002f7500006c3e00003c2f000071
:10401c00626f0000647900003e3c00002f680000d5
:10402c00746d00006c3e0000004500005252000010
:10403c004f5200000d0a0000002b000049500000f8
:10404c00442c0000002c00000047000045540000e8
:10405c00202f00000048000054540000502f000096
:10406c0000410000542b0000434900005053000055
:10407c00454e0000443d0000256400002c25000046
:10408c00640d00000a000000534500004e4400007f
:10409c00204f00004b0d00000a000000666100007c
:1040ac0076690000636f00006e2e000069630000eb
:1040bc006f0000006c650000643000002d6f000084
:1040cc006e0000006c650000643000002d6f000075
:1040dc0066660000006c000065640000312d000075
:1040ec006f6e0000006c000065640000312d000054
:1040fc006f660000660000006c6500006432000012
:10410c002d6f00006e0000006c6500006432000032
:10411c002d6f000066660000006c000065640000f6
:10412c00332d00006f6e0000006c00006564000011
:10413c00332d00006f660000660000006265000011
:10414c006570000000450000786500006375000094
:10415c0074650000642000003a2000002573000004
:10416c0000410000542b0000434900005043000064
:10417c004c4f0000534500003d250000640d00002d
:10418c000a00000057490000464900002047000083
:10419c004f54000020490000500d00000a000000a0
:1041ac0057490000464900002044000049530000d4
:1041bc00434f00004e4e000045430000540d0000dc
:1041cc000a0000000d0a00003e3e000020430000e3
:1041dc006f6e000065630000746900006e6700007c
:1041ec00207400006f2000006e65000074770000e2
:1041fc006f7200006b2e00002e2e00000d0a0000c6
:10420c0000410000542b0000435700004a410000bd
:10421c00503d000022250000732200002c220000db
:10422c0025730000220d00000a000000415400001c
:10423c00453000000d0a000000410000542b000026
:10424c00435700004d4f0000444500003d31000035
:10425c000d0a000000410000542b000043490000ef
:10426c00504d0000555800003d3100000d0a000073
:10427c00005b0000415400005d200000536500000d
:10428c006e640000696e0000672000003e3e000076
:10429c0020000000415400002b5200005354000039
:1042ac000d0a0000005200006573000065740000e8
:1042bc00696e000067200000746800006520000033
:1042cc005769000046690000206d00006f64000013
:1042dc00756c0000652e00002e2e00000d0a0000eb
:1042ec0000520000656300006f6e00006e650000f8
:1042fc0063740000207400006f20000057690000f8
:10430c0046690000204e000065740000776f0000c5
:10431c00726b00002e2e00002e0d00000a00000013
:10432c007365000072760000696300006500000090
:10433c002b490000504400002c000000000000003d
:020000040000fa
:10434c000200fa00000f7800d0a980000000e00005
:10435c0014003200c1a98000604b21000080400095
:10436c00904078001e00780001487800c0a98000b9
:10437c000000e800c0a98800c1a98000f007200057
:10438c00808f5000020036000000eb00c0a98800ae
:10439c00d0a980000000e900d0a9880010002000fe
:1043ac00010037000000eb000080fa00000006005e
:1043bc000200fa00000f780000ca80000000e00044
:1043cc0014003200f1c98000c0532100008040006d
:1043dc00904078001e00780001487800f0c98000f9
:1043ec000000e800f0c98800f1c98000f03f20000f
:1043fc00808f5000020036000000eb00f0c98800ee
:10440c0000ca80000000e90000ca880010002000eb
:10441c00010037000000eb000080fa0000000600ed
:10442c000200fa000000eb00000f780005003700d6
:10443c00604b21001e0040008040eb0001487800da
:10444c001e0fe800f00720009e007800808f5000bf
:10445c00f7ff34000000eb00c0a988000000eb005f
:10446c00b0a988000000eb00d0a988000080fa00f9
:10447c00000006000200fa000000eb00000f7800bc
:10448c0005003700c05321001e0040008040eb00a7
:10449c00014878001e0fe800f03f20009e007800d5
:1044ac00808f5000f7ff34000000eb00f0c988004b
:1044bc000000eb00e0c988000000eb0000ca880097
:1044cc000080fa00000006000800fa00200798009f
:1044dc003107980014c0b3002e019000be0190006b
:1044ec000058220001002000800f5100818f5900dc
:1044fc0001003e000042eb00044f7800d61207008a
:10450c002135800000fe2f0000806000c000b30049
:10451c0020358800c982a80061368000f00f2e007b
:10452c008080600000302000010070006036880040
:10453c00c9a2a900d112070021e2a80021a2a9005a
:10454c002182a9002162a90001118000f0cf2f0067
:10455c00008060000011880020e2a90020c2a900a0
:10456c0020a2a9002082a9009e40780061c06000b2
:10457c000080fb00610060004300dd000111800041
:10458c000130a100010070000011880001118000b1
:10459c0090ff2f0000806000001188002002a9000d
:1045ac001e4078000004e000110032002e01900043
:1045bc00be0190004218dd00ce10de0081007000bc
:1045cc004210dd0050f707000001be000040220041
:1045dc0041b72400edf607000200200003f8230089
:1045ec008cf607002df7070000007800100037004c
:1045fc002e019000be0190004418dd00cc10de00ae
:10460c00810070004410dd003ff707000001be0080
:10461c000040220041b72400dcf607000200200015
:10462c0003f823007bf607001cf707000000780056
:10463c00401188002342a8002362a90023e2a900ac
:10464c0023a2a90022e2a90022c2a9009560a80019
:10465c009580a9002342a800100280004500de00ce
:10466c00674060000080fb0010079800110280007a
:10467c00000e2000010070001002880000000000f5
:10468c0002042000c1832000c0872000ee10070028
:10469c0002402000b1882000c0c82000ea100700aa
:1046ac001e00900000407800674060000080fb0016
:1046bc00670060004500dd0012028000f1f12f0060
:1046cc0081006100010070001002880000000000f1
:1046dc000080fa00000006000800fa00200798008d
:1046ec003107980014c0b3002e019000be01900059
:1046fc000058220001002000800f5100818f5900ca
:10470c0001003e000042eb00044f780052120700fb
:10471c003135800000fe2f0000806000e000b30007
:10472c0030358800c9c2a80071368000f00f2e0009
:10473c0080806000005020000100700070368800fe
:10474c00c9e2a9004d12070031e2a80031a2a9006c
:10475c003182a9003162a90081118000f0cf2f00b5
:10476c00008060008011880030e2a90030c2a900ee
:10477c0030a2a9003082a9009e40780061c0600080
:10478c000080fb00610060004300dd0081118000af
:10479c000130a1000100700080118800811180009f
:1047ac0090ff2f0000806000801188003002a9006b
:1047bc001e4078000004e000110032002e01900031
:1047cc00be0190004218dd00ce10de0081007000aa
:1047dc004210dd00ccf607000001be0000402200b4
:1047ec0041b7240069f607000200200003f82300fb
:1047fc0008f60700a9f60700000078001000370043
:10480c002e019000be0190004418dd00cc10de009b
:10481c00810070004410dd00bbf607000001be00f3
:10482c000040220041b7240058f607000200200087
:10483c0003f82300f7f5070098f60700000078004e
:10484c00c01188003342a8003362a90033e2a900ea
:10485c0033a2a90032e2a90032c2a90097c0a80075
:10486c0097e0a9003342a800100280004500de004a
:10487c00674060000080fb00100798001102800068
:10488c00000e2000010070001002880000000000e3
:10489c0002402000a1c92000a00921006a100700d5
:1048ac0002402000910a2100a04a21006610070056
:1048bc001e00900000407800674060000080fb0004
:1048cc00670060004500dd0012028000f1f12f004e
:1048dc0081006100010070001002880000000000df
:1048ec000080fa00000006000800fa00300798006b
:1048fc000000eb00000f7800be009000110798003c
:10490c00040037001e0fe8001e0090000000e800b5
:10491c00100798001e009000104078000004e00082
:10492c00f8ff3a00906480000140200000805000a5
:10493c009e0f500002003e000000eb002d003700df
:10494c00be009000110798001e0037001002800076
:10495c004500de00674060000080fb0020079800e7
:10496c0011028000000e200001007000100288006f
:10497c00000000001e009000104078009e00900087
:10498c008100e8001107980080407800c0c8200022
:10499c00451007002e009000004078006740600032
:1049ac000080fb00670060004500dd001202800003
:1049bc00f1f12f00810061000100700010028800ed
:1049cc00000000001e009000104078000004e00081
:1049dc00deff3a00a104800000002100008060008e
:1049ec000000e00002003a008580a8009580a80035
:1049fc001e0078000080fa00000006000800fa0093
:104a0c00300798000000eb00000f7800be0090000b
:104a1c0011079800040037001e0fe8001e009000dc
:104a2c000000e800100798001e009000104078006d
:104a3c000004e000f8ff3a00906480000140200080
:104a4c00008050009e0f500021003e000000eb0043
:104a5c002c003700100280004500de00674060002b
:104a6c000080fb002007980011028000000e20003f
:104a7c000100700010028800000000003e00900051
:104a8c0010407800be0090008100e80031079800cb
:104a9c0080407800a04a2100031007002e009000ef
:104aac0000407800674060000080fb0067006000f9
:104abc004500dd0012028000f1f12f008100610041
:104acc000100700010028800000000000100370097
:104adc00000000003e009000104078000004e00050
:104aec00dcff3a00b1048000000028000080600068
:104afc000000e00002003a0087e0a80097e0a80060
:104b0c001e0078000080fa00000006000800fa0081
:104b1c002007980031079800906480000140200025
:104b2c00808050003e009000808f500002003e00bc
:104b3c000000eb002d0037000000eb00000f7800a8
:104b4c001e003700100280004500de006740600048
:104b5c000080fb001007980011028000000e20005e
:104b6c000100700010028800000000001e00780098
:104b7c00ae0090000080400010407800804078002b
:104b8c00c0c82000c80f07001e009000004078002d
:104b9c00674060000080fb00670060004500dd009e
:104bac0012028000f1f12f00810061000100700001
:104bbc0010028800000000001e0fe8009e00780024
:104bcc003e009000808f5000deff3900a104800071
:104bdc0000002100008060000000e00002003a00ac
:104bec008580a8009580a8003e0090000080fa0007
:104bfc00000006000800fa00300798003e00900004
:104c0c009000900090648000024020000000510051
:104c1c00808f5000020039000000eb003300370099
:104c2c003e00900090007800110798000000eb0007
:104c3c00000f78001f003700100280004500de00d6
:104c4c00674060000080fb00200798001102800084
:104c5c00000e20000100700010028800000000000f
:104c6c001e009000104078009e0090008100e8002b
:104c7c001107980080407800c0c820008a0f0700f8
:104c8c002e00900000407800674060000080fb0020
:104c9c00670060004500dd0012028000f1f12f007a
:104cac00810061000100700010028800000000000b
:104cbc001e0fe8009e0078003e009000100090004f
:104ccc00808f5000dcff3900a1048000000021001f
:104cdc00008060000000e00002003a008580a8001f
:104cec009580a8003e009000100090000080fa0013
:104cfc00000006000400fa00204798009164800030
:104d0c00f03f2000808f5000020036000000eb00c6
:104d1c0021003700100280004500de006740600073
:104d2c000080fb00000f780011028000000e2000b4
:104d3c00010070001002880000000000ae409000de
:104d4c00c0c82000580f07001e00780000407800f3
:104d5c00674060000080fb00670060004500dd00dc
:104d6c0012028000f1f12f0081006100010070003f
:104d7c001002880000000000a10480000000210047
:104d8c00008060000000e00002003a008580a8006e
:104d9c009580a800100020000080fa00000006009a
:104dac000800fa00200798003107980080a58000c1
:104dbc0001402000808050003e009000808f500009
:104dcc0002003e000000eb002d0037000000eb005d
:104ddc00000f78001e003700100280004500de0036
:104dec00674060000080fb001007980011028000f3
:104dfc00000e20000100700010028800000000006e
:104e0c001e007800ae00900000804000104078003a
:104e1c0080407800a04a2100230f07001e0090005c
:104e2c0000407800674060000080fb006700600075
:104e3c004500dd0012028000f1f12f0081006100bd
:104e4c000100700010028800000000001e0fe80036
:104e5c009e0078003e009000808f5000deff3900ed
:104e6c00b104800000002800008060000000e00019
:104e7c0002003a0087e0a80097e0a8003e009000ee
:104e8c000080fa00000006000800fa0030079800c5
:104e9c003e0090009000900080a580000240200011
:104eac0000005100808f5000020039000000eb0020
:104ebc00330037003e0090009000780011079800f6
:104ecc000000eb00000f78001f003700100280007c
:104edc004500de00674060000080fb002007980062
:104eec0011028000000e20000100700010028800ea
:104efc00000000001e009000104078009e00900002
:104f0c008100e8001107980080407800a04a210039
:104f1c00e50e07002e00900000407800674060000e
:104f2c000080fb00670060004500dd00120280007d
:104f3c00f1f12f0081006100010070001002880067
:104f4c00000000001e0fe8009e0078003e0090005c
:104f5c0010009000808f5000dcff3900b1048000fd
:104f6c0000002800008060000000e00002003a0011
:104f7c0087e0a80097e0a8003e0090001000900089
:104f8c000080fa00000006000400fa002047980098
:104f9c0081a58000f03f2000808f50000200360079
:104fac000000eb0021003700100280004500de00fd
:104fbc00674060000080fb00000f78001102800049
:104fcc00000e20000100700010028800000000009c
:104fdc00ae409000a04a2100b30e07001e007800de
:104fec0000407800674060000080fb0067006000b4
:104ffc004500dd0012028000f1f12f0081006100fc
:10500c00010070001002880000000000b104800054
:10501c0000002800008060000000e00002003a0060
:10502c0087e0a80097e0a800100020000080fa009c
:10503c00000006000400fa00000f78001107980029
:10504c009e007800914088009e009000f1df88005f
:10505c000080fa00000006000200fa00000f780041
:10506c009e007800b1df88000080fa000000060086
:10507c000200fa00000f78009e00780001e0880022
:10508c000080fa00000006000200fa00000f780011
:10509c009e007800c1df88000080fa000000060046
:1050ac000200fa00000f78009e007800d1df880023
:1050bc000080fa00000006000200fa00000f7800e1
:1050cc009e00780011e088000080fa0000000600c5
:1050dc000200fa00000f78009e007800e1df8800e3
:1050ec000080fa00000006000200fa00000f7800b1
:1050fc009e00780021e088000080fa000000060085
:10510c000000fa0040e080000000e80040e0880069
:10511c0041e08000703e2000808f50001c00360063
:10512c000000eb0040e0880050e080000000e80048
:10513c0050e0880051e08000b0032000808f5000c8
:10514c00130036000000eb0050e0880060e08000a7
:10515c000000e80060e0880061e08000b0032000ff
:10516c00808f50000a0036000000eb0060e08800e1
:10517c0070e080000000e80070e0880070e08000c3
:10518c00f70f5000020036000000eb0070e08800c2
:10519c000080fa00000006000000fa000001780010
:1051ac0060c0210082007800b0187800a010780050
:1051bc00e480400064004000b0187800a010780033
:1051cc00e480400064004000900878008180e80092
:1051dc000080e800020078000080fa000000060061
:1051ec000400fa00004f78001147980022479800fd
:1051fc001e80fb0070e088001e4090000080fb00c9
:10520c0060e088002e4090000080fb0050e0880099
:10521c000000eb0040e088000000eb0030e088006c
:10522c000080fa00000006000000fa00889fbe0013
:10523c008a9fbe0080df800091df800032f407007f
:10524c000004be00000880008000eb002ef4070074
:10525c000005be00100880008000eb002af4070057
:10526c000001be000a00be00c8f307000001be002a
:10527c000800be0068f307004f05be004f04be00d7
:10528c000080fa00000006000000fa0080df8000b9
:10529c0091df8000823e20000289b9000201780073
:1052ac006002b9008401780003014100833e2000b4
:1052bc000300b80001014100820078000208800060
:1052cc000201d1008001eb00000041008180490007
:1052dc000080fa00000006000000fa0080df800069
:1052ec0091df80000080fa00000006000200fa0046
:1052fc0070df8000000f78000000eb0070df88008a
:10530c001e007800004078000080fa0000000600c3
:10531c000000fa0004c1a9000421a90021088000a2
:10532c00f0fc2f00008060000040a00020088800e6
:10533c00007d2000100888000021ef009460a80078
:10534c0005e1a8000080fa00000006000200fa0047
:10535c00000f78009e007800814088000080fa00e1
:10536c00000006000000fa000000eb00c0df88001f
:10537c000000eb00b0df88000000eb00e0df8800ed
:10538c000000eb00d0df8800e1ff07000080fa008e
:10539c00000006000a00fa006047980041079800d8
:1053ac00e0192a002007980015c8bf000004e0008f
:1053bc0005003d001568ef001668ef001768ef0058
:1053cc001868ef001968ef0019c8bf000080fb00d7
:1053dc00e10f500027003200e10f500003003c00a9
:1053ec000000e00006003200a9003700e20f500078
:1053fc0030003200e30f50006d003200a400370083
:10540c0016c8bf000080fb00ae009000008040007a
:10541c00904078006e40900080cf500012003a000f
:10542c0015c8bf008080fb00ee41900002c921002e
:10543c0003f178000040e80015e8b70016c8bf007b
:10544c000040e80016e8b70016c8bf00e44f500053
:10545c00880036001668ef0019c8bf000040e8004d
:10546c0019e8b7008a0037001568ef001668ef00de
:10547c008700370015c8bf008080fb00ee4190000c
:10548c0002c9210003f178000040e80015e8b700dc
:10549c00ee409000c0c2b30080cf500077003a00bd
:1054ac001768ef0019c8bf000040e80019e8b70002
:1054bc007700370015c8bf008080fb00ee419000dc
:1054cc0002c9210003f178000040e80015e8b7009c
:1054dc0017c8bf008080fb00ee41900002d1210074
:1054ec0003f178000040e80017e8b700ee409000a8
:1054fc00a0c3b30080cf500062003a0017c8bf00b1
:10550c000040e90017e8b70017c8bf000080fb0097
:10551c0001d121000041eb00827078001868ef0087
:10552c0010002000000f78001400370017c8bf00cf
:10553c000080fb0001d12100614078000080fb005d
:10554c000003b100004078009e0078008140780094
:10555c008180fb000088b900000078008040780052
:10556c0018c8bf0000c0400018e8b7001e00780043
:10557c006a00b90000007800000f780017c8bf005f
:10558c008080fb008100ea00cf08de0081407800bb
:10559c000040e90017e8b7000104e000e3ff3a001f
:1055ac0019c8bf000040e80019e8b7003800370000
:1055bc0015c8bf008080fb00ee41900002c921009d
:1055cc0003f178000040e80015e8b70018c8bf00e8
:1055dc000040e90018e8b70018c8bf000004e0005c
:1055ec002a003a000000eb00100798000c0037006e
:1055fc004e009000900078001e009000008040004b
:10560c0002c921009e009000810041009140780069
:10561c00014878001e0090000000e8001007980078
:10562c0015c8bf008080fb001e009000808f5000ca
:10563c00efff3d004e009000900078001e0090009f
:10564c00008040008040eb00014878001e00900074
:10565c000000e900800078004e00900011009800d6
:10566c001968ef001568ef001668ef0010002000b5
:10567c0008003700000000000500370000000000a3
:10568c00030037000000000001003700000000009c
:10569c000000eb000080fa00000006000600fa0093
:1056ac00204798002107980014c8bf000004e000b0
:1056bc0001003d001468ef0014c8bf008080fb009f
:1056cc00ae41900002c1210003f178000040e800d7
:1056dc0014e8b7002e409000ea4f50001d003a002d
:1056ec000000eb00000f7800090037002e0090003e
:1056fc00900078001e0078000080400001c121005d
:10570c009e80400091407800014878001e0fe80010
:10571c0014c8bf000080fb009e0f5000f3ff3c003c
:10572c002e009000900078001e0078000080400051
:10573c008040eb000148780014c8bf008080fb005b
:10574c002e009000110098001468ef00100020004b
:10575c00010037000000eb000080fa00000006009a
:10576c00b600fa00b0df80000000e0002700320035
:10577c00100280004500de00674060000080fb00e6
:10578c00000f780011028000000e20000100700054
:10579c0010028800000000006a004700e8fa0700c9
:1057ac00100798001e0078000040780067406000e9
:1057bc000080fb00670060004500dd0012028000e5
:1057cc00f1f12f00810061000100700010028800cf
:1057dc00000000001e0090000000e0000b003200f2
:1057ec0010c0b300504f98000040eb00404f9800a1
:1057fc006a0047007007980010002000000f980006
:10580c00b1df80006c00470001000100d0df800098
:10581c000000e00027003200100280004500de008e
:10582c00674060000080fb00200798001102800098
:10583c00000e200001007000100288000000000023
:10584c006a004700dafa0700100798002e00900053
:10585c0000407800674060000080fb00670060003b
:10586c004500dd0012028000f1f12f008100610083
:10587c000100700010028800000000001e00900063
:10588c000000e0000b00320020c0b300305798003d
:10589c0010c0b300205798006a004700200f9800f2
:1058ac0010002000300f9800d1df800072004700fc
:1058bc0001000100c0df80000000e0001200320097
:1058cc00a0882000104078000004e0000e00320098
:1058dc0010c0b300105f980020c0b300005f9800a8
:1058ec000000eb00500f98000000eb00600f9800d8
:1058fc00c1df80007800470001000100a088200073
:10590c008040eb0001487800e0df80000000e00000
:10591c0012003200800a2100104078000004e000e0
:10592c000e00320020c0b300705f980030c0b3008e
:10593c00605f98000000eb00001798000000eb007f
:10594c0010179800e1df80007e0047000100010085
:10595c00800a21008040eb00014878001002800092
:10596c004500de00674060000080fb0030079800b7
:10597c0011028000000e200001007000100288004f
:10598c00000000006a00470080007800c0872000fb
:10599c00730c0700100798003e0090000040780040
:1059ac00674060000080fb00670060004500dd0080
:1059bc0012028000f1f12f008100610001007000e3
:1059cc00100288000000000000e080000000e000f1
:1059dc00170032001e0090000000e000140032009e
:1059ec0010c0b3005067980040c0b30040679800e7
:1059fc00600320000e004000301798000000eb0000
:105a0c00401798002e489000410220008e804000e4
:105a1c008180e80021ff07000000e0000400320054
:105a2c0001e08000400220000e0040000100010057
:105a3c00100280004500de00674060000080fb0023
:105a4c004007980011028000000e20000100700039
:105a5c0010028800000000006a00470080007800f7
:105a6c00a00921003e0c0700100798004e00900082
:105a7c0000407800674060000080fb006700600019
:105a8c004500dd0012028000f1f12f008100610061
:105a9c0001007000100288000000000010e080007f
:105aac000000e000170032001e0090000000e00033
:105abc001400320020c0b300306f980050c0b30007
:105acc00206f9800600320000e00400060179800c3
:105adc000000eb00701798002e489000a1022000e7
:105aec008e8040008180e800ecfe07000000e000a2
:105afc000400320011e08000a00220000e004000e3
:105b0c000100010020e080000000e00017003200de
:105b1c001e0090000000e0001400320020c0b30012
:105b2c001077980060c0b3000077980060032000e5
:105b3c000e004000101f98000000eb00201f980082
:105b4c002e489000010320008e8040008180e800e8
:105b5c0010fe07000000e0000400320021e080008d
:105b6c00000320000e00400001000100a0df8000b7
:105b7c000000e0001000320061fd07003b08070048
:105b8c00ba0a07002d05070062090700dc0c0700a4
:105b9c00960b0700a0df80000000e900a0df880062
:105bac00804080000000e000030032008040800054
:105bbc000000e900804088000080fa000000060028
:105bcc000400fa00100798000000eb00000f7800aa
:105bdc00000000001e0078009e0090000080400035
:105bec00104078000080fb000000ea004f00de004f
:105bfc00004078001e0fe8000004e000f5ff3a00ba
:105c0c001e00e9000080fa00000006000600fa0001
:105c1c0010079800210798000000eb00000f780097
:105c2c00090037001e007800ae0090000080400094
:105c3c009e0078001e019000810041009140780088
:105c4c00014878001e0fe8001e0078009e009000ae
:105c5c0000804000104078000004e000f1ff3a00a2
:105c6c001e007800ae009000008040008040eb00e9
:105c7c00014878002e0090000080fa000000060019
:105c8c000800fa00100798002107980032079800c6
:105c9c000000eb00000f78000000eb00000f780014
:105cac000a0037001e007800be0090000080400003
:105cbc009e0078001e019000810041009140780008
:105ccc00014878001e0fe8001e0fe8002e0090001f
:105cdc009e007800808f5000f2ff35001e00780087
:105cec00be009000008040008040eb00014878002e
:105cfc003e0090000080fa00000006000c00fa0044
:105d0c0040079800510798005e009000acff070018
:105d1c00200798004e009000a9ff0700300798005c
:105d2c00be0090002e009000808f500002003d00bd
:105d3c000080eb00240037000000eb00000f78001f
:105d4c000000eb00100798000000eb00000f78003b
:105d5c00180037001e007800ce0090000080400034
:105d6c00904078001e0090005e0190000000410001
:105d7c001040780080cf50000b003a001e009000bd
:105d8c000000e800100798009e0090002e00900084
:105d9c00808f5000060035009e00e8002e00900019
:105dac0000805000080037000000eb00100798003e
:105dbc001e0fe8003e0090009e007800808f50007f
:105dcc00e4ff35000080eb000080fa0000000600c4
:105ddc000e00fa00400798005107980062079800df
:105dec006e00900076ff070020079800de00900000
:105dfc0031079800be0090002e009000808f50005c
:105e0c0002003d000080eb00240037000000eb0096
:105e1c00000f78000000eb00100798000000eb006a
:105e2c00000f7800180037001e007800ce0090009c
:105e3c0000804000904078001e0090006e019000a1
:105e4c00000041001040780080cf50000b003a0059
:105e5c001e0090000000e800100798009e009000c3
:105e6c002e009000808f5000060035009e00e80048
:105e7c002e00900000805000080037000000eb005e
:105e8c00100798001e0fe8003e0090009e0078005e
:105e9c00808f5000e4ff35000080eb000080fa009a
:105eac00000006000e00fa005007980061079800e9
:105ebc006e00900042ff0700300798005e009000d3
:105ecc003fff070040079800ce0090003e00900076
:105edc00808f500002003d000080eb00270037004f
:105eec000000eb00000f78003e0090000000e9007d
:105efc00100798000000eb00200798004e0090005f
:105f0c00000fe900190037001e007800de00900039
:105f1c0000804000904078001e0090006e019000c0
:105f2c00000041001040780080cf50000c003a0077
:105f3c001e0090000000e900100798002e00900051
:105f4c000000e80020079800ae0090003e00900092
:105f5c00808f5000040035001e00780007003700c9
:105f6c000000eb00200798001e0fe9001e007800cf
:105f7c000000e000e4ff3d000080eb000080fa0030
:105f8c00000006000600fa00100798002107980090
:105f9c000000eb00000f78000000eb00000f780011
:105fac00100037001e0078009e009000008040001a
:105fbc009040780000c2b30080cf5000080032003f
:105fcc001e0078009e0090000080400090407800f9
:105fdc002e009000014878001e0078000800370061
:105fec001e0fe8001e0078009e009000008040000c
:105ffc00104078000004e000eaff3a000000eb00db
:10600c000080fa00000006000600fa001007980055
:10601c00414798000000eb00000f78000000eb00f7
:10602c00000f78000a0037001e0078009e009000d8
:10603c0000804000904078004e40900080cf50008f
:10604c0002003a001e007800080037001e0fe8001e
:10605c001e0078009e0090000080400010407800e8
:10606c000004e000f0ff3a000080eb000080fa0032
:10607c00000006000800fa0020079800614798000d
:10608c002e009000cefe0700100798001e00900016
:10609c00000fe9000a0037001e007800ae009000e7
:1060ac0000804000904078006e40900080cf5000ff
:1060bc0002003a001e007800080037001e0fe900ad
:1060cc001e007800ae009000008040001040780068
:1060dc000004e000f0ff3a000080eb000080fa00c2
:1060ec00000006000800fa0020079800310798000d
:1060fc002e009000b2fe0700100798001e009000c2
:10610c00000fe900100037001e007800ae00900070
:10611c00008040009040780000c2b30080cf500057
:10612c00080032001e007800ae0090000080400095
:10613c00904078003e009000014878001e007800e6
:10614c00090037001e0fe9001e007800ae00900019
:10615c0000804000104078000004e000eaff3a00a4
:10616c001e0090000000e9000080fa00000006000c
:10617c000c00fa002007980031079800420798009d
:10618c00530798000000eb00000f78002e009000e1
:10619c008bfe0700100798004e0090000000e000f6
:1061ac0015003d000c0037001e007800de0090004a
:1061bc0000804000be0090002e0190008100410044
:1061cc0091407800014878001e0fe8003e009000d6
:1061dc000000e800300798003e009000ae009000f0
:1061ec0000804000104078000004e000eeff3a0010
:1061fc005e00900023003700be0090004e0090001f
:10620c00808040001e009000808f500004003400fd
:10621c005e0090008040eb000148780018003700c9
:10622c000000eb00000f78000c0037001e00780017
:10623c00de00900000804000be0090002e01900017
:10624c008100410091407800014878003e009000a8
:10625c000000e800300798001e0fe8004e00900088
:10626c009e007800808f5000f0ff35001e007800f3
:10627c00de009000008040008040eb000148780078
:10628c005e0090000080fa00000006000e00fa008c
:10629c003007980041079800520798006307980050
:1062ac003e00900046fe070020079800ce009000ac
:1062bc002e009000808f500019003d00de009000f1
:1062cc004e009000808f500015003500ce009000dd
:1062dc00010f78000000eb00100798000c0037004d
:1062ec001e009000ee009000008040009e007800a0
:1062fc003e019000810041009140780001487800f7
:10630c001e0fe8001e0090000000e8001007980027
:10631c005e0090009e007800808f5000f0ff3400eb
:10632c001e009000ee009000008040008040eb00ca
:10633c00014878006e0090000080fa000000060012
:10634c000e00fa00600798000000eb00000f7800c8
:10635c000000eb00100798001e009000ee0090006b
:10636c000080400090407800d0c2b30080cf500035
:10637c0006003a0010002000000f78001e0090006c
:10638c000000e800100798000a0037001e0090007b
:10639c00ee0090000080400090407800b0c2b30046
:1063ac0080cf500003003a001e0090000000e8006f
:1063bc00100798001e009000ee0090000080400036
:1063cc00500798005e009000fdfd07002007980024
:1063dc001e0078000000e000020032000080eb009c
:1063ec000100370010002000300798000000eb007f
:1063fc0040079800140037002e0090000000e900c0
:10640c00200798002e009000de00900000804000d5
:10641c00104078000000fb0001fd2f008080400040
:10642c003e0090000088b90000007800ce0090007b
:10643c0000804000400798003e0090006a00b900c0
:10644c0000007800300798002e0090000000e0005b
:10645c00e9ff3a004e0090000080fa0000000600b0
:10646c000800fa0020079800310798000000eb00a4
:10647c00000f78000000eb001007980001003700b7
:10648c001e0fe8001e007800ae0090000080400057
:10649c009040780000c2b30080cf5000f8ff32006b
:1064ac000c0037001e009000be00900000804000e1
:1064bc009e0078002e0190008100410091407800f0
:1064cc00014878001e0090000000e80010079800ba
:1064dc001e0fe8001e007800ae0090000080400007
:1064ec00104078000004e000eeff3a001e0090001f
:1064fc00be009000008040008040eb000148780016
:10650c003e0090000080fa00000006000800fa002f
:10651c0020079800310798002e009000a8fd070076
:10652c00000fe900010037001e0fe9001e00780083
:10653c00ae009000008040009040780000c2b30094
:10654c0080cf5000f8ff32000000eb0010079800dd
:10655c000b0037001e009000be0090000080400031
:10656c009e0090002e019000810041009140780027
:10657c00014878001e0090000000e8001007980009
:10658c009e00e8001e009000808f5000f1ff3c0040
:10659c001e009000be009000008040008040eb0088
:1065ac00014878003e0090000080fa0000000600d0
:1065bc000c00fa003007980041079800224f980011
:1065cc000000eb00000f78000000eb0010079800b3
:1065dc00120037001e007800be00900000804000c2
:1065ec0090407800414798001e0fe800ce40900084
:1065fc002e48900080cf5000080032001e00900002
:10660c00ce00900000804000ce4090000148780001
:10661c001e0090000000e800100798001e00780093
:10662c00be00900000804000104078000004e000a4
:10663c00e8ff3a001e009000ce0090000080400061
:10664c008040eb00014878004e0090000080fa007a
:10665c00000006000c00fa00300798004107980073
:10666c00224f9800334f98000000eb00000f780089
:10667c000000eb0010079800180037001e0078008f
:10668c00be00900000804000904078004147980088
:10669c001e0fe800ce4090002e48900080cf500096
:1066ac0006003a001e009000ce00900000804000d2
:1066bc00be48900001487800050037001e0090008d
:1066cc00ce00900000804000ce4090000148780041
:1066dc001e0090000000e800100798001e007800d3
:1066ec00be00900000804000104078000004e000e4
:1066fc00e2ff3a001e009000ce00900000804000a7
:10670c008040eb00014878004e0090000080fa00b9
:10671c00000006000000fa000000eb0040ce8800ec
:10672c000000eb0050ce88000000eb0060ce88002b
:10673c000080fa00000006000400fa00000f780048
:10674c001107980060ce8000ff0f5000020034004b
:10675c000000eb001800370040ce800080004000a5
:10676c0080942100008040001e08780040ce8000fc
:10677c000002b000800040008094210000804000a6
:10678c009e0090000108780040ce80008000e80058
:10679c000002200000017800110009008200d800de
:1067ac008000fd0040ce880060ce80000000e80034
:1067bc0060ce8800100020000080fa000000060067
:1067cc000400fa00000f78001107980060ce8000da
:1067dc000000e00002003c000000eb001b00370052
:1067ec0050ce80008000400080942100008040004a
:1067fc00900078001e0078000108780050ce8000d0
:10680c000002b00080004000809421000080400015
:10681c00900078001e0090000108780050ce800097
:10682c008000e8000002200000017800110009003f
:10683c008200d8008000fd0050ce880060ce800021
:10684c000000e90060ce8800100020000080fa00f3
:10685c00000006000200fa00000f780020802000e3
:10686c00200090006107070020802000200090008d
:10687c0011070700208020008000eb002100980009
:10688c000080fa00000006000200fa00000f7800f9
:10689c002080200021002000310098002080200062
:1068ac00200090005107070020802000200090005d
:1068bc0001070700208020008000eb0021009800d9
:1068cc0000002000812c2400ee0707004006200069
:1068dc00280807000080fa00000006000000fa00fb
:1068ec00208020008000eb00310098000080fa002e
:1068fc00000006000600fa00000f7800110798004f
:10690c0022079800208020001e087800208020009c
:10691c009e0090001100980020802000100078004c
:10692c0036f807002080200011002000310098006c
:10693c0020802000200090000000e00009003200c0
:10694c0020802000200090002807070020802000d5
:10695c0020009000d8060700208020008000eb006b
:10696c0021009800a34423000001eb00ae0090002e
:10697c0040de29009906070021802000a000980025
:10698c000080fa00000006000200fa00000f7800f8
:10699c00a0de2900d4f70700b0df2900d2f70700ea
:1069ac0031e1290080e1290063ff070031e1290072
:1069bc00c0e2290060ff07000080fa00000006001a
:1069cc000200fa00000f780070e32900c6f70700f8
:1069dc000080fa00000006001000fa007007980012
:1069ec007e00900010019000a001900052079800ca
:1069fc0063079800de019000030f78001e007800fa
:106a0c00b1012a002def07001e00780031022a0088
:106a1c00bafc07000000e000b10035001e00780051
:106a2c0091022a00b5fc0700004078000040e80005
:106a3c00204798002e4090000080fb001e00400074
:106a4c009040780000cdb30000c040003047980063
:106a5c001e007800b1022a00a8fc07000040780054
:106a6c0065404000404798001e00780011032a0042
:106a7c00a2fc0700004078000040e9005047980055
:106a8c005e4090008080fb004e4090000080fb0038
:106a9c0000805000800078004e4090000080fb0089
:106aac001e0040000101780080007800e09f21006a
:106abc00fbee07005e4090008080fb004e40900093
:106acc000080fb0000805000e19f21000041eb00a2
:106adc0082707800ce4090005e40900080cf5000d5
:106aec0013003a003041800004ef0700800078006a
:106afc003e4090000080fb00811f7800801f7800d2
:106b0c0070032a00801f780060a121002cef070081
:106b1c00e687570031e1290060a1210006ff07003c
:106b2c0030418000a1042a0003ff070061003700f8
:106b3c0041052a00e09f2100f6ee07000000e0006e
:106b4c005c003a00e19f210000062a00dbee070002
:106b5c000000e00002003a00c442a9003b003700ec
:106b6c00e19f210080062a00d4ee07000000e0001f
:106b7c0002003a00c442a80034003700e19f210013
:106b8c0010072a00cdee07000000e00002003a00da
:106b9c00c482a9002d003700e19f210090072a0034
:106bac00c6ee07000000e00002003a00c482a80014
:106bbc0026003700e19f210020082a00bfee0700c5
:106bcc000000e00002003a00cc42a9001f00370090
:106bdc00e19f2100a0082a00b8ee07000000e000a9
:106bec0002003a00cc42a80018003700e19f2100b7
:106bfc0030092a00b1ee07000000e00002003a0064
:106c0c00cc62a90011003700e19f2100b0092a00d5
:106c1c00aaee07000000e00002003a00cc62a800d7
:106c2c000a003700e19f2100400a2a00a3ee07006a
:106c3c000000e00005003a0000002000a14f2400f5
:106c4c0010070700400620004a070700e09f2100bc
:106c5c00801f7800900a2a00801f780060a3210012
:106c6c00d7ee0700e487570060a32100a3ee0700ce
:106c7c00300798003e4090000080fb00be00900062
:106c8c00811f7800801f780070032a00801f780015
:106c9c0060a62100caee0700e687570031e1290003
:106cac0060a62100a4fe0700a1042a0060a3210015
:106cbc00a1fe07003e4090000080fb00801f780082
:106ccc00700b2a00801f780060a82100bcee070022
:106cdc00e487570031e1290060a8210096fe0700e7
:106cec002080200030009000e10f50000e003a0090
:106cfc005e0090004007980020802000100090005b
:106d0c00800078004e0090006cee07000000e00060
:106d1c0005003a00208020008000eb003100980034
:106d2c000000eb00cbfe070010ca80000000e00062
:106d3c000a003a001e007800810c2a005fee070062
:106d4c000000e00011003a001000200010ca88007a
:106d5c000000eb000cff07000c00370010ca80008d
:106d6c00e10f500009003a001e007800610d2a0066
:106d7c0052ee07000000e00004003a000000eb00b7
:106d8c0010ca88000000eb000dff07001e00780001
:106d9c00d5f607001100200030c0b3001101070028
:106dac000080fa00000006000400fa00000f7800d2
:106dbc00110798000000eb0010ca88009e007800b4
:106dcc0021ca88009e00900031ca8800800e2a00db
:106ddc00c5f6070031ca800020ca8000811f7800e8
:106dec00801f780070102a00801f7800e09c210022
:106dfc0073ee0700e6875700810c2a00e09c210007
:106e0c004dfe070031e12900c0112a004afe07009f
:106e1c0031e1290030122a0047fe070031e1290038
:106e2c0010132a0044fe07000080fa000000060040
:106e3c000600fa0020079800504080006140800056
:106e4c0061004000e08048005040880061408800ac
:106e5c0020802000300090000000e0000f003a007d
:106e6c000e80e800800078000e00780054fe0700c9
:106e7c000000e00012003200f0132a009af607001e
:106e8c001e00780098f607009e0090001e00780007
:106e9c000271220097fe07000900370020802000b5
:106eac0030009000e20f500005003a0000152a0057
